{
  "contractName": "Land",
  "abi": [
    {
      "inputs": [
        {
          "internalType": "address",
          "name": "_dataStorage",
          "type": "address"
        }
      ],
      "stateMutability": "nonpayable",
      "type": "constructor"
    },
    {
      "inputs": [
        {
          "internalType": "string",
          "name": "_description",
          "type": "string"
        },
        {
          "internalType": "bytes32",
          "name": "_documents",
          "type": "bytes32"
        },
        {
          "internalType": "string",
          "name": "_base64",
          "type": "string"
        }
      ],
      "name": "register",
      "outputs": [],
      "stateMutability": "nonpayable",
      "type": "function"
    },
    {
      "inputs": [
        {
          "internalType": "uint256",
          "name": "_id",
          "type": "uint256"
        },
        {
          "internalType": "string",
          "name": "_description",
          "type": "string"
        },
        {
          "internalType": "bytes32",
          "name": "_documents",
          "type": "bytes32"
        },
        {
          "internalType": "string",
          "name": "_base64",
          "type": "string"
        },
        {
          "internalType": "address",
          "name": "_contractAddress",
          "type": "address"
        }
      ],
      "name": "divide",
      "outputs": [],
      "stateMutability": "nonpayable",
      "type": "function"
    },
    {
      "inputs": [
        {
          "internalType": "uint256",
          "name": "_id",
          "type": "uint256"
        }
      ],
      "name": "getById",
      "outputs": [
        {
          "components": [
            {
              "internalType": "string",
              "name": "description",
              "type": "string"
            },
            {
              "internalType": "bytes32",
              "name": "documents",
              "type": "bytes32"
            },
            {
              "internalType": "uint256",
              "name": "hashId",
              "type": "uint256"
            }
          ],
          "internalType": "struct Land.Data",
          "name": "",
          "type": "tuple"
        }
      ],
      "stateMutability": "view",
      "type": "function",
      "constant": true
    },
    {
      "inputs": [
        {
          "internalType": "address",
          "name": "_address",
          "type": "address"
        }
      ],
      "name": "getByOwner",
      "outputs": [
        {
          "internalType": "uint256[]",
          "name": "",
          "type": "uint256[]"
        }
      ],
      "stateMutability": "view",
      "type": "function",
      "constant": true
    },
    {
      "inputs": [
        {
          "internalType": "uint256",
          "name": "_id",
          "type": "uint256"
        }
      ],
      "name": "getOwnerByLand",
      "outputs": [
        {
          "internalType": "address",
          "name": "",
          "type": "address"
        }
      ],
      "stateMutability": "view",
      "type": "function",
      "constant": true
    },
    {
      "inputs": [],
      "name": "getTotal",
      "outputs": [
        {
          "internalType": "uint256",
          "name": "",
          "type": "uint256"
        }
      ],
      "stateMutability": "view",
      "type": "function",
      "constant": true
    }
  ],
  "bytecode": "0x608060405234801561001057600080fd5b50604051610ecd380380610ecd8339818101604052810190610032919061008e565b80600460006101000a81548173ffffffffffffffffffffffffffffffffffffffff021916908373ffffffffffffffffffffffffffffffffffffffff16021790555050610100565b600081519050610088816100e9565b92915050565b6000602082840312156100a057600080fd5b60006100ae84828501610079565b91505092915050565b60006100c2826100c9565b9050919050565b600073ffffffffffffffffffffffffffffffffffffffff82169050919050565b6100f2816100b7565b81146100fd57600080fd5b50565b610dbe8061010f6000396000f3fe608060405234801561001057600080fd5b50600436106100625760003560e01c8063379c513114610067578063774caefe14610097578063775a25e3146100b357806395a93d6b146100d1578063e9d2785014610101578063f4f4d2371461011d575b600080fd5b610081600480360381019061007c9190610771565b61014d565b60405161008e9190610b06565b60405180910390f35b6100b160048036038101906100ac919061079a565b6101e4565b005b6100bb6103c6565b6040516100c89190610b8e565b60405180910390f35b6100eb60048036038101906100e69190610823565b6103d0565b6040516100f89190610aeb565b60405180910390f35b61011b60048036038101906101169190610875565b61040d565b005b61013760048036038101906101329190610823565b610530565b6040516101449190610b6c565b60405180910390f35b6060600160008373ffffffffffffffffffffffffffffffffffffffff1673ffffffffffffffffffffffffffffffffffffffff1681526020019081526020016000208054806020026020016040519081016040528092919081815260200182805480156101d857602002820191906000526020600020905b8154815260200190600101908083116101c4575b50505050509050919050565b600160003373ffffffffffffffffffffffffffffffffffffffff1673ffffffffffffffffffffffffffffffffffffffff16815260200190815260200160002060035490806001815401808255809150506001900390600052602060002001600090919091909150553360026000600354815260200190815260200160002060006101000a81548173ffffffffffffffffffffffffffffffffffffffff021916908373ffffffffffffffffffffffffffffffffffffffff1602179055508484600080600354815260200190815260200160002060000191906102c6929190610612565b5082600080600354815260200190815260200160002060010181905550600460009054906101000a900473ffffffffffffffffffffffffffffffffffffffff1673ffffffffffffffffffffffffffffffffffffffff1663b0c8f9dc83836040518363ffffffff1660e01b8152600401610340929190610b28565b602060405180830381600087803b15801561035a57600080fd5b505af115801561036e573d6000803e3d6000fd5b505050506040513d601f19601f82011682018060405250810190610392919061084c565b6000806003548152602001908152602001600020600201819055506003600081548092919060010191905055505050505050565b6000600354905090565b60006002600083815260200190815260200160002060009054906101000a900473ffffffffffffffffffffffffffffffffffffffff169050919050565b863373ffffffffffffffffffffffffffffffffffffffff166002600083815260200190815260200160002060009054906101000a900473ffffffffffffffffffffffffffffffffffffffff1673ffffffffffffffffffffffffffffffffffffffff16146104af576040517f08c379a00000000000000000000000000000000000000000000000000000000081526004016104a690610b4c565b60405180910390fd5b8173ffffffffffffffffffffffffffffffffffffffff16638d7496d7898989898989336040518863ffffffff1660e01b81526004016104f49796959493929190610ba9565b600060405180830381600087803b15801561050e57600080fd5b505af1158015610522573d6000803e3d6000fd5b505050505050505050505050565b610538610692565b600080838152602001908152602001600020604051806060016040529081600082018054600181600116156101000203166002900480601f0160208091040260200160405190810160405280929190818152602001828054600181600116156101000203166002900480156105ee5780601f106105c3576101008083540402835291602001916105ee565b820191906000526020600020905b8154815290600101906020018083116105d157829003601f168201915b50505050508152602001600182015481526020016002820154815250509050919050565b828054600181600116156101000203166002900490600052602060002090601f016020900481019282601f1061065357803560ff1916838001178555610681565b82800160010185558215610681579182015b82811115610680578235825591602001919060010190610665565b5b50905061068e91906106b6565b5090565b60405180606001604052806060815260200160008019168152602001600081525090565b5b808211156106cf5760008160009055506001016106b7565b5090565b6000813590506106e281610d43565b92915050565b6000813590506106f781610d5a565b92915050565b60008083601f84011261070f57600080fd5b8235905067ffffffffffffffff81111561072857600080fd5b60208301915083600182028301111561074057600080fd5b9250929050565b60008135905061075681610d71565b92915050565b60008151905061076b81610d71565b92915050565b60006020828403121561078357600080fd5b6000610791848285016106d3565b91505092915050565b6000806000806000606086880312156107b257600080fd5b600086013567ffffffffffffffff8111156107cc57600080fd5b6107d8888289016106fd565b955095505060206107eb888289016106e8565b935050604086013567ffffffffffffffff81111561080857600080fd5b610814888289016106fd565b92509250509295509295909350565b60006020828403121561083557600080fd5b600061084384828501610747565b91505092915050565b60006020828403121561085e57600080fd5b600061086c8482850161075c565b91505092915050565b600080600080600080600060a0888a03121561089057600080fd5b600061089e8a828b01610747565b975050602088013567ffffffffffffffff8111156108bb57600080fd5b6108c78a828b016106fd565b965096505060406108da8a828b016106e8565b945050606088013567ffffffffffffffff8111156108f757600080fd5b6109038a828b016106fd565b935093505060806109168a828b016106d3565b91505092959891949750929550565b60006109318383610acd565b60208301905092915050565b61094681610cba565b82525050565b61095581610c74565b82525050565b600061096682610c1e565b6109708185610c41565b935061097b83610c0e565b8060005b838110156109ac5781516109938882610925565b975061099e83610c34565b92505060018101905061097f565b5085935050505092915050565b6109c281610c86565b82525050565b6109d181610c86565b82525050565b60006109e38385610c63565b93506109f0838584610cf0565b6109f983610d32565b840190509392505050565b6000610a0f82610c29565b610a198185610c52565b9350610a29818560208601610cff565b610a3281610d32565b840191505092915050565b6000610a4a601583610c63565b91507f4f6e6c79206f776e657220697320616c6c6f77656400000000000000000000006000830152602082019050919050565b60006060830160008301518482036000860152610a9a8282610a04565b9150506020830151610aaf60208601826109b9565b506040830151610ac26040860182610acd565b508091505092915050565b610ad681610cb0565b82525050565b610ae581610cb0565b82525050565b6000602082019050610b00600083018461094c565b92915050565b60006020820190508181036000830152610b20818461095b565b905092915050565b60006020820190508181036000830152610b438184866109d7565b90509392505050565b60006020820190508181036000830152610b6581610a3d565b9050919050565b60006020820190508181036000830152610b868184610a7d565b905092915050565b6000602082019050610ba36000830184610adc565b92915050565b600060a082019050610bbe600083018a610adc565b8181036020830152610bd181888a6109d7565b9050610be060408301876109c8565b8181036060830152610bf38185876109d7565b9050610c02608083018461093d565b98975050505050505050565b6000819050602082019050919050565b600081519050919050565b600081519050919050565b6000602082019050919050565b600082825260208201905092915050565b600082825260208201905092915050565b600082825260208201905092915050565b6000610c7f82610c90565b9050919050565b6000819050919050565b600073ffffffffffffffffffffffffffffffffffffffff82169050919050565b6000819050919050565b6000610cc582610ccc565b9050919050565b6000610cd782610cde565b9050919050565b6000610ce982610c90565b9050919050565b82818337600083830152505050565b60005b83811015610d1d578082015181840152602081019050610d02565b83811115610d2c576000848401525b50505050565b6000601f19601f8301169050919050565b610d4c81610c74565b8114610d5757600080fd5b50565b610d6381610c86565b8114610d6e57600080fd5b50565b610d7a81610cb0565b8114610d8557600080fd5b5056fea264697066735822122016e84881948b784fd188d0b90d9ef4242a3d6ed43a660b9dea8b6c55ba3a560064736f6c634300060c0033",
  "immutableReferences": {},
  "source": "// SPDX-License-Identifier: MIT\n\npragma solidity ^0.6.0;\npragma experimental ABIEncoderV2;\n\n//import '../../OpenZeppelin/openzeppelin-contracts/contracts/math/SafeMath.sol';\nimport '@openzeppelin/contracts/math/SafeMath.sol';\n\nimport './Storage.sol';\nimport './Portion.sol';\n\n/// @title This contract represents a land/agricultural resource\ncontract Land {\n    \n    using SafeMath for uint256;\n    \n    /// @dev Land data\n    struct Data {\n        string description;\n        bytes32 documents;\n        uint256 hashId;\n    }\n    \n    /// @dev All the lands\n    mapping (uint256 => Data) private lands;\n    /// @dev Land indices grouped by owners\n    mapping (address => uint256[]) private landsByOwner;\n    /// @dev Owners grouped by land IDs\n    mapping (uint256 => address) private ownersByLandId;\n    \n    /// @dev Lands counter\n    uint256 private lastLandId;\n    /// @dev Document hashes storage contract\n    Storage private dataStorage;\n    \n    /// @param _dataStorage Address of storage contract\n    constructor (address _dataStorage) public {\n        dataStorage = Storage(_dataStorage);\n    }\n    \n    /// @dev Only owner can perform operation in his land\n    modifier onlyOwner(uint256 _landId) {\n        require(ownersByLandId[_landId] == msg.sender, 'Only owner is allowed');\n        _;\n    }\n    \n    /// @param _description Land description\n    /// @param _documents Documents link\n    /// @param _base64 Documents base64 encoded for calculating hash\n    function register(string calldata _description, bytes32 _documents, string calldata _base64) external {\n        landsByOwner[msg.sender].push(lastLandId);\n        ownersByLandId[lastLandId] = msg.sender;\n        \n        lands[lastLandId].description = _description;\n        lands[lastLandId].documents = _documents;\n        lands[lastLandId].hashId = dataStorage.add(_base64);\n        \n        lastLandId++;\n    }\n    \n    /// @dev Only owner can divide a land in portion. This method calls the Portion instance for registering a new portion starting from input data.\n    /// @param _id Land ID to divide\n    /// @param _description Portion description\n    /// @param _documents Documents link\n    /// @param _base64 Documents base64 encoded for calculating hash\n    /// @param _contractAddress Address of Portion contract    \n    function divide(uint256 _id, string calldata _description, bytes32 _documents, string calldata _base64, address _contractAddress) external onlyOwner(_id) {\n        Portion(_contractAddress).register(_id, _description, _documents, _base64, msg.sender);\n    }\n    \n    /// @param _id Land ID\n    /// @return the data of the land\n    function getById(uint256 _id) external view returns (Data memory) {\n        return lands[_id];\n    }\n    \n    /// @param _address Owner's address\n    /// @return the array containing ID of lands owned\n    function getByOwner(address _address) external view returns (uint256[] memory) {\n        return landsByOwner[_address];\n    }\n    \n    /// @param _id Land ID\n    /// @return the address of the owner\n    function getOwnerByLand(uint256 _id) external view returns (address) {\n        return ownersByLandId[_id];\n    }\n    \n    /// @return the total number of lands\n    function getTotal() external view returns (uint256) {\n        return lastLandId;\n    }\n}\n",
  "sourcePath": "/home/francesca/WebstormProjects/APT/contracts/Land.sol",
  "compiler": {
    "name": "solc",
    "version": "0.6.12+commit.27d51765.Emscripten.clang"
  },
  "schemaVersion": "3.2.5",
  "updatedAt": "2020-10-18T08:59:45.726Z",
  "networkType": "ethereum",
  "devdoc": {
    "kind": "dev",
    "methods": {
      "constructor": {
        "params": {
          "_dataStorage": "Address of storage contract"
        }
      },
      "divide(uint256,string,bytes32,string,address)": {
        "details": "Only owner can divide a land in portion. This method calls the Portion instance for registering a new portion starting from input data.",
        "params": {
          "_base64": "Documents base64 encoded for calculating hash",
          "_contractAddress": "Address of Portion contract    ",
          "_description": "Portion description",
          "_documents": "Documents link",
          "_id": "Land ID to divide"
        }
      },
      "getById(uint256)": {
        "params": {
          "_id": "Land ID"
        },
        "returns": {
          "_0": "the data of the land"
        }
      },
      "getByOwner(address)": {
        "params": {
          "_address": "Owner's address"
        },
        "returns": {
          "_0": "the array containing ID of lands owned"
        }
      },
      "getOwnerByLand(uint256)": {
        "params": {
          "_id": "Land ID"
        },
        "returns": {
          "_0": "the address of the owner"
        }
      },
      "getTotal()": {
        "returns": {
          "_0": "the total number of lands"
        }
      },
      "register(string,bytes32,string)": {
        "params": {
          "_base64": "Documents base64 encoded for calculating hash",
          "_description": "Land description",
          "_documents": "Documents link"
        }
      }
    },
    "stateVariables": {
      "dataStorage": {
        "details": "Document hashes storage contract"
      },
      "lands": {
        "details": "All the lands"
      },
      "landsByOwner": {
        "details": "Land indices grouped by owners"
      },
      "lastLandId": {
        "details": "Lands counter"
      },
      "ownersByLandId": {
        "details": "Owners grouped by land IDs"
      }
    },
    "title": "This contract represents a land/agricultural resource",
    "version": 1
  },
  "userdoc": {
    "kind": "user",
    "methods": {},
    "version": 1
  }
}