{
  "contractName": "Land",
  "abi": [
    {
      "inputs": [
        {
          "internalType": "address",
          "name": "_dataStorage",
          "type": "address"
        }
      ],
      "stateMutability": "nonpayable",
      "type": "constructor"
    },
    {
      "inputs": [
        {
          "internalType": "string",
          "name": "_description",
          "type": "string"
        },
        {
          "internalType": "string",
          "name": "_documents",
          "type": "string"
        },
        {
          "internalType": "string",
          "name": "_base64",
          "type": "string"
        }
      ],
      "name": "register",
      "outputs": [],
      "stateMutability": "nonpayable",
      "type": "function"
    },
    {
      "inputs": [
        {
          "internalType": "uint256",
          "name": "_id",
          "type": "uint256"
        },
        {
          "internalType": "string",
          "name": "_description",
          "type": "string"
        },
        {
          "internalType": "string",
          "name": "_documents",
          "type": "string"
        },
        {
          "internalType": "string",
          "name": "_base64",
          "type": "string"
        },
        {
          "internalType": "address",
          "name": "_contractAddress",
          "type": "address"
        }
      ],
      "name": "divide",
      "outputs": [],
      "stateMutability": "nonpayable",
      "type": "function"
    },
    {
      "inputs": [
        {
          "internalType": "uint256",
          "name": "_id",
          "type": "uint256"
        }
      ],
      "name": "getById",
      "outputs": [
        {
          "components": [
            {
              "internalType": "string",
              "name": "description",
              "type": "string"
            },
            {
              "internalType": "string",
              "name": "documents",
              "type": "string"
            },
            {
              "internalType": "uint256",
              "name": "hashId",
              "type": "uint256"
            }
          ],
          "internalType": "struct Land.Data",
          "name": "",
          "type": "tuple"
        }
      ],
      "stateMutability": "view",
      "type": "function",
      "constant": true
    },
    {
      "inputs": [
        {
          "internalType": "address",
          "name": "_address",
          "type": "address"
        }
      ],
      "name": "getByOwner",
      "outputs": [
        {
          "internalType": "uint256[]",
          "name": "",
          "type": "uint256[]"
        }
      ],
      "stateMutability": "view",
      "type": "function",
      "constant": true
    },
    {
      "inputs": [
        {
          "internalType": "uint256",
          "name": "_id",
          "type": "uint256"
        }
      ],
      "name": "getOwnerByLand",
      "outputs": [
        {
          "internalType": "address",
          "name": "",
          "type": "address"
        }
      ],
      "stateMutability": "view",
      "type": "function",
      "constant": true
    },
    {
      "inputs": [],
      "name": "getTotal",
      "outputs": [
        {
          "internalType": "uint256",
          "name": "",
          "type": "uint256"
        }
      ],
      "stateMutability": "view",
      "type": "function",
      "constant": true
    }
  ],
  "bytecode": "0x608060405234801561001057600080fd5b50604051610f64380380610f648339818101604052810190610032919061008e565b80600460006101000a81548173ffffffffffffffffffffffffffffffffffffffff021916908373ffffffffffffffffffffffffffffffffffffffff16021790555050610100565b600081519050610088816100e9565b92915050565b6000602082840312156100a057600080fd5b60006100ae84828501610079565b91505092915050565b60006100c2826100c9565b9050919050565b600073ffffffffffffffffffffffffffffffffffffffff82169050919050565b6100f2816100b7565b81146100fd57600080fd5b50565b610e558061010f6000396000f3fe608060405234801561001057600080fd5b50600436106100625760003560e01c8063379c5131146100675780634cd08d0314610097578063775a25e3146100b357806395a93d6b146100d1578063e0fccd3114610101578063f4f4d2371461011d575b600080fd5b610081600480360381019061007c9190610800565b61014d565b60405161008e9190610bb5565b60405180910390f35b6100b160048036038101906100ac9190610829565b6101e4565b005b6100bb6103d2565b6040516100c89190610c3d565b60405180910390f35b6100eb60048036038101906100e691906108cd565b6103dc565b6040516100f89190610b9a565b60405180910390f35b61011b6004803603810190610116919061091f565b610419565b005b610137600480360381019061013291906108cd565b61053f565b6040516101449190610c1b565b60405180910390f35b6060600160008373ffffffffffffffffffffffffffffffffffffffff1673ffffffffffffffffffffffffffffffffffffffff1681526020019081526020016000208054806020026020016040519081016040528092919081815260200182805480156101d857602002820191906000526020600020905b8154815260200190600101908083116101c4575b50505050509050919050565b600160003373ffffffffffffffffffffffffffffffffffffffff1673ffffffffffffffffffffffffffffffffffffffff16815260200190815260200160002060035490806001815401808255809150506001900390600052602060002001600090919091909150553360026000600354815260200190815260200160002060006101000a81548173ffffffffffffffffffffffffffffffffffffffff021916908373ffffffffffffffffffffffffffffffffffffffff1602179055508585600080600354815260200190815260200160002060000191906102c69291906106b9565b508383600080600354815260200190815260200160002060010191906102ed9291906106b9565b50600460009054906101000a900473ffffffffffffffffffffffffffffffffffffffff1673ffffffffffffffffffffffffffffffffffffffff1663b0c8f9dc83836040518363ffffffff1660e01b815260040161034b929190610bd7565b602060405180830381600087803b15801561036557600080fd5b505af1158015610379573d6000803e3d6000fd5b505050506040513d601f19601f8201168201806040525081019061039d91906108f6565b600080600354815260200190815260200160002060020181905550600360008154809291906001019190505550505050505050565b6000600354905090565b60006002600083815260200190815260200160002060009054906101000a900473ffffffffffffffffffffffffffffffffffffffff169050919050565b873373ffffffffffffffffffffffffffffffffffffffff166002600083815260200190815260200160002060009054906101000a900473ffffffffffffffffffffffffffffffffffffffff1673ffffffffffffffffffffffffffffffffffffffff16146104bb576040517f08c379a00000000000000000000000000000000000000000000000000000000081526004016104b290610bfb565b60405180910390fd5b8173ffffffffffffffffffffffffffffffffffffffff1663eaca6fa68a8a8a8a8a8a8a336040518963ffffffff1660e01b8152600401610502989796959493929190610c58565b600060405180830381600087803b15801561051c57600080fd5b505af1158015610530573d6000803e3d6000fd5b50505050505050505050505050565b610547610739565b600080838152602001908152602001600020604051806060016040529081600082018054600181600116156101000203166002900480601f0160208091040260200160405190810160405280929190818152602001828054600181600116156101000203166002900480156105fd5780601f106105d2576101008083540402835291602001916105fd565b820191906000526020600020905b8154815290600101906020018083116105e057829003601f168201915b50505050508152602001600182018054600181600116156101000203166002900480601f01602080910402602001604051908101604052809291908181526020018280546001816001161561010002031660029004801561069f5780601f106106745761010080835404028352916020019161069f565b820191906000526020600020905b81548152906001019060200180831161068257829003601f168201915b505050505081526020016002820154815250509050919050565b828054600181600116156101000203166002900490600052602060002090601f016020900481019282601f106106fa57803560ff1916838001178555610728565b82800160010185558215610728579182015b8281111561072757823582559160200191906001019061070c565b5b509050610735919061075a565b5090565b60405180606001604052806060815260200160608152602001600081525090565b5b8082111561077357600081600090555060010161075b565b5090565b60008135905061078681610df1565b92915050565b60008083601f84011261079e57600080fd5b8235905067ffffffffffffffff8111156107b757600080fd5b6020830191508360018202830111156107cf57600080fd5b9250929050565b6000813590506107e581610e08565b92915050565b6000815190506107fa81610e08565b92915050565b60006020828403121561081257600080fd5b600061082084828501610777565b91505092915050565b6000806000806000806060878903121561084257600080fd5b600087013567ffffffffffffffff81111561085c57600080fd5b61086889828a0161078c565b9650965050602087013567ffffffffffffffff81111561088757600080fd5b61089389828a0161078c565b9450945050604087013567ffffffffffffffff8111156108b257600080fd5b6108be89828a0161078c565b92509250509295509295509295565b6000602082840312156108df57600080fd5b60006108ed848285016107d6565b91505092915050565b60006020828403121561090857600080fd5b6000610916848285016107eb565b91505092915050565b60008060008060008060008060a0898b03121561093b57600080fd5b60006109498b828c016107d6565b985050602089013567ffffffffffffffff81111561096657600080fd5b6109728b828c0161078c565b9750975050604089013567ffffffffffffffff81111561099157600080fd5b61099d8b828c0161078c565b9550955050606089013567ffffffffffffffff8111156109bc57600080fd5b6109c88b828c0161078c565b935093505060806109db8b828c01610777565b9150509295985092959890939650565b60006109f78383610b7c565b60208301905092915050565b610a0c81610d68565b82525050565b610a1b81610d2c565b82525050565b6000610a2c82610cd6565b610a368185610cf9565b9350610a4183610cc6565b8060005b83811015610a72578151610a5988826109eb565b9750610a6483610cec565b925050600181019050610a45565b5085935050505092915050565b6000610a8b8385610d1b565b9350610a98838584610d9e565b610aa183610de0565b840190509392505050565b6000610ab782610ce1565b610ac18185610d0a565b9350610ad1818560208601610dad565b610ada81610de0565b840191505092915050565b6000610af2601583610d1b565b91507f4f6e6c79206f776e657220697320616c6c6f77656400000000000000000000006000830152602082019050919050565b60006060830160008301518482036000860152610b428282610aac565b91505060208301518482036020860152610b5c8282610aac565b9150506040830151610b716040860182610b7c565b508091505092915050565b610b8581610d5e565b82525050565b610b9481610d5e565b82525050565b6000602082019050610baf6000830184610a12565b92915050565b60006020820190508181036000830152610bcf8184610a21565b905092915050565b60006020820190508181036000830152610bf2818486610a7f565b90509392505050565b60006020820190508181036000830152610c1481610ae5565b9050919050565b60006020820190508181036000830152610c358184610b25565b905092915050565b6000602082019050610c526000830184610b8b565b92915050565b600060a082019050610c6d600083018b610b8b565b8181036020830152610c8081898b610a7f565b90508181036040830152610c95818789610a7f565b90508181036060830152610caa818587610a7f565b9050610cb96080830184610a03565b9998505050505050505050565b6000819050602082019050919050565b600081519050919050565b600081519050919050565b6000602082019050919050565b600082825260208201905092915050565b600082825260208201905092915050565b600082825260208201905092915050565b6000610d3782610d3e565b9050919050565b600073ffffffffffffffffffffffffffffffffffffffff82169050919050565b6000819050919050565b6000610d7382610d7a565b9050919050565b6000610d8582610d8c565b9050919050565b6000610d9782610d3e565b9050919050565b82818337600083830152505050565b60005b83811015610dcb578082015181840152602081019050610db0565b83811115610dda576000848401525b50505050565b6000601f19601f8301169050919050565b610dfa81610d2c565b8114610e0557600080fd5b50565b610e1181610d5e565b8114610e1c57600080fd5b5056fea2646970667358221220322344435770a0ed470bd49defab6b1127ce6f9c6d4240ce62ab101d30e835e264736f6c634300060c0033",
  "immutableReferences": {},
  "source": "// SPDX-License-Identifier: MIT\n\npragma solidity ^0.6.0;\npragma experimental ABIEncoderV2;\n\n//import '../../OpenZeppelin/openzeppelin-contracts/contracts/math/SafeMath.sol';\nimport '@openzeppelin/contracts/math/SafeMath.sol';\n\nimport './Storage.sol';\nimport './Portion.sol';\n\n/// @title This contract represents a land/agricultural resource\ncontract Land {\n    \n    using SafeMath for uint256;\n    \n    /// @dev Land data\n    struct Data {\n        string description;\n        string documents;\n        uint256 hashId;\n    }\n    \n    /// @dev All the lands\n    mapping (uint256 => Data) private lands;\n    /// @dev Land indices grouped by owners\n    mapping (address => uint256[]) private landsByOwner;\n    /// @dev Owners grouped by land IDs\n    mapping (uint256 => address) private ownersByLandId;\n    \n    /// @dev Lands counter\n    uint256 private lastLandId;\n    /// @dev Document hashes storage contract\n    Storage private dataStorage;\n    \n    /// @param _dataStorage Address of storage contract\n    constructor (address _dataStorage) public {\n        dataStorage = Storage(_dataStorage);\n    }\n    \n    /// @dev Only owner can perform operation in his land\n    modifier onlyOwner(uint256 _landId) {\n        require(ownersByLandId[_landId] == msg.sender, 'Only owner is allowed');\n        _;\n    }\n    \n    /// @param _description Land description\n    /// @param _documents Documents link\n    /// @param _base64 Documents base64 encoded for calculating hash\n    function register(string calldata _description, string calldata _documents, string calldata _base64) external {\n        landsByOwner[msg.sender].push(lastLandId);\n        ownersByLandId[lastLandId] = msg.sender;\n        \n        lands[lastLandId].description = _description;\n        lands[lastLandId].documents = _documents;\n        lands[lastLandId].hashId = dataStorage.add(_base64);\n        \n        lastLandId++;\n    }\n    \n    /// @dev Only owner can divide a land in portion. This method calls the Portion instance for registering a new portion starting from input data.\n    /// @param _id Land ID to divide\n    /// @param _description Portion description\n    /// @param _documents Documents link\n    /// @param _base64 Documents base64 encoded for calculating hash\n    /// @param _contractAddress Address of Portion contract    \n    function divide(uint256 _id, string calldata _description, string calldata _documents, string calldata _base64, address _contractAddress) external onlyOwner(_id) {\n        Portion(_contractAddress).register(_id, _description, _documents, _base64, msg.sender);\n    }\n    \n    /// @param _id Land ID\n    /// @return the data of the land\n    function getById(uint256 _id) external view returns (Data memory) {\n        return lands[_id];\n    }\n    \n    /// @param _address Owner's address\n    /// @return the array containing ID of lands owned\n    function getByOwner(address _address) external view returns (uint256[] memory) {\n        return landsByOwner[_address];\n    }\n    \n    /// @param _id Land ID\n    /// @return the address of the owner\n    function getOwnerByLand(uint256 _id) external view returns (address) {\n        return ownersByLandId[_id];\n    }\n    \n    /// @return the total number of lands\n    function getTotal() external view returns (uint256) {\n        return lastLandId;\n    }\n}\n",
  "sourcePath": "/home/francesca/WebstormProjects/APT/contracts/Land.sol",
  "compiler": {
    "name": "solc",
    "version": "0.6.12+commit.27d51765.Emscripten.clang"
  },
  "schemaVersion": "3.2.5",
  "updatedAt": "2020-10-15T08:42:11.608Z",
  "networkType": "ethereum",
  "devdoc": {
    "kind": "dev",
    "methods": {
      "constructor": {
        "params": {
          "_dataStorage": "Address of storage contract"
        }
      },
      "divide(uint256,string,string,string,address)": {
        "details": "Only owner can divide a land in portion. This method calls the Portion instance for registering a new portion starting from input data.",
        "params": {
          "_base64": "Documents base64 encoded for calculating hash",
          "_contractAddress": "Address of Portion contract    ",
          "_description": "Portion description",
          "_documents": "Documents link",
          "_id": "Land ID to divide"
        }
      },
      "getById(uint256)": {
        "params": {
          "_id": "Land ID"
        },
        "returns": {
          "_0": "the data of the land"
        }
      },
      "getByOwner(address)": {
        "params": {
          "_address": "Owner's address"
        },
        "returns": {
          "_0": "the array containing ID of lands owned"
        }
      },
      "getOwnerByLand(uint256)": {
        "params": {
          "_id": "Land ID"
        },
        "returns": {
          "_0": "the address of the owner"
        }
      },
      "getTotal()": {
        "returns": {
          "_0": "the total number of lands"
        }
      },
      "register(string,string,string)": {
        "params": {
          "_base64": "Documents base64 encoded for calculating hash",
          "_description": "Land description",
          "_documents": "Documents link"
        }
      }
    },
    "stateVariables": {
      "dataStorage": {
        "details": "Document hashes storage contract"
      },
      "lands": {
        "details": "All the lands"
      },
      "landsByOwner": {
        "details": "Land indices grouped by owners"
      },
      "lastLandId": {
        "details": "Lands counter"
      },
      "ownersByLandId": {
        "details": "Owners grouped by land IDs"
      }
    },
    "title": "This contract represents a land/agricultural resource",
    "version": 1
  },
  "userdoc": {
    "kind": "user",
    "methods": {},
    "version": 1
  }
}