{
  "contractName": "Land",
  "abi": [
    {
      "inputs": [
        {
          "internalType": "address",
          "name": "_dataStorage",
          "type": "address"
        }
      ],
      "stateMutability": "nonpayable",
      "type": "constructor"
    },
    {
      "inputs": [
        {
          "internalType": "string",
          "name": "_description",
          "type": "string"
        }
      ],
      "name": "register",
      "outputs": [],
      "stateMutability": "nonpayable",
      "type": "function"
    },
    {
      "inputs": [
        {
          "internalType": "uint256",
          "name": "_id",
          "type": "uint256"
        },
        {
          "internalType": "bytes32",
          "name": "_document",
          "type": "bytes32"
        },
        {
          "internalType": "string",
          "name": "_base64",
          "type": "string"
        }
      ],
      "name": "registerDocument",
      "outputs": [],
      "stateMutability": "nonpayable",
      "type": "function"
    },
    {
      "inputs": [
        {
          "internalType": "uint256",
          "name": "_id",
          "type": "uint256"
        },
        {
          "internalType": "string",
          "name": "_description",
          "type": "string"
        },
        {
          "internalType": "address",
          "name": "_contractAddress",
          "type": "address"
        }
      ],
      "name": "divide",
      "outputs": [],
      "stateMutability": "nonpayable",
      "type": "function"
    },
    {
      "inputs": [
        {
          "internalType": "uint256",
          "name": "_id",
          "type": "uint256"
        }
      ],
      "name": "getById",
      "outputs": [
        {
          "components": [
            {
              "internalType": "string",
              "name": "description",
              "type": "string"
            },
            {
              "internalType": "bytes32[]",
              "name": "documents",
              "type": "bytes32[]"
            },
            {
              "internalType": "uint256[]",
              "name": "hashIds",
              "type": "uint256[]"
            }
          ],
          "internalType": "struct Land.Data",
          "name": "",
          "type": "tuple"
        }
      ],
      "stateMutability": "view",
      "type": "function",
      "constant": true
    },
    {
      "inputs": [
        {
          "internalType": "address",
          "name": "_address",
          "type": "address"
        }
      ],
      "name": "getByOwner",
      "outputs": [
        {
          "internalType": "uint256[]",
          "name": "",
          "type": "uint256[]"
        }
      ],
      "stateMutability": "view",
      "type": "function",
      "constant": true
    },
    {
      "inputs": [
        {
          "internalType": "uint256",
          "name": "_id",
          "type": "uint256"
        }
      ],
      "name": "getOwnerByLand",
      "outputs": [
        {
          "internalType": "address",
          "name": "",
          "type": "address"
        }
      ],
      "stateMutability": "view",
      "type": "function",
      "constant": true
    },
    {
      "inputs": [],
      "name": "getTotal",
      "outputs": [
        {
          "internalType": "uint256",
          "name": "",
          "type": "uint256"
        }
      ],
      "stateMutability": "view",
      "type": "function",
      "constant": true
    }
  ],
  "bytecode": "0x608060405234801561001057600080fd5b50604051620011593803806200115983398181016040528101906100349190610090565b80600460006101000a81548173ffffffffffffffffffffffffffffffffffffffff021916908373ffffffffffffffffffffffffffffffffffffffff16021790555050610102565b60008151905061008a816100eb565b92915050565b6000602082840312156100a257600080fd5b60006100b08482850161007b565b91505092915050565b60006100c4826100cb565b9050919050565b600073ffffffffffffffffffffffffffffffffffffffff82169050919050565b6100f4816100b9565b81146100ff57600080fd5b50565b61104780620001126000396000f3fe608060405234801561001057600080fd5b506004361061007d5760003560e01c8063775a25e31161005b578063775a25e3146100ea57806395a93d6b14610108578063f2c298be14610138578063f4f4d237146101545761007d565b8063379c5131146100825780635700b63d146100b25780635f0e464f146100ce575b600080fd5b61009c6004803603810190610097919061091e565b610184565b6040516100a99190610d6a565b60405180910390f35b6100cc60048036038101906100c791906109de565b61021b565b005b6100e860048036038101906100e39190610a4a565b6103ea565b005b6100f2610504565b6040516100ff9190610df2565b60405180910390f35b610122600480360381019061011d919061098c565b61050e565b60405161012f9190610d4f565b60405180910390f35b610152600480360381019061014d9190610947565b61054b565b005b61016e6004803603810190610169919061098c565b610644565b60405161017b9190610dd0565b60405180910390f35b6060600160008373ffffffffffffffffffffffffffffffffffffffff1673ffffffffffffffffffffffffffffffffffffffff16815260200190815260200160002080548060200260200160405190810160405280929190818152602001828054801561020f57602002820191906000526020600020905b8154815260200190600101908083116101fb575b50505050509050919050565b833373ffffffffffffffffffffffffffffffffffffffff166002600083815260200190815260200160002060009054906101000a900473ffffffffffffffffffffffffffffffffffffffff1673ffffffffffffffffffffffffffffffffffffffff16146102bd576040517f08c379a00000000000000000000000000000000000000000000000000000000081526004016102b490610db0565b60405180910390fd5b600080868152602001908152602001600020600101849080600181540180825580915050600190039060005260206000200160009091909190915055600080868152602001908152602001600020600201600460009054906101000a900473ffffffffffffffffffffffffffffffffffffffff1673ffffffffffffffffffffffffffffffffffffffff1663b0c8f9dc85856040518363ffffffff1660e01b815260040161036b929190610d8c565b602060405180830381600087803b15801561038557600080fd5b505af1158015610399573d6000803e3d6000fd5b505050506040513d601f19601f820116820180604052508101906103bd91906109b5565b90806001815401808255809150506001900390600052602060002001600090919091909150555050505050565b833373ffffffffffffffffffffffffffffffffffffffff166002600083815260200190815260200160002060009054906101000a900473ffffffffffffffffffffffffffffffffffffffff1673ffffffffffffffffffffffffffffffffffffffff161461048c576040517f08c379a000000000000000000000000000000000000000000000000000000000815260040161048390610db0565b60405180910390fd5b8173ffffffffffffffffffffffffffffffffffffffff1663601219b7868686336040518563ffffffff1660e01b81526004016104cb9493929190610e0d565b600060405180830381600087803b1580156104e557600080fd5b505af11580156104f9573d6000803e3d6000fd5b505050505050505050565b6000600354905090565b60006002600083815260200190815260200160002060009054906101000a900473ffffffffffffffffffffffffffffffffffffffff169050919050565b600160003373ffffffffffffffffffffffffffffffffffffffff1673ffffffffffffffffffffffffffffffffffffffff16815260200190815260200160002060035490806001815401808255809150506001900390600052602060002001600090919091909150553360026000600354815260200190815260200160002060006101000a81548173ffffffffffffffffffffffffffffffffffffffff021916908373ffffffffffffffffffffffffffffffffffffffff16021790555081816000806003548152602001908152602001600020600001919061062d9291906107c2565b506003600081548092919060010191905055505050565b61064c610842565b600080838152602001908152602001600020604051806060016040529081600082018054600181600116156101000203166002900480601f0160208091040260200160405190810160405280929190818152602001828054600181600116156101000203166002900480156107025780601f106106d757610100808354040283529160200191610702565b820191906000526020600020905b8154815290600101906020018083116106e557829003601f168201915b505050505081526020016001820180548060200260200160405190810160405280929190818152602001828054801561075a57602002820191906000526020600020905b815481526020019060010190808311610746575b50505050508152602001600282018054806020026020016040519081016040528092919081815260200182805480156107b257602002820191906000526020600020905b81548152602001906001019080831161079e575b5050505050815250509050919050565b828054600181600116156101000203166002900490600052602060002090601f016020900481019282601f1061080357803560ff1916838001178555610831565b82800160010185558215610831579182015b82811115610830578235825591602001919060010190610815565b5b50905061083e9190610863565b5090565b60405180606001604052806060815260200160608152602001606081525090565b5b8082111561087c576000816000905550600101610864565b5090565b60008135905061088f81610fcc565b92915050565b6000813590506108a481610fe3565b92915050565b60008083601f8401126108bc57600080fd5b8235905067ffffffffffffffff8111156108d557600080fd5b6020830191508360018202830111156108ed57600080fd5b9250929050565b60008135905061090381610ffa565b92915050565b60008151905061091881610ffa565b92915050565b60006020828403121561093057600080fd5b600061093e84828501610880565b91505092915050565b6000806020838503121561095a57600080fd5b600083013567ffffffffffffffff81111561097457600080fd5b610980858286016108aa565b92509250509250929050565b60006020828403121561099e57600080fd5b60006109ac848285016108f4565b91505092915050565b6000602082840312156109c757600080fd5b60006109d584828501610909565b91505092915050565b600080600080606085870312156109f457600080fd5b6000610a02878288016108f4565b9450506020610a1387828801610895565b935050604085013567ffffffffffffffff811115610a3057600080fd5b610a3c878288016108aa565b925092505092959194509250565b60008060008060608587031215610a6057600080fd5b6000610a6e878288016108f4565b945050602085013567ffffffffffffffff811115610a8b57600080fd5b610a97878288016108aa565b93509350506040610aaa87828801610880565b91505092959194509250565b6000610ac28383610c1e565b60208301905092915050565b6000610ada8383610d31565b60208301905092915050565b610aef81610f43565b82525050565b610afe81610efd565b82525050565b6000610b0f82610e6d565b610b198185610ea8565b9350610b2483610e4d565b8060005b83811015610b55578151610b3c8882610ab6565b9750610b4783610e8e565b925050600181019050610b28565b5085935050505092915050565b6000610b6d82610e78565b610b778185610eb9565b9350610b8283610e5d565b8060005b83811015610bb3578151610b9a8882610ace565b9750610ba583610e9b565b925050600181019050610b86565b5085935050505092915050565b6000610bcb82610e78565b610bd58185610eca565b9350610be083610e5d565b8060005b83811015610c11578151610bf88882610ace565b9750610c0383610e9b565b925050600181019050610be4565b5085935050505092915050565b610c2781610f0f565b82525050565b6000610c398385610eec565b9350610c46838584610f79565b610c4f83610fbb565b840190509392505050565b6000610c6582610e83565b610c6f8185610edb565b9350610c7f818560208601610f88565b610c8881610fbb565b840191505092915050565b6000610ca0601583610eec565b91507f4f6e6c79206f776e657220697320616c6c6f77656400000000000000000000006000830152602082019050919050565b60006060830160008301518482036000860152610cf08282610c5a565b91505060208301518482036020860152610d0a8282610b04565b91505060408301518482036040860152610d248282610b62565b9150508091505092915050565b610d3a81610f39565b82525050565b610d4981610f39565b82525050565b6000602082019050610d646000830184610af5565b92915050565b60006020820190508181036000830152610d848184610bc0565b905092915050565b60006020820190508181036000830152610da7818486610c2d565b90509392505050565b60006020820190508181036000830152610dc981610c93565b9050919050565b60006020820190508181036000830152610dea8184610cd3565b905092915050565b6000602082019050610e076000830184610d40565b92915050565b6000606082019050610e226000830187610d40565b8181036020830152610e35818587610c2d565b9050610e446040830184610ae6565b95945050505050565b6000819050602082019050919050565b6000819050602082019050919050565b600081519050919050565b600081519050919050565b600081519050919050565b6000602082019050919050565b6000602082019050919050565b600082825260208201905092915050565b600082825260208201905092915050565b600082825260208201905092915050565b600082825260208201905092915050565b600082825260208201905092915050565b6000610f0882610f19565b9050919050565b6000819050919050565b600073ffffffffffffffffffffffffffffffffffffffff82169050919050565b6000819050919050565b6000610f4e82610f55565b9050919050565b6000610f6082610f67565b9050919050565b6000610f7282610f19565b9050919050565b82818337600083830152505050565b60005b83811015610fa6578082015181840152602081019050610f8b565b83811115610fb5576000848401525b50505050565b6000601f19601f8301169050919050565b610fd581610efd565b8114610fe057600080fd5b50565b610fec81610f0f565b8114610ff757600080fd5b50565b61100381610f39565b811461100e57600080fd5b5056fea26469706673582212208dfb2bea9a6ecb2e675f379ba080824bdcb65cb559534f527ba74c0bff3f4e6164736f6c634300060c0033",
  "immutableReferences": {},
  "source": "// SPDX-License-Identifier: MIT\n\npragma solidity ^0.6.0;\npragma experimental ABIEncoderV2;\n\n//import '../../OpenZeppelin/openzeppelin-contracts/contracts/math/SafeMath.sol';\nimport '@openzeppelin/contracts/math/SafeMath.sol';\n\nimport './Storage.sol';\nimport './Portion.sol';\n\n/// @title This contract represents a land/agricultural resource\ncontract Land {\n    \n    using SafeMath for uint256;\n    \n    /// @dev Land data\n    struct Data {\n        string description;\n        bytes32[] documents;\n        uint256[] hashIds;\n    }\n    \n    /// @dev All the lands\n    mapping (uint256 => Data) private lands;\n    /// @dev Land indices grouped by owners\n    mapping (address => uint256[]) private landsByOwner;\n    /// @dev Owners grouped by land IDs\n    mapping (uint256 => address) private ownersByLandId;\n    \n    /// @dev Lands counter\n    uint256 private lastLandId;\n    /// @dev Document hashes storage contract\n    Storage private dataStorage;\n    \n    /// @param _dataStorage Address of storage contract\n    constructor (address _dataStorage) public {\n        dataStorage = Storage(_dataStorage);\n    }\n    \n    /// @dev Only owner can perform operation in his land\n    modifier onlyOwner(uint256 _landId) {\n        require(ownersByLandId[_landId] == msg.sender, 'Only owner is allowed');\n        _;\n    }\n    \n    /// @param _description Land description\n    function register(string calldata _description) external {\n        landsByOwner[msg.sender].push(lastLandId);\n        ownersByLandId[lastLandId] = msg.sender;\n        \n        lands[lastLandId].description = _description;\n        \n        lastLandId++;\n    }\n\n    /// @param _id Land ID\n    /// @param _document Document name\n    /// @param _base64 Base64 document\n    function registerDocument(uint256 _id, bytes32 _document, string calldata _base64) external onlyOwner(_id) {\n        lands[_id].documents.push(_document);\n        lands[_id].hashIds.push(dataStorage.add(_base64));\n    }\n    \n    /// @dev Only owner can divide a land in portion. This method calls the Portion instance for registering a new portion starting from input data.\n    /// @param _id Land ID to divide\n    /// @param _description Portion description\n    /// @param _contractAddress Address of Portion contract    \n    function divide(uint256 _id, string calldata _description, address _contractAddress) external onlyOwner(_id) {\n        Portion(_contractAddress).register(_id, _description, msg.sender);\n    }\n    \n    /// @param _id Land ID\n    /// @return the data of the land\n    function getById(uint256 _id) external view returns (Data memory) {\n        return lands[_id];\n    }\n    \n    /// @param _address Owner's address\n    /// @return the array containing ID of lands owned\n    function getByOwner(address _address) external view returns (uint256[] memory) {\n        return landsByOwner[_address];\n    }\n    \n    /// @param _id Land ID\n    /// @return the address of the owner\n    function getOwnerByLand(uint256 _id) external view returns (address) {\n        return ownersByLandId[_id];\n    }\n    \n    /// @return the total number of lands\n    function getTotal() external view returns (uint256) {\n        return lastLandId;\n    }\n}\n",
  "sourcePath": "/home/francesca/WebstormProjects/APT/contracts/Land.sol",
  "compiler": {
    "name": "solc",
    "version": "0.6.12+commit.27d51765.Emscripten.clang"
  },
  "schemaVersion": "3.2.5",
  "updatedAt": "2020-10-18T12:08:15.095Z",
  "networkType": "ethereum",
  "devdoc": {
    "kind": "dev",
    "methods": {
      "constructor": {
        "params": {
          "_dataStorage": "Address of storage contract"
        }
      },
      "divide(uint256,string,address)": {
        "details": "Only owner can divide a land in portion. This method calls the Portion instance for registering a new portion starting from input data.",
        "params": {
          "_contractAddress": "Address of Portion contract    ",
          "_description": "Portion description",
          "_id": "Land ID to divide"
        }
      },
      "getById(uint256)": {
        "params": {
          "_id": "Land ID"
        },
        "returns": {
          "_0": "the data of the land"
        }
      },
      "getByOwner(address)": {
        "params": {
          "_address": "Owner's address"
        },
        "returns": {
          "_0": "the array containing ID of lands owned"
        }
      },
      "getOwnerByLand(uint256)": {
        "params": {
          "_id": "Land ID"
        },
        "returns": {
          "_0": "the address of the owner"
        }
      },
      "getTotal()": {
        "returns": {
          "_0": "the total number of lands"
        }
      },
      "register(string)": {
        "params": {
          "_description": "Land description"
        }
      },
      "registerDocument(uint256,bytes32,string)": {
        "params": {
          "_base64": "Base64 document",
          "_document": "Document name",
          "_id": "Land ID"
        }
      }
    },
    "stateVariables": {
      "dataStorage": {
        "details": "Document hashes storage contract"
      },
      "lands": {
        "details": "All the lands"
      },
      "landsByOwner": {
        "details": "Land indices grouped by owners"
      },
      "lastLandId": {
        "details": "Lands counter"
      },
      "ownersByLandId": {
        "details": "Owners grouped by land IDs"
      }
    },
    "title": "This contract represents a land/agricultural resource",
    "version": 1
  },
  "userdoc": {
    "kind": "user",
    "methods": {},
    "version": 1
  }
}