{
  "contractName": "Land",
  "abi": [
    {
      "inputs": [
        {
          "internalType": "string",
          "name": "_description",
          "type": "string"
        }
      ],
      "name": "register",
      "outputs": [],
      "stateMutability": "nonpayable",
      "type": "function"
    },
    {
      "inputs": [
        {
          "internalType": "uint256",
          "name": "_id",
          "type": "uint256"
        },
        {
          "internalType": "bytes32",
          "name": "_document",
          "type": "bytes32"
        },
        {
          "internalType": "bytes32",
          "name": "_base64",
          "type": "bytes32"
        }
      ],
      "name": "registerDocument",
      "outputs": [],
      "stateMutability": "nonpayable",
      "type": "function"
    },
    {
      "inputs": [
        {
          "internalType": "uint256",
          "name": "_id",
          "type": "uint256"
        },
        {
          "internalType": "string",
          "name": "_description",
          "type": "string"
        },
        {
          "internalType": "address",
          "name": "_contractAddress",
          "type": "address"
        }
      ],
      "name": "divide",
      "outputs": [],
      "stateMutability": "nonpayable",
      "type": "function"
    },
    {
      "inputs": [
        {
          "internalType": "uint256",
          "name": "_id",
          "type": "uint256"
        }
      ],
      "name": "getById",
      "outputs": [
        {
          "components": [
            {
              "internalType": "string",
              "name": "description",
              "type": "string"
            },
            {
              "internalType": "bytes32[]",
              "name": "documents",
              "type": "bytes32[]"
            },
            {
              "internalType": "bytes32[]",
              "name": "hashes",
              "type": "bytes32[]"
            }
          ],
          "internalType": "struct Land.Data",
          "name": "",
          "type": "tuple"
        }
      ],
      "stateMutability": "view",
      "type": "function",
      "constant": true
    },
    {
      "inputs": [
        {
          "internalType": "address",
          "name": "_address",
          "type": "address"
        }
      ],
      "name": "getByOwner",
      "outputs": [
        {
          "internalType": "uint256[]",
          "name": "",
          "type": "uint256[]"
        }
      ],
      "stateMutability": "view",
      "type": "function",
      "constant": true
    },
    {
      "inputs": [
        {
          "internalType": "uint256",
          "name": "_id",
          "type": "uint256"
        }
      ],
      "name": "getOwnerByLand",
      "outputs": [
        {
          "internalType": "address",
          "name": "",
          "type": "address"
        }
      ],
      "stateMutability": "view",
      "type": "function",
      "constant": true
    },
    {
      "inputs": [],
      "name": "getTotal",
      "outputs": [
        {
          "internalType": "uint256",
          "name": "",
          "type": "uint256"
        }
      ],
      "stateMutability": "view",
      "type": "function",
      "constant": true
    }
  ],
  "bytecode": "0x608060405234801561001057600080fd5b50610eaa806100206000396000f3fe608060405234801561001057600080fd5b506004361061007d5760003560e01c806385fa82c21161005b57806385fa82c2146100ec57806395a93d6b14610108578063f2c298be14610138578063f4f4d237146101545761007d565b8063379c5131146100825780635f0e464f146100b2578063775a25e3146100ce575b600080fd5b61009c6004803603810190610097919061085a565b610184565b6040516100a99190610c02565b60405180910390f35b6100cc60048036038101906100c79190610940565b61021b565b005b6100d6610335565b6040516100e39190610c66565b60405180910390f35b610106600480360381019061010191906108f1565b61033f565b005b610122600480360381019061011d91906108c8565b61045f565b60405161012f9190610be7565b60405180910390f35b610152600480360381019061014d9190610883565b61049c565b005b61016e600480360381019061016991906108c8565b610595565b60405161017b9190610c44565b60405180910390f35b6060600160008373ffffffffffffffffffffffffffffffffffffffff1673ffffffffffffffffffffffffffffffffffffffff16815260200190815260200160002080548060200260200160405190810160405280929190818152602001828054801561020f57602002820191906000526020600020905b8154815260200190600101908083116101fb575b50505050509050919050565b833373ffffffffffffffffffffffffffffffffffffffff166002600083815260200190815260200160002060009054906101000a900473ffffffffffffffffffffffffffffffffffffffff1673ffffffffffffffffffffffffffffffffffffffff16146102bd576040517f08c379a00000000000000000000000000000000000000000000000000000000081526004016102b490610c24565b60405180910390fd5b8173ffffffffffffffffffffffffffffffffffffffff1663601219b7868686336040518563ffffffff1660e01b81526004016102fc9493929190610c81565b600060405180830381600087803b15801561031657600080fd5b505af115801561032a573d6000803e3d6000fd5b505050505050505050565b6000600354905090565b823373ffffffffffffffffffffffffffffffffffffffff166002600083815260200190815260200160002060009054906101000a900473ffffffffffffffffffffffffffffffffffffffff1673ffffffffffffffffffffffffffffffffffffffff16146103e1576040517f08c379a00000000000000000000000000000000000000000000000000000000081526004016103d890610c24565b60405180910390fd5b60008085815260200190815260200160002060010183908060018154018082558091505060019003906000526020600020016000909190919091505560008085815260200190815260200160002060020182908060018154018082558091505060019003906000526020600020016000909190919091505550505050565b60006002600083815260200190815260200160002060009054906101000a900473ffffffffffffffffffffffffffffffffffffffff169050919050565b600160003373ffffffffffffffffffffffffffffffffffffffff1673ffffffffffffffffffffffffffffffffffffffff16815260200190815260200160002060035490806001815401808255809150506001900390600052602060002001600090919091909150553360026000600354815260200190815260200160002060006101000a81548173ffffffffffffffffffffffffffffffffffffffff021916908373ffffffffffffffffffffffffffffffffffffffff16021790555081816000806003548152602001908152602001600020600001919061057e929190610713565b506003600081548092919060010191905055505050565b61059d610793565b600080838152602001908152602001600020604051806060016040529081600082018054600181600116156101000203166002900480601f0160208091040260200160405190810160405280929190818152602001828054600181600116156101000203166002900480156106535780601f1061062857610100808354040283529160200191610653565b820191906000526020600020905b81548152906001019060200180831161063657829003601f168201915b50505050508152602001600182018054806020026020016040519081016040528092919081815260200182805480156106ab57602002820191906000526020600020905b815481526020019060010190808311610697575b505050505081526020016002820180548060200260200160405190810160405280929190818152602001828054801561070357602002820191906000526020600020905b8154815260200190600101908083116106ef575b5050505050815250509050919050565b828054600181600116156101000203166002900490600052602060002090601f016020900481019282601f1061075457803560ff1916838001178555610782565b82800160010185558215610782579182015b82811115610781578235825591602001919060010190610766565b5b50905061078f91906107b4565b5090565b60405180606001604052806060815260200160608152602001606081525090565b5b808211156107cd5760008160009055506001016107b5565b5090565b6000813590506107e081610e2f565b92915050565b6000813590506107f581610e46565b92915050565b60008083601f84011261080d57600080fd5b8235905067ffffffffffffffff81111561082657600080fd5b60208301915083600182028301111561083e57600080fd5b9250929050565b60008135905061085481610e5d565b92915050565b60006020828403121561086c57600080fd5b600061087a848285016107d1565b91505092915050565b6000806020838503121561089657600080fd5b600083013567ffffffffffffffff8111156108b057600080fd5b6108bc858286016107fb565b92509250509250929050565b6000602082840312156108da57600080fd5b60006108e884828501610845565b91505092915050565b60008060006060848603121561090657600080fd5b600061091486828701610845565b9350506020610925868287016107e6565b9250506040610936868287016107e6565b9150509250925092565b6000806000806060858703121561095657600080fd5b600061096487828801610845565b945050602085013567ffffffffffffffff81111561098157600080fd5b61098d878288016107fb565b935093505060406109a0878288016107d1565b91505092959194509250565b60006109b88383610ab6565b60208301905092915050565b60006109d08383610bc9565b60208301905092915050565b6109e581610da6565b82525050565b6109f481610d60565b82525050565b6000610a0582610ce1565b610a0f8185610d1c565b9350610a1a83610cc1565b8060005b83811015610a4b578151610a3288826109ac565b9750610a3d83610d02565b925050600181019050610a1e565b5085935050505092915050565b6000610a6382610cec565b610a6d8185610d2d565b9350610a7883610cd1565b8060005b83811015610aa9578151610a9088826109c4565b9750610a9b83610d0f565b925050600181019050610a7c565b5085935050505092915050565b610abf81610d72565b82525050565b6000610ad18385610d4f565b9350610ade838584610ddc565b610ae783610e1e565b840190509392505050565b6000610afd82610cf7565b610b078185610d3e565b9350610b17818560208601610deb565b610b2081610e1e565b840191505092915050565b6000610b38601583610d4f565b91507f4f6e6c79206f776e657220697320616c6c6f77656400000000000000000000006000830152602082019050919050565b60006060830160008301518482036000860152610b888282610af2565b91505060208301518482036020860152610ba282826109fa565b91505060408301518482036040860152610bbc82826109fa565b9150508091505092915050565b610bd281610d9c565b82525050565b610be181610d9c565b82525050565b6000602082019050610bfc60008301846109eb565b92915050565b60006020820190508181036000830152610c1c8184610a58565b905092915050565b60006020820190508181036000830152610c3d81610b2b565b9050919050565b60006020820190508181036000830152610c5e8184610b6b565b905092915050565b6000602082019050610c7b6000830184610bd8565b92915050565b6000606082019050610c966000830187610bd8565b8181036020830152610ca9818587610ac5565b9050610cb860408301846109dc565b95945050505050565b6000819050602082019050919050565b6000819050602082019050919050565b600081519050919050565b600081519050919050565b600081519050919050565b6000602082019050919050565b6000602082019050919050565b600082825260208201905092915050565b600082825260208201905092915050565b600082825260208201905092915050565b600082825260208201905092915050565b6000610d6b82610d7c565b9050919050565b6000819050919050565b600073ffffffffffffffffffffffffffffffffffffffff82169050919050565b6000819050919050565b6000610db182610db8565b9050919050565b6000610dc382610dca565b9050919050565b6000610dd582610d7c565b9050919050565b82818337600083830152505050565b60005b83811015610e09578082015181840152602081019050610dee565b83811115610e18576000848401525b50505050565b6000601f19601f8301169050919050565b610e3881610d60565b8114610e4357600080fd5b50565b610e4f81610d72565b8114610e5a57600080fd5b50565b610e6681610d9c565b8114610e7157600080fd5b5056fea2646970667358221220fa39df3318aba057bb5034e7f085d0b325c3018c32589d10527936ca55781a9064736f6c634300060c0033",
  "immutableReferences": {},
  "source": "// SPDX-License-Identifier: MIT\n\npragma solidity ^0.6.0;\npragma experimental ABIEncoderV2;\n\n//import '../../OpenZeppelin/openzeppelin-contracts/contracts/math/SafeMath.sol';\nimport '@openzeppelin/contracts/math/SafeMath.sol';\n\nimport './Portion.sol';\n\n/// @title This contract represents a land/agricultural resource\ncontract Land {\n    \n    using SafeMath for uint256;\n    \n    /// @dev Land data\n    struct Data {\n        string description;\n        bytes32[] documents;\n        bytes32[] hashes;\n    }\n    \n    /// @dev All the lands\n    mapping (uint256 => Data) private lands;\n    /// @dev Land indices grouped by owners\n    mapping (address => uint256[]) private landsByOwner;\n    /// @dev Owners grouped by land IDs\n    mapping (uint256 => address) private ownersByLandId;\n    \n    /// @dev Lands counter\n    uint256 private lastLandId;\n    \n    /// @dev Only owner can perform operation in his land\n    modifier onlyOwner(uint256 _landId) {\n        require(ownersByLandId[_landId] == msg.sender, 'Only owner is allowed');\n        _;\n    }\n    \n    /// @param _description Land description\n    function register(string calldata _description) external {\n        landsByOwner[msg.sender].push(lastLandId);\n        ownersByLandId[lastLandId] = msg.sender;\n        \n        lands[lastLandId].description = _description;\n        \n        lastLandId++;\n    }\n\n    /// @param _id Land ID\n    /// @param _document Document name\n    /// @param _base64 Base64 document\n    function registerDocument(uint256 _id, bytes32 _document, bytes32 _base64) external onlyOwner(_id) {\n        lands[_id].documents.push(_document);\n        lands[_id].hashes.push(_base64);\n    }\n    \n    /// @dev Only owner can divide a land in portion. This method calls the Portion instance for registering a new portion starting from input data.\n    /// @param _id Land ID to divide\n    /// @param _description Portion description\n    /// @param _contractAddress Address of Portion contract    \n    function divide(uint256 _id, string calldata _description, address _contractAddress) external onlyOwner(_id) {\n        Portion(_contractAddress).register(_id, _description, msg.sender);\n    }\n    \n    /// @param _id Land ID\n    /// @return the data of the land\n    function getById(uint256 _id) external view returns (Data memory) {\n        return lands[_id];\n    }\n    \n    /// @param _address Owner's address\n    /// @return the array containing ID of lands owned\n    function getByOwner(address _address) external view returns (uint256[] memory) {\n        return landsByOwner[_address];\n    }\n    \n    /// @param _id Land ID\n    /// @return the address of the owner\n    function getOwnerByLand(uint256 _id) external view returns (address) {\n        return ownersByLandId[_id];\n    }\n    \n    /// @return the total number of lands\n    function getTotal() external view returns (uint256) {\n        return lastLandId;\n    }\n}\n",
  "sourcePath": "/home/francesca/WebstormProjects/APT/contracts/Land.sol",
  "compiler": {
    "name": "solc",
    "version": "0.6.12+commit.27d51765.Emscripten.clang"
  },
  "schemaVersion": "3.2.5",
  "updatedAt": "2020-10-18T16:41:49.447Z",
  "networkType": "ethereum",
  "devdoc": {
    "kind": "dev",
    "methods": {
      "divide(uint256,string,address)": {
        "details": "Only owner can divide a land in portion. This method calls the Portion instance for registering a new portion starting from input data.",
        "params": {
          "_contractAddress": "Address of Portion contract    ",
          "_description": "Portion description",
          "_id": "Land ID to divide"
        }
      },
      "getById(uint256)": {
        "params": {
          "_id": "Land ID"
        },
        "returns": {
          "_0": "the data of the land"
        }
      },
      "getByOwner(address)": {
        "params": {
          "_address": "Owner's address"
        },
        "returns": {
          "_0": "the array containing ID of lands owned"
        }
      },
      "getOwnerByLand(uint256)": {
        "params": {
          "_id": "Land ID"
        },
        "returns": {
          "_0": "the address of the owner"
        }
      },
      "getTotal()": {
        "returns": {
          "_0": "the total number of lands"
        }
      },
      "register(string)": {
        "params": {
          "_description": "Land description"
        }
      },
      "registerDocument(uint256,bytes32,bytes32)": {
        "params": {
          "_base64": "Base64 document",
          "_document": "Document name",
          "_id": "Land ID"
        }
      }
    },
    "stateVariables": {
      "lands": {
        "details": "All the lands"
      },
      "landsByOwner": {
        "details": "Land indices grouped by owners"
      },
      "lastLandId": {
        "details": "Lands counter"
      },
      "ownersByLandId": {
        "details": "Owners grouped by land IDs"
      }
    },
    "title": "This contract represents a land/agricultural resource",
    "version": 1
  },
  "userdoc": {
    "kind": "user",
    "methods": {},
    "version": 1
  }
}