{
  "contractName": "Maintenance",
  "abi": [
    {
      "inputs": [
        {
          "internalType": "uint256",
          "name": "_id",
          "type": "uint256"
        }
      ],
      "name": "getById",
      "outputs": [
        {
          "components": [
            {
              "internalType": "string",
              "name": "description",
              "type": "string"
            },
            {
              "internalType": "uint256",
              "name": "portion",
              "type": "uint256"
            },
            {
              "internalType": "address",
              "name": "registeredBy",
              "type": "address"
            }
          ],
          "internalType": "struct Recordable.Data",
          "name": "",
          "type": "tuple"
        }
      ],
      "stateMutability": "view",
      "type": "function",
      "constant": true
    },
    {
      "inputs": [
        {
          "internalType": "address",
          "name": "_address",
          "type": "address"
        }
      ],
      "name": "getByOperator",
      "outputs": [
        {
          "internalType": "uint256[]",
          "name": "",
          "type": "uint256[]"
        }
      ],
      "stateMutability": "view",
      "type": "function",
      "constant": true
    },
    {
      "inputs": [
        {
          "internalType": "uint256",
          "name": "_id",
          "type": "uint256"
        }
      ],
      "name": "getByPortion",
      "outputs": [
        {
          "internalType": "uint256[]",
          "name": "",
          "type": "uint256[]"
        }
      ],
      "stateMutability": "view",
      "type": "function",
      "constant": true
    },
    {
      "inputs": [],
      "name": "getTotal",
      "outputs": [
        {
          "internalType": "uint256",
          "name": "",
          "type": "uint256"
        }
      ],
      "stateMutability": "view",
      "type": "function",
      "constant": true
    },
    {
      "inputs": [
        {
          "internalType": "string",
          "name": "_description",
          "type": "string"
        },
        {
          "internalType": "uint256",
          "name": "_id",
          "type": "uint256"
        },
        {
          "internalType": "address",
          "name": "_source",
          "type": "address"
        }
      ],
      "name": "register",
      "outputs": [],
      "stateMutability": "nonpayable",
      "type": "function"
    },
    {
      "inputs": [
        {
          "internalType": "string",
          "name": "_description",
          "type": "string"
        },
        {
          "internalType": "uint256",
          "name": "_id",
          "type": "uint256"
        }
      ],
      "name": "register",
      "outputs": [],
      "stateMutability": "nonpayable",
      "type": "function"
    }
  ],
  "bytecode": "0x608060405234801561001057600080fd5b50610af1806100206000396000f3fe608060405234801561001057600080fd5b50600436106100625760003560e01c806304d6e3f6146100675780634a4d72e1146100975780635dc1aad3146100c7578063775a25e3146100e3578063ea87152b14610101578063f4f4d2371461011d575b600080fd5b610081600480360381019061007c9190610785565b61014d565b60405161008e9190610907565b60405180910390f35b6100b160048036038101906100ac9190610698565b6101b8565b6040516100be9190610907565b60405180910390f35b6100e160048036038101906100dc9190610719565b61024f565b005b6100eb610382565b6040516100f8919061097d565b60405180910390f35b61011b600480360381019061011691906106c1565b61038c565b005b61013760048036038101906101329190610785565b610422565b604051610144919061095b565b60405180910390f35b6060600260008381526020019081526020016000208054806020026020016040519081016040528092919081815260200182805480156101ac57602002820191906000526020600020905b815481526020019060010190808311610198575b50505050509050919050565b6060600160008373ffffffffffffffffffffffffffffffffffffffff1673ffffffffffffffffffffffffffffffffffffffff16815260200190815260200160002080548060200260200160405190810160405280929190818152602001828054801561024357602002820191906000526020600020905b81548152602001906001019080831161022f575b50505050509050919050565b80600080600354815260200190815260200160002060020160006101000a81548173ffffffffffffffffffffffffffffffffffffffff021916908373ffffffffffffffffffffffffffffffffffffffff160217905550600160008273ffffffffffffffffffffffffffffffffffffffff1673ffffffffffffffffffffffffffffffffffffffff16815260200190815260200160002060035490806001815401808255809150506001900390600052602060002001600090919091909150553073ffffffffffffffffffffffffffffffffffffffff1663ea87152b8585856040518463ffffffff1660e01b815260040161034a93929190610929565b600060405180830381600087803b15801561036457600080fd5b505af1158015610378573d6000803e3d6000fd5b5050505050505050565b6000600354905090565b8282600080600354815260200190815260200160002060000191906103b2929190610550565b5080600080600354815260200190815260200160002060010181905550600260008281526020019081526020016000206003549080600181540180825580915050600190039060005260206000200160009091909190915055600360008154809291906001019190505550505050565b61042a6105d0565b600080838152602001908152602001600020604051806060016040529081600082018054600181600116156101000203166002900480601f0160208091040260200160405190810160405280929190818152602001828054600181600116156101000203166002900480156104e05780601f106104b5576101008083540402835291602001916104e0565b820191906000526020600020905b8154815290600101906020018083116104c357829003601f168201915b50505050508152602001600182015481526020016002820160009054906101000a900473ffffffffffffffffffffffffffffffffffffffff1673ffffffffffffffffffffffffffffffffffffffff1673ffffffffffffffffffffffffffffffffffffffff16815250509050919050565b828054600181600116156101000203166002900490600052602060002090601f016020900481019282601f1061059157803560ff19168380011785556105bf565b828001600101855582156105bf579182015b828111156105be5782358255916020019190600101906105a3565b5b5090506105cc9190610607565b5090565b60405180606001604052806060815260200160008152602001600073ffffffffffffffffffffffffffffffffffffffff1681525090565b5b80821115610620576000816000905550600101610608565b5090565b60008135905061063381610a8d565b92915050565b60008083601f84011261064b57600080fd5b8235905067ffffffffffffffff81111561066457600080fd5b60208301915083600182028301111561067c57600080fd5b9250929050565b60008135905061069281610aa4565b92915050565b6000602082840312156106aa57600080fd5b60006106b884828501610624565b91505092915050565b6000806000604084860312156106d657600080fd5b600084013567ffffffffffffffff8111156106f057600080fd5b6106fc86828701610639565b9350935050602061070f86828701610683565b9150509250925092565b6000806000806060858703121561072f57600080fd5b600085013567ffffffffffffffff81111561074957600080fd5b61075587828801610639565b9450945050602061076887828801610683565b925050604061077987828801610624565b91505092959194509250565b60006020828403121561079757600080fd5b60006107a584828501610683565b91505092915050565b60006107ba83836108e9565b60208301905092915050565b6107cf816109fe565b82525050565b60006107e0826109a8565b6107ea81856109cb565b93506107f583610998565b8060005b8381101561082657815161080d88826107ae565b9750610818836109be565b9250506001810190506107f9565b5085935050505092915050565b600061083f83856109ed565b935061084c838584610a3a565b61085583610a7c565b840190509392505050565b600061086b826109b3565b61087581856109dc565b9350610885818560208601610a49565b61088e81610a7c565b840191505092915050565b600060608301600083015184820360008601526108b68282610860565b91505060208301516108cb60208601826108e9565b5060408301516108de60408601826107c6565b508091505092915050565b6108f281610a30565b82525050565b61090181610a30565b82525050565b6000602082019050818103600083015261092181846107d5565b905092915050565b60006040820190508181036000830152610944818587610833565b905061095360208301846108f8565b949350505050565b600060208201905081810360008301526109758184610899565b905092915050565b600060208201905061099260008301846108f8565b92915050565b6000819050602082019050919050565b600081519050919050565b600081519050919050565b6000602082019050919050565b600082825260208201905092915050565b600082825260208201905092915050565b600082825260208201905092915050565b6000610a0982610a10565b9050919050565b600073ffffffffffffffffffffffffffffffffffffffff82169050919050565b6000819050919050565b82818337600083830152505050565b60005b83811015610a67578082015181840152602081019050610a4c565b83811115610a76576000848401525b50505050565b6000601f19601f8301169050919050565b610a96816109fe565b8114610aa157600080fd5b50565b610aad81610a30565b8114610ab857600080fd5b5056fea2646970667358221220bdf5dc3ef470f6137d905ff2e33d8998897669bd0d56a95e244560cbf9c86ddf64736f6c634300060c0033",
  "immutableReferences": {},
  "source": "// SPDX-License-Identifier: MIT\n\npragma solidity ^0.6.0;\npragma experimental ABIEncoderV2;\n\nimport './Recordable.sol';\n\ncontract Maintenance is Recordable {}\n",
  "sourcePath": "/home/francesca/WebstormProjects/APT/contracts/Maintenance.sol",
  "compiler": {
    "name": "solc",
    "version": "0.6.12+commit.27d51765.Emscripten.clang"
  },
  "schemaVersion": "3.2.5",
  "updatedAt": "2020-10-01T14:27:29.490Z",
  "networkType": "ethereum",
  "devdoc": {
    "kind": "dev",
    "methods": {
      "getById(uint256)": {
        "params": {
          "_id": "Item ID"
        },
        "returns": {
          "_0": "the item data only if the item exists"
        }
      },
      "getByOperator(address)": {
        "params": {
          "_address": "Operator's address"
        },
        "returns": {
          "_0": "the array containing all the item IDs registered by a specific operator"
        }
      },
      "getByPortion(uint256)": {
        "params": {
          "_id": "Portion ID"
        },
        "returns": {
          "_0": "the array containing all the the item IDs registered in a specific portion"
        }
      },
      "getTotal()": {
        "returns": {
          "_0": "the number of registerd items"
        }
      },
      "register(string,uint256)": {
        "params": {
          "_description": "Item description",
          "_id": "Related portion ID"
        }
      },
      "register(string,uint256,address)": {
        "params": {
          "_description": "Item description",
          "_id": "Related portion ID",
          "_source": "Original sender"
        }
      }
    },
    "version": 1
  },
  "userdoc": {
    "kind": "user",
    "methods": {},
    "version": 1
  }
}