{
  "contractName": "Maintenance",
  "abi": [
    {
      "inputs": [
        {
          "internalType": "uint256",
          "name": "_id",
          "type": "uint256"
        }
      ],
      "name": "getById",
      "outputs": [
        {
          "components": [
            {
              "internalType": "string",
              "name": "description",
              "type": "string"
            },
            {
              "internalType": "uint256",
              "name": "portion",
              "type": "uint256"
            },
            {
              "internalType": "address",
              "name": "registeredBy",
              "type": "address"
            }
          ],
          "internalType": "struct Recordable.Data",
          "name": "",
          "type": "tuple"
        }
      ],
      "stateMutability": "view",
      "type": "function",
      "constant": true
    },
    {
      "inputs": [
        {
          "internalType": "address",
          "name": "_address",
          "type": "address"
        }
      ],
      "name": "getByOperator",
      "outputs": [
        {
          "internalType": "uint256[]",
          "name": "",
          "type": "uint256[]"
        }
      ],
      "stateMutability": "view",
      "type": "function",
      "constant": true
    },
    {
      "inputs": [
        {
          "internalType": "uint256",
          "name": "_id",
          "type": "uint256"
        }
      ],
      "name": "getByPortion",
      "outputs": [
        {
          "internalType": "uint256[]",
          "name": "",
          "type": "uint256[]"
        }
      ],
      "stateMutability": "view",
      "type": "function",
      "constant": true
    },
    {
      "inputs": [],
      "name": "getTotal",
      "outputs": [
        {
          "internalType": "uint256",
          "name": "",
          "type": "uint256"
        }
      ],
      "stateMutability": "view",
      "type": "function",
      "constant": true
    },
    {
      "inputs": [
        {
          "internalType": "string",
          "name": "_description",
          "type": "string"
        },
        {
          "internalType": "uint256",
          "name": "_id",
          "type": "uint256"
        }
      ],
      "name": "register",
      "outputs": [],
      "stateMutability": "nonpayable",
      "type": "function"
    }
  ],
  "bytecode": "0x608060405234801561001057600080fd5b5061096a806100206000396000f3fe608060405234801561001057600080fd5b50600436106100575760003560e01c806304d6e3f61461005c5780634a4d72e11461008c578063775a25e3146100bc578063ea87152b146100da578063f4f4d237146100f6575b600080fd5b6100766004803603810190610071919061067d565b610126565b60405161008391906107d2565b60405180910390f35b6100a660048036038101906100a191906105fc565b610191565b6040516100b391906107d2565b60405180910390f35b6100c4610228565b6040516100d19190610816565b60405180910390f35b6100f460048036038101906100ef9190610625565b610232565b005b610110600480360381019061010b919061067d565b610386565b60405161011d91906107f4565b60405180910390f35b60606002600083815260200190815260200160002080548060200260200160405190810160405280929190818152602001828054801561018557602002820191906000526020600020905b815481526020019060010190808311610171575b50505050509050919050565b6060600160008373ffffffffffffffffffffffffffffffffffffffff1673ffffffffffffffffffffffffffffffffffffffff16815260200190815260200160002080548060200260200160405190810160405280929190818152602001828054801561021c57602002820191906000526020600020905b815481526020019060010190808311610208575b50505050509050919050565b6000600354905090565b8282600080600354815260200190815260200160002060000191906102589291906104b4565b508060008060035481526020019081526020016000206001018190555033600080600354815260200190815260200160002060020160006101000a81548173ffffffffffffffffffffffffffffffffffffffff021916908373ffffffffffffffffffffffffffffffffffffffff160217905550600160003373ffffffffffffffffffffffffffffffffffffffff1673ffffffffffffffffffffffffffffffffffffffff1681526020019081526020016000206003549080600181540180825580915050600190039060005260206000200160009091909190915055600260008281526020019081526020016000206003549080600181540180825580915050600190039060005260206000200160009091909190915055600360008154809291906001019190505550505050565b61038e610534565b600080838152602001908152602001600020604051806060016040529081600082018054600181600116156101000203166002900480601f0160208091040260200160405190810160405280929190818152602001828054600181600116156101000203166002900480156104445780601f1061041957610100808354040283529160200191610444565b820191906000526020600020905b81548152906001019060200180831161042757829003601f168201915b50505050508152602001600182015481526020016002820160009054906101000a900473ffffffffffffffffffffffffffffffffffffffff1673ffffffffffffffffffffffffffffffffffffffff1673ffffffffffffffffffffffffffffffffffffffff16815250509050919050565b828054600181600116156101000203166002900490600052602060002090601f016020900481019282601f106104f557803560ff1916838001178555610523565b82800160010185558215610523579182015b82811115610522578235825591602001919060010190610507565b5b509050610530919061056b565b5090565b60405180606001604052806060815260200160008152602001600073ffffffffffffffffffffffffffffffffffffffff1681525090565b5b8082111561058457600081600090555060010161056c565b5090565b60008135905061059781610906565b92915050565b60008083601f8401126105af57600080fd5b8235905067ffffffffffffffff8111156105c857600080fd5b6020830191508360018202830111156105e057600080fd5b9250929050565b6000813590506105f68161091d565b92915050565b60006020828403121561060e57600080fd5b600061061c84828501610588565b91505092915050565b60008060006040848603121561063a57600080fd5b600084013567ffffffffffffffff81111561065457600080fd5b6106608682870161059d565b93509350506020610673868287016105e7565b9150509250925092565b60006020828403121561068f57600080fd5b600061069d848285016105e7565b91505092915050565b60006106b283836107b4565b60208301905092915050565b6106c781610886565b82525050565b60006106d882610841565b6106e28185610864565b93506106ed83610831565b8060005b8381101561071e57815161070588826106a6565b975061071083610857565b9250506001810190506106f1565b5085935050505092915050565b60006107368261084c565b6107408185610875565b93506107508185602086016108c2565b610759816108f5565b840191505092915050565b60006060830160008301518482036000860152610781828261072b565b915050602083015161079660208601826107b4565b5060408301516107a960408601826106be565b508091505092915050565b6107bd816108b8565b82525050565b6107cc816108b8565b82525050565b600060208201905081810360008301526107ec81846106cd565b905092915050565b6000602082019050818103600083015261080e8184610764565b905092915050565b600060208201905061082b60008301846107c3565b92915050565b6000819050602082019050919050565b600081519050919050565b600081519050919050565b6000602082019050919050565b600082825260208201905092915050565b600082825260208201905092915050565b600061089182610898565b9050919050565b600073ffffffffffffffffffffffffffffffffffffffff82169050919050565b6000819050919050565b60005b838110156108e05780820151818401526020810190506108c5565b838111156108ef576000848401525b50505050565b6000601f19601f8301169050919050565b61090f81610886565b811461091a57600080fd5b50565b610926816108b8565b811461093157600080fd5b5056fea26469706673582212208ccf0dbcd8ded99b905089cfd76a5d612396023e2a4fbbd3eef277b0ea373f6864736f6c634300060c0033",
  "immutableReferences": {},
  "source": "// SPDX-License-Identifier: MIT\n\npragma solidity ^0.6.0;\npragma experimental ABIEncoderV2;\n\nimport './Recordable.sol';\n\ncontract Maintenance is Recordable {}\n",
  "sourcePath": "/home/francesca/WebstormProjects/APT/contracts/Maintenance.sol",
  "compiler": {
    "name": "solc",
    "version": "0.6.12+commit.27d51765.Emscripten.clang"
  },
  "schemaVersion": "3.2.5",
  "updatedAt": "2020-10-01T11:56:40.727Z",
  "networkType": "ethereum",
  "devdoc": {
    "kind": "dev",
    "methods": {
      "getById(uint256)": {
        "params": {
          "_id": "Item ID"
        },
        "returns": {
          "_0": "the item data only if the item exists"
        }
      },
      "getByOperator(address)": {
        "params": {
          "_address": "Operator's address"
        },
        "returns": {
          "_0": "the array containing all the item IDs registered by a specific operator"
        }
      },
      "getByPortion(uint256)": {
        "params": {
          "_id": "Portion ID"
        },
        "returns": {
          "_0": "the array containing all the the item IDs registered in a specific portion"
        }
      },
      "getTotal()": {
        "returns": {
          "_0": "the number of registerd items"
        }
      },
      "register(string,uint256)": {
        "params": {
          "_description": "Item description",
          "_id": "Related portion ID"
        }
      }
    },
    "version": 1
  },
  "userdoc": {
    "kind": "user",
    "methods": {},
    "version": 1
  }
}