{
  "contractName": "Portion",
  "abi": [
    {
      "inputs": [
        {
          "internalType": "address",
          "name": "_dataStorage",
          "type": "address"
        }
      ],
      "stateMutability": "nonpayable",
      "type": "constructor"
    },
    {
      "inputs": [
        {
          "internalType": "uint256",
          "name": "_landId",
          "type": "uint256"
        },
        {
          "internalType": "string",
          "name": "_description",
          "type": "string"
        }
      ],
      "name": "register",
      "outputs": [],
      "stateMutability": "nonpayable",
      "type": "function"
    },
    {
      "inputs": [
        {
          "internalType": "uint256",
          "name": "_landId",
          "type": "uint256"
        },
        {
          "internalType": "string",
          "name": "_description",
          "type": "string"
        },
        {
          "internalType": "address",
          "name": "_source",
          "type": "address"
        }
      ],
      "name": "register",
      "outputs": [],
      "stateMutability": "nonpayable",
      "type": "function"
    },
    {
      "inputs": [
        {
          "internalType": "uint256",
          "name": "_id",
          "type": "uint256"
        },
        {
          "internalType": "bytes32",
          "name": "_document",
          "type": "bytes32"
        },
        {
          "internalType": "string",
          "name": "_base64",
          "type": "string"
        }
      ],
      "name": "registerDocument",
      "outputs": [],
      "stateMutability": "nonpayable",
      "type": "function"
    },
    {
      "inputs": [
        {
          "internalType": "uint256",
          "name": "_portionId",
          "type": "uint256"
        },
        {
          "internalType": "uint256",
          "name": "_price",
          "type": "uint256"
        },
        {
          "internalType": "uint256",
          "name": "_duration",
          "type": "uint256"
        },
        {
          "internalType": "string",
          "name": "_expectedProduction",
          "type": "string"
        },
        {
          "internalType": "string",
          "name": "_periodicity",
          "type": "string"
        },
        {
          "internalType": "uint256",
          "name": "_expectedMaintenanceCost",
          "type": "uint256"
        },
        {
          "internalType": "uint256",
          "name": "_expectedProdActivityCost",
          "type": "uint256"
        }
      ],
      "name": "defineTerms",
      "outputs": [],
      "stateMutability": "nonpayable",
      "type": "function"
    },
    {
      "inputs": [
        {
          "internalType": "uint256",
          "name": "_id",
          "type": "uint256"
        },
        {
          "internalType": "address",
          "name": "_buyer",
          "type": "address"
        }
      ],
      "name": "sell",
      "outputs": [],
      "stateMutability": "nonpayable",
      "type": "function"
    },
    {
      "inputs": [
        {
          "internalType": "uint256",
          "name": "_id",
          "type": "uint256"
        }
      ],
      "name": "ownershipExpiration",
      "outputs": [],
      "stateMutability": "nonpayable",
      "type": "function"
    },
    {
      "inputs": [
        {
          "internalType": "uint256",
          "name": "_id",
          "type": "uint256"
        }
      ],
      "name": "getById",
      "outputs": [
        {
          "components": [
            {
              "internalType": "uint256",
              "name": "land",
              "type": "uint256"
            },
            {
              "internalType": "string",
              "name": "description",
              "type": "string"
            },
            {
              "internalType": "bytes32[]",
              "name": "documents",
              "type": "bytes32[]"
            },
            {
              "internalType": "uint256[]",
              "name": "hashIds",
              "type": "uint256[]"
            },
            {
              "internalType": "bool",
              "name": "hasValue",
              "type": "bool"
            }
          ],
          "internalType": "struct Portion.Data",
          "name": "",
          "type": "tuple"
        },
        {
          "components": [
            {
              "internalType": "uint256",
              "name": "price",
              "type": "uint256"
            },
            {
              "internalType": "uint256",
              "name": "duration",
              "type": "uint256"
            },
            {
              "internalType": "string",
              "name": "expectedProduction",
              "type": "string"
            },
            {
              "internalType": "string",
              "name": "periodicity",
              "type": "string"
            },
            {
              "internalType": "uint256",
              "name": "expectedMaintenanceCost",
              "type": "uint256"
            },
            {
              "internalType": "uint256",
              "name": "expectedProdActivityCost",
              "type": "uint256"
            },
            {
              "internalType": "address",
              "name": "owner",
              "type": "address"
            },
            {
              "internalType": "address",
              "name": "buyer",
              "type": "address"
            }
          ],
          "internalType": "struct Portion.TermsOfSale",
          "name": "",
          "type": "tuple"
        }
      ],
      "stateMutability": "view",
      "type": "function",
      "constant": true
    },
    {
      "inputs": [
        {
          "internalType": "uint256",
          "name": "_land",
          "type": "uint256"
        }
      ],
      "name": "getByLand",
      "outputs": [
        {
          "internalType": "uint256[]",
          "name": "",
          "type": "uint256[]"
        }
      ],
      "stateMutability": "view",
      "type": "function",
      "constant": true
    },
    {
      "inputs": [
        {
          "internalType": "address",
          "name": "_owner",
          "type": "address"
        }
      ],
      "name": "getByOwner",
      "outputs": [
        {
          "internalType": "uint256[]",
          "name": "",
          "type": "uint256[]"
        }
      ],
      "stateMutability": "view",
      "type": "function",
      "constant": true
    },
    {
      "inputs": [
        {
          "internalType": "address",
          "name": "_buyer",
          "type": "address"
        }
      ],
      "name": "getByBuyer",
      "outputs": [
        {
          "internalType": "uint256[]",
          "name": "",
          "type": "uint256[]"
        }
      ],
      "stateMutability": "view",
      "type": "function",
      "constant": true
    },
    {
      "inputs": [
        {
          "internalType": "uint256",
          "name": "_id",
          "type": "uint256"
        }
      ],
      "name": "getBuyersByPortion",
      "outputs": [
        {
          "internalType": "address[]",
          "name": "",
          "type": "address[]"
        }
      ],
      "stateMutability": "view",
      "type": "function",
      "constant": true
    },
    {
      "inputs": [],
      "name": "getTotal",
      "outputs": [
        {
          "internalType": "uint256",
          "name": "",
          "type": "uint256"
        }
      ],
      "stateMutability": "view",
      "type": "function",
      "constant": true
    },
    {
      "inputs": [
        {
          "internalType": "string",
          "name": "_description",
          "type": "string"
        },
        {
          "internalType": "uint256",
          "name": "_id",
          "type": "uint256"
        },
        {
          "internalType": "address",
          "name": "_contractAddress",
          "type": "address"
        }
      ],
      "name": "registerProduct",
      "outputs": [],
      "stateMutability": "nonpayable",
      "type": "function"
    },
    {
      "inputs": [
        {
          "internalType": "string",
          "name": "_description",
          "type": "string"
        },
        {
          "internalType": "uint256",
          "name": "_id",
          "type": "uint256"
        },
        {
          "internalType": "address",
          "name": "_contractAddress",
          "type": "address"
        }
      ],
      "name": "registerProductionActivity",
      "outputs": [],
      "stateMutability": "nonpayable",
      "type": "function"
    },
    {
      "inputs": [
        {
          "internalType": "string",
          "name": "_description",
          "type": "string"
        },
        {
          "internalType": "uint256",
          "name": "_id",
          "type": "uint256"
        },
        {
          "internalType": "address",
          "name": "_contractAddress",
          "type": "address"
        }
      ],
      "name": "registerMaintenance",
      "outputs": [],
      "stateMutability": "nonpayable",
      "type": "function"
    }
  ],
  "bytecode": "0x60806040523480156200001157600080fd5b50604051620023af380380620023af833981810160405281019062000037919062000096565b80600760006101000a81548173ffffffffffffffffffffffffffffffffffffffff021916908373ffffffffffffffffffffffffffffffffffffffff1602179055505062000110565b6000815190506200009081620000f6565b92915050565b600060208284031215620000a957600080fd5b6000620000b9848285016200007f565b91505092915050565b6000620000cf82620000d6565b9050919050565b600073ffffffffffffffffffffffffffffffffffffffff82169050919050565b6200010181620000c2565b81146200010d57600080fd5b50565b61228f80620001206000396000f3fe608060405234801561001057600080fd5b50600436106100f55760003560e01c8063601219b7116100975780639a654c34116100665780639a654c341461026c578063a00fd3c814610288578063f4f4d237146102a4578063fa5f9559146102d5576100f5565b8063601219b7146101fa578063682563c3146102165780637681365e14610232578063775a25e31461024e576100f5565b80633b8d33f2116100d35780633b8d33f2146101765780634189a68e146101a65780635700b63d146101c25780635a67fff1146101de576100f5565b806322be8da1146100fa578063368189421461012a578063379c513114610146575b600080fd5b610114600480360381019061010f91906116c0565b610305565b6040516101219190611ec6565b60405180910390f35b610144600480360381019061013f9190611913565b61039c565b005b610160600480360381019061015b91906116c0565b610505565b60405161016d9190611ec6565b60405180910390f35b610190600480360381019061018b9190611755565b61059c565b60405161019d9190611ec6565b60405180910390f35b6101c060048036038101906101bb91906117a7565b610607565b005b6101dc60048036038101906101d791906117e3565b61084c565b005b6101f860048036038101906101f391906116e9565b610a1e565b005b610214600480360381019061020f91906118a7565b610af7565b005b610230600480360381019061022b91906116e9565b610cdd565b005b61024c60048036038101906102479190611755565b610db6565b005b610256610eeb565b6040516102639190612003565b60405180910390f35b610286600480360381019061028191906116e9565b610ef5565b005b6102a2600480360381019061029d919061184f565b610fce565b005b6102be60048036038101906102b99190611755565b611058565b6040516102cc929190611fcc565b60405180910390f35b6102ef60048036038101906102ea9190611755565b611442565b6040516102fc9190611ea4565b60405180910390f35b6060600360008373ffffffffffffffffffffffffffffffffffffffff1673ffffffffffffffffffffffffffffffffffffffff16815260200190815260200160002080548060200260200160405190810160405280929190818152602001828054801561039057602002820191906000526020600020905b81548152602001906001019080831161037c575b50505050509050919050565b883373ffffffffffffffffffffffffffffffffffffffff166004600083815260200190815260200160002060060160009054906101000a900473ffffffffffffffffffffffffffffffffffffffff1673ffffffffffffffffffffffffffffffffffffffff1614610441576040517f08c379a000000000000000000000000000000000000000000000000000000000815260040161043890611f8c565b60405180910390fd5b88600460008c81526020019081526020016000206000018190555087600460008c8152602001908152602001600020600101819055508686600460008d8152602001908152602001600020600201919061049c9291906114e3565b508484600460008d815260200190815260200160002060030191906104c29291906114e3565b5082600460008c81526020019081526020016000206004018190555081600460008c81526020019081526020016000206005018190555050505050505050505050565b6060600260008373ffffffffffffffffffffffffffffffffffffffff1673ffffffffffffffffffffffffffffffffffffffff16815260200190815260200160002080548060200260200160405190810160405280929190818152602001828054801561059057602002820191906000526020600020905b81548152602001906001019080831161057c575b50505050509050919050565b6060600160008381526020019081526020016000208054806020026020016040519081016040528092919081815260200182805480156105fb57602002820191906000526020600020905b8154815260200190600101908083116105e7575b50505050509050919050565b813373ffffffffffffffffffffffffffffffffffffffff166004600083815260200190815260200160002060060160009054906101000a900473ffffffffffffffffffffffffffffffffffffffff1673ffffffffffffffffffffffffffffffffffffffff1614806106d957503373ffffffffffffffffffffffffffffffffffffffff166004600083815260200190815260200160002060070160009054906101000a900473ffffffffffffffffffffffffffffffffffffffff1673ffffffffffffffffffffffffffffffffffffffff16145b610718576040517f08c379a000000000000000000000000000000000000000000000000000000000815260040161070f90611f6c565b60405180910390fd5b816004600085815260200190815260200160002060070160006101000a81548173ffffffffffffffffffffffffffffffffffffffff021916908373ffffffffffffffffffffffffffffffffffffffff160217905550600360008373ffffffffffffffffffffffffffffffffffffffff1673ffffffffffffffffffffffffffffffffffffffff16815260200190815260200160002083908060018154018082558091505060019003906000526020600020016000909190919091505560056000848152602001908152602001600020829080600181540180825580915050600190039060005260206000200160009091909190916101000a81548173ffffffffffffffffffffffffffffffffffffffff021916908373ffffffffffffffffffffffffffffffffffffffff160217905550505050565b833373ffffffffffffffffffffffffffffffffffffffff166004600083815260200190815260200160002060060160009054906101000a900473ffffffffffffffffffffffffffffffffffffffff1673ffffffffffffffffffffffffffffffffffffffff16146108f1576040517f08c379a00000000000000000000000000000000000000000000000000000000081526004016108e890611f8c565b60405180910390fd5b600080868152602001908152602001600020600201849080600181540180825580915050600190039060005260206000200160009091909190915055600080868152602001908152602001600020600301600760009054906101000a900473ffffffffffffffffffffffffffffffffffffffff1673ffffffffffffffffffffffffffffffffffffffff1663b0c8f9dc85856040518363ffffffff1660e01b815260040161099f929190611ee8565b602060405180830381600087803b1580156109b957600080fd5b505af11580156109cd573d6000803e3d6000fd5b505050506040513d601f19601f820116820180604052508101906109f1919061177e565b90806001815401808255809150506001900390600052602060002001600090919091909150555050505050565b60008083815260200190815260200160002060040160009054906101000a900460ff16610a80576040517f08c379a0000000000000000000000000000000000000000000000000000000008152600401610a7790611fac565b60405180910390fd5b8073ffffffffffffffffffffffffffffffffffffffff16635dc1aad3858585336040518563ffffffff1660e01b8152600401610abf9493929190611f0c565b600060405180830381600087803b158015610ad957600080fd5b505af1158015610aed573d6000803e3d6000fd5b5050505050505050565b6001600085815260200190815260200160002060065490806001815401808255809150506001900390600052602060002001600090919091909150558060046000600654815260200190815260200160002060060160006101000a81548173ffffffffffffffffffffffffffffffffffffffff021916908373ffffffffffffffffffffffffffffffffffffffff160217905550600260008273ffffffffffffffffffffffffffffffffffffffff1673ffffffffffffffffffffffffffffffffffffffff1681526020019081526020016000206006549080600181540180825580915050600190039060005260206000200160009091909190915055600560006006548152602001908152602001600020819080600181540180825580915050600190039060005260206000200160009091909190916101000a81548173ffffffffffffffffffffffffffffffffffffffff021916908373ffffffffffffffffffffffffffffffffffffffff1602179055503073ffffffffffffffffffffffffffffffffffffffff1663a00fd3c88585856040518463ffffffff1660e01b8152600401610ca59392919061201e565b600060405180830381600087803b158015610cbf57600080fd5b505af1158015610cd3573d6000803e3d6000fd5b5050505050505050565b60008083815260200190815260200160002060040160009054906101000a900460ff16610d3f576040517f08c379a0000000000000000000000000000000000000000000000000000000008152600401610d3690611fac565b60405180910390fd5b8073ffffffffffffffffffffffffffffffffffffffff16635dc1aad3858585336040518563ffffffff1660e01b8152600401610d7e9493929190611f0c565b600060405180830381600087803b158015610d9857600080fd5b505af1158015610dac573d6000803e3d6000fd5b5050505050505050565b60008082815260200190815260200160002060040160009054906101000a900460ff16610e18576040517f08c379a0000000000000000000000000000000000000000000000000000000008152600401610e0f90611fac565b60405180910390fd5b600060046000838152602001908152602001600020600101541480610e525750600460008281526020019081526020016000206001015442105b15610e92576040517f08c379a0000000000000000000000000000000000000000000000000000000008152600401610e8990611f4c565b60405180910390fd5b60006004600083815260200190815260200160002060070160006101000a81548173ffffffffffffffffffffffffffffffffffffffff021916908373ffffffffffffffffffffffffffffffffffffffff16021790555050565b6000600654905090565b60008083815260200190815260200160002060040160009054906101000a900460ff16610f57576040517f08c379a0000000000000000000000000000000000000000000000000000000008152600401610f4e90611fac565b60405180910390fd5b8073ffffffffffffffffffffffffffffffffffffffff16635dc1aad3858585336040518563ffffffff1660e01b8152600401610f969493929190611f0c565b600060405180830381600087803b158015610fb057600080fd5b505af1158015610fc4573d6000803e3d6000fd5b5050505050505050565b818160008060065481526020019081526020016000206001019190610ff49291906114e3565b50826000806006548152602001908152602001600020600001819055506001600080600654815260200190815260200160002060040160006101000a81548160ff021916908315150217905550600660008154809291906001019190505550505050565b611060611563565b611068611594565b60008084815260200190815260200160002060046000858152602001908152602001600020816040518060a001604052908160008201548152602001600182018054600181600116156101000203166002900480601f01602080910402602001604051908101604052809291908181526020018280546001816001161561010002031660029004801561113c5780601f106111115761010080835404028352916020019161113c565b820191906000526020600020905b81548152906001019060200180831161111f57829003601f168201915b505050505081526020016002820180548060200260200160405190810160405280929190818152602001828054801561119457602002820191906000526020600020905b815481526020019060010190808311611180575b50505050508152602001600382018054806020026020016040519081016040528092919081815260200182805480156111ec57602002820191906000526020600020905b8154815260200190600101908083116111d8575b505050505081526020016004820160009054906101000a900460ff161515151581525050915080604051806101000160405290816000820154815260200160018201548152602001600282018054600181600116156101000203166002900480601f0160208091040260200160405190810160405280929190818152602001828054600181600116156101000203166002900480156112cc5780601f106112a1576101008083540402835291602001916112cc565b820191906000526020600020905b8154815290600101906020018083116112af57829003601f168201915b50505050508152602001600382018054600181600116156101000203166002900480601f01602080910402602001604051908101604052809291908181526020018280546001816001161561010002031660029004801561136e5780601f106113435761010080835404028352916020019161136e565b820191906000526020600020905b81548152906001019060200180831161135157829003601f168201915b5050505050815260200160048201548152602001600582015481526020016006820160009054906101000a900473ffffffffffffffffffffffffffffffffffffffff1673ffffffffffffffffffffffffffffffffffffffff1673ffffffffffffffffffffffffffffffffffffffff1681526020016007820160009054906101000a900473ffffffffffffffffffffffffffffffffffffffff1673ffffffffffffffffffffffffffffffffffffffff1673ffffffffffffffffffffffffffffffffffffffff1681525050905091509150915091565b6060600560008381526020019081526020016000208054806020026020016040519081016040528092919081815260200182805480156114d757602002820191906000526020600020905b8160009054906101000a900473ffffffffffffffffffffffffffffffffffffffff1673ffffffffffffffffffffffffffffffffffffffff168152602001906001019080831161148d575b50505050509050919050565b828054600181600116156101000203166002900490600052602060002090601f016020900481019282601f1061152457803560ff1916838001178555611552565b82800160010185558215611552579182015b82811115611551578235825591602001919060010190611536565b5b50905061155f9190611605565b5090565b6040518060a00160405280600081526020016060815260200160608152602001606081526020016000151581525090565b604051806101000160405280600081526020016000815260200160608152602001606081526020016000815260200160008152602001600073ffffffffffffffffffffffffffffffffffffffff168152602001600073ffffffffffffffffffffffffffffffffffffffff1681525090565b5b8082111561161e576000816000905550600101611606565b5090565b60008135905061163181612214565b92915050565b6000813590506116468161222b565b92915050565b60008083601f84011261165e57600080fd5b8235905067ffffffffffffffff81111561167757600080fd5b60208301915083600182028301111561168f57600080fd5b9250929050565b6000813590506116a581612242565b92915050565b6000815190506116ba81612242565b92915050565b6000602082840312156116d257600080fd5b60006116e084828501611622565b91505092915050565b600080600080606085870312156116ff57600080fd5b600085013567ffffffffffffffff81111561171957600080fd5b6117258782880161164c565b9450945050602061173887828801611696565b925050604061174987828801611622565b91505092959194509250565b60006020828403121561176757600080fd5b600061177584828501611696565b91505092915050565b60006020828403121561179057600080fd5b600061179e848285016116ab565b91505092915050565b600080604083850312156117ba57600080fd5b60006117c885828601611696565b92505060206117d985828601611622565b9150509250929050565b600080600080606085870312156117f957600080fd5b600061180787828801611696565b945050602061181887828801611637565b935050604085013567ffffffffffffffff81111561183557600080fd5b6118418782880161164c565b925092505092959194509250565b60008060006040848603121561186457600080fd5b600061187286828701611696565b935050602084013567ffffffffffffffff81111561188f57600080fd5b61189b8682870161164c565b92509250509250925092565b600080600080606085870312156118bd57600080fd5b60006118cb87828801611696565b945050602085013567ffffffffffffffff8111156118e857600080fd5b6118f48782880161164c565b9350935050604061190787828801611622565b91505092959194509250565b600080600080600080600080600060e08a8c03121561193157600080fd5b600061193f8c828d01611696565b99505060206119508c828d01611696565b98505060406119618c828d01611696565b97505060608a013567ffffffffffffffff81111561197e57600080fd5b61198a8c828d0161164c565b965096505060808a013567ffffffffffffffff8111156119a957600080fd5b6119b58c828d0161164c565b945094505060a06119c88c828d01611696565b92505060c06119d98c828d01611696565b9150509295985092959850929598565b60006119f58383611a40565b60208301905092915050565b6000611a0d8383611bd6565b60208301905092915050565b6000611a258383611e86565b60208301905092915050565b611a3a8161218b565b82525050565b611a4981612139565b82525050565b6000611a5a82612080565b611a6481856120d3565b9350611a6f83612050565b8060005b83811015611aa0578151611a8788826119e9565b9750611a92836120ac565b925050600181019050611a73565b5085935050505092915050565b6000611ab88261208b565b611ac281856120e4565b9350611acd83612060565b8060005b83811015611afe578151611ae58882611a01565b9750611af0836120b9565b925050600181019050611ad1565b5085935050505092915050565b6000611b1682612096565b611b2081856120f5565b9350611b2b83612070565b8060005b83811015611b5c578151611b438882611a19565b9750611b4e836120c6565b925050600181019050611b2f565b5085935050505092915050565b6000611b7482612096565b611b7e8185612106565b9350611b8983612070565b8060005b83811015611bba578151611ba18882611a19565b9750611bac836120c6565b925050600181019050611b8d565b5085935050505092915050565b611bd08161214b565b82525050565b611bdf81612157565b82525050565b6000611bf18385612128565b9350611bfe8385846121c1565b611c0783612203565b840190509392505050565b6000611c1d826120a1565b611c278185612117565b9350611c378185602086016121d0565b611c4081612203565b840191505092915050565b6000611c58601f83612128565b91507f4f776e65736869702065787069726174696f6e206e6f7420616c6c6f776564006000830152602082019050919050565b6000611c98601f83612128565b91507f4f6e6c79206f776e6572206f722062757965722061726520616c6c6f776564006000830152602082019050919050565b6000611cd8601583612128565b91507f4f6e6c79206f776e657220697320616c6c6f77656400000000000000000000006000830152602082019050919050565b6000611d18601683612128565b91507f456c656d656e7420646f6573206e6f74206578697374000000000000000000006000830152602082019050919050565b600060a083016000830151611d636000860182611e86565b5060208301518482036020860152611d7b8282611c12565b91505060408301518482036040860152611d958282611aad565b91505060608301518482036060860152611daf8282611b0b565b9150506080830151611dc46080860182611bc7565b508091505092915050565b600061010083016000830151611de86000860182611e86565b506020830151611dfb6020860182611e86565b5060408301518482036040860152611e138282611c12565b91505060608301518482036060860152611e2d8282611c12565b9150506080830151611e426080860182611e86565b5060a0830151611e5560a0860182611e86565b5060c0830151611e6860c0860182611a40565b5060e0830151611e7b60e0860182611a40565b508091505092915050565b611e8f81612181565b82525050565b611e9e81612181565b82525050565b60006020820190508181036000830152611ebe8184611a4f565b905092915050565b60006020820190508181036000830152611ee08184611b69565b905092915050565b60006020820190508181036000830152611f03818486611be5565b90509392505050565b60006060820190508181036000830152611f27818688611be5565b9050611f366020830185611e95565b611f436040830184611a31565b95945050505050565b60006020820190508181036000830152611f6581611c4b565b9050919050565b60006020820190508181036000830152611f8581611c8b565b9050919050565b60006020820190508181036000830152611fa581611ccb565b9050919050565b60006020820190508181036000830152611fc581611d0b565b9050919050565b60006040820190508181036000830152611fe68185611d4b565b90508181036020830152611ffa8184611dcf565b90509392505050565b60006020820190506120186000830184611e95565b92915050565b60006040820190506120336000830186611e95565b8181036020830152612046818486611be5565b9050949350505050565b6000819050602082019050919050565b6000819050602082019050919050565b6000819050602082019050919050565b600081519050919050565b600081519050919050565b600081519050919050565b600081519050919050565b6000602082019050919050565b6000602082019050919050565b6000602082019050919050565b600082825260208201905092915050565b600082825260208201905092915050565b600082825260208201905092915050565b600082825260208201905092915050565b600082825260208201905092915050565b600082825260208201905092915050565b600061214482612161565b9050919050565b60008115159050919050565b6000819050919050565b600073ffffffffffffffffffffffffffffffffffffffff82169050919050565b6000819050919050565b60006121968261219d565b9050919050565b60006121a8826121af565b9050919050565b60006121ba82612161565b9050919050565b82818337600083830152505050565b60005b838110156121ee5780820151818401526020810190506121d3565b838111156121fd576000848401525b50505050565b6000601f19601f8301169050919050565b61221d81612139565b811461222857600080fd5b50565b61223481612157565b811461223f57600080fd5b50565b61224b81612181565b811461225657600080fd5b5056fea2646970667358221220012e7d1a2cc274889af567561fcbf85d2eee711043e0421d9232ec56bfd4eb2b64736f6c634300060c0033",
  "immutableReferences": {},
  "source": "// SPDX-License-Identifier: MIT\n\npragma solidity ^0.6.0;\npragma experimental ABIEncoderV2;\n\n//import '../../OpenZeppelin/openzeppelin-contracts/contracts/math/SafeMath.sol';\nimport '@openzeppelin/contracts/math/SafeMath.sol';\n\nimport './Storage.sol';\nimport './Product.sol';\nimport './Maintenance.sol';\nimport './ProductionActivity.sol';\n\n/// @title Contract representing a portion of land\ncontract Portion {\n    using SafeMath for uint256;\n    \n    /// @dev Portion data\n    struct Data {\n        uint256 land;\n        string description;\n        bytes32[] documents;\n        uint256[] hashIds;\n        bool hasValue;\n    }\n    \n    /// @notice Duration parameter can be perpetual (0) or for n years\n    struct TermsOfSale {\n        uint256 price;\n        uint256 duration;\n        string expectedProduction;\n        string periodicity;\n        uint256 expectedMaintenanceCost;\n        uint256 expectedProdActivityCost;\n        address owner;\n        address buyer;\n    }\n    \n    /// @dev All the portions\n    mapping (uint256 => Data) private portions;\n    /// @dev Portions grouped by land\n    mapping (uint256 => uint256[]) private portionsByLand;\n    /// @dev Portions grouped by owner's address\n    mapping (address => uint256[]) private portionsByOwner;\n    /// @dev Portions grouped by buyer's address\n    mapping (address => uint256[]) private portionsByBuyer;\n    /// @dev All the portion terms\n    mapping (uint256 => TermsOfSale) private portionTerms;\n    /// @dev Buyers grouped by portion\n    mapping (uint256 => address[]) buyersByPortions;\n    \n    /// @dev Portion counter\n    uint256 private lastPortionId;\n    \n    /// @dev Storage contract instance\n    Storage private dataStorage;\n    \n    /// @param _dataStorage Storage contract address\n    constructor (address _dataStorage) public  {\n        dataStorage = Storage(_dataStorage);\n    }\n    \n    /// @dev Portion terms can be defined only by the portion owner\n    modifier onlyOwner(uint256 _portionId) {\n        require(portionTerms[_portionId].owner == msg.sender, 'Only owner is allowed');\n        _;\n    }\n    \n    /// @dev Selling or transferring ownership can be performed only by owner or buyer\n    modifier onlyOwnerAndBuyer(uint256 _portionId) {\n        require(portionTerms[_portionId].owner == msg.sender || portionTerms[_portionId].buyer == msg.sender, 'Only owner or buyer are allowed');\n        _;\n    }\n    \n    /// @param _landId Land to be divided\n    /// @param _description Portion description\n    function register(uint256 _landId, string calldata _description) external {\n        portions[lastPortionId].description = _description;\n        portions[lastPortionId].land = _landId;\n        \n        portions[lastPortionId].hasValue = true;\n        \n        lastPortionId++;\n    }\n\n    /// @param _landId Land to be divided\n    /// @param _description Portion description\n    /// @param _source Original sender from divide land\n    function register(uint256 _landId, string calldata _description, address _source) external {\n        portionsByLand[_landId].push(lastPortionId);\n        portionTerms[lastPortionId].owner = _source;\n        portionsByOwner[_source].push(lastPortionId);        \n        buyersByPortions[lastPortionId].push(_source);\n\n        this.register(_landId, _description);\n    }\n\n    /// @param _id Portion ID\n    /// @param _document Document name\n    /// @param _base64 Base64 document\n    function registerDocument(uint256 _id, bytes32 _document, string calldata _base64) external onlyOwner(_id) {\n        portions[_id].documents.push(_document);\n        portions[_id].hashIds.push(dataStorage.add(_base64));\n    }\n    \n    /// @param _portionId ID of portion related\n    /// @param _price Contract price\n    /// @param _duration Contract duration\n    /// @param _expectedProduction Production expected from the portion\n    /// @param _periodicity Production periodicity\n    /// @param _expectedMaintenanceCost Costs expected for maintenance\n    /// @param _expectedProdActivityCost Costs expected for production-related activities \n    function defineTerms(\n        uint256 _portionId,\n        uint256 _price,\n        uint256 _duration,\n        string calldata _expectedProduction,\n        string calldata _periodicity,\n        uint256 _expectedMaintenanceCost,\n        uint256 _expectedProdActivityCost\n    ) external onlyOwner(_portionId) {\n        portionTerms[_portionId].price = _price;\n        portionTerms[_portionId].duration = _duration;\n        portionTerms[_portionId].expectedProduction = _expectedProduction;\n        portionTerms[_portionId].periodicity = _periodicity;\n        portionTerms[_portionId].expectedMaintenanceCost = _expectedMaintenanceCost;\n        portionTerms[_portionId].expectedProdActivityCost = _expectedProdActivityCost;\n    }\n    \n    /// @notice Sell and transfer ownership\n    /// @param _id Portion ID\n    /// @param _buyer New buyer\n    function sell(uint256 _id, address _buyer) external onlyOwnerAndBuyer(_id) {\n        portionTerms[_id].buyer = _buyer;\n        portionsByBuyer[_buyer].push(_id);\n        \n        buyersByPortions[_id].push(_buyer);\n    }\n    \n    /// @param _id Portion ID\n    function ownershipExpiration(uint256 _id) external {\n        if (!portions[_id].hasValue) revert('Element does not exist');\n        if (portionTerms[_id].duration == 0 || now < portionTerms[_id].duration) revert('Owneship expiration not allowed');\n        portionTerms[_id].buyer = address(0);\n    }\n    \n    /// @param _id Portion ID\n    /// return the tuple containing the data related to the portion and its terms of sale\n    function getById(uint256 _id) external view returns (Data memory, TermsOfSale memory) {\n        return (portions[_id], portionTerms[_id]);\n    }\n\n    /// @param _land Land ID\n    /// return the array containing all the portions in a land\n    function getByLand(uint256 _land) external view returns (uint256[] memory) {\n        return (portionsByLand[_land]);\n    }\n    \n    /// @param _owner Owner address\n    /// @return the array containing all the portions owned\n    function getByOwner(address _owner) external view returns (uint256[] memory) {\n        return portionsByOwner[_owner];\n    }\n\n    /// @param _buyer Buyer address\n    /// @return the array containing all the portions bought\n    function getByBuyer(address _buyer) external view returns (uint256[] memory) {\n        return portionsByBuyer[_buyer];\n    }\n    \n    /// @param _id Portion ID\n    /// @return the array containing all the buyers for that portion\n    function getBuyersByPortion(uint256 _id) external view returns (address[] memory) {\n        return buyersByPortions[_id];\n    }\n    \n    /// @return the number of registered portions\n    function getTotal() external view returns (uint256) {\n        return lastPortionId;\n    }\n    \n    /// @param _description Product description\n    /// @param _id Portion ID for registering the product\n    /// @param _contractAddress Product contract address\n    function registerProduct(string calldata _description, uint256 _id, address _contractAddress) external {\n        if (!portions[_id].hasValue) revert('Element does not exist');\n        Product(_contractAddress).register(_description, _id, msg.sender);\n    }\n    \n    /// @param _description Production description\n    /// @param _id Portion ID for registering the production\n    /// @param _contractAddress Production contract address\n    function registerProductionActivity(string calldata _description, uint256 _id, address _contractAddress) external {\n        if (!portions[_id].hasValue) revert('Element does not exist');\n        ProductionActivity(_contractAddress).register(_description, _id, msg.sender);\n    }\n    \n    /// @param _description Maintenance description\n    /// @param _id Portion ID for registering the maintenance\n    /// @param _contractAddress Maintenance contract address\n    function registerMaintenance(string calldata _description, uint256 _id, address _contractAddress) external {\n        if (!portions[_id].hasValue) revert('Element does not exist');\n        Maintenance(_contractAddress).register(_description, _id, msg.sender);\n    }\n    \n}\n",
  "sourcePath": "/home/francesca/WebstormProjects/APT/contracts/Portion.sol",
  "compiler": {
    "name": "solc",
    "version": "0.6.12+commit.27d51765.Emscripten.clang"
  },
  "schemaVersion": "3.2.5",
  "updatedAt": "2020-10-18T12:08:15.087Z",
  "networkType": "ethereum",
  "devdoc": {
    "kind": "dev",
    "methods": {
      "constructor": {
        "params": {
          "_dataStorage": "Storage contract address"
        }
      },
      "defineTerms(uint256,uint256,uint256,string,string,uint256,uint256)": {
        "params": {
          "_duration": "Contract duration",
          "_expectedMaintenanceCost": "Costs expected for maintenance",
          "_expectedProdActivityCost": "Costs expected for production-related activities ",
          "_expectedProduction": "Production expected from the portion",
          "_periodicity": "Production periodicity",
          "_portionId": "ID of portion related",
          "_price": "Contract price"
        }
      },
      "getBuyersByPortion(uint256)": {
        "params": {
          "_id": "Portion ID"
        },
        "returns": {
          "_0": "the array containing all the buyers for that portion"
        }
      },
      "getByBuyer(address)": {
        "params": {
          "_buyer": "Buyer address"
        },
        "returns": {
          "_0": "the array containing all the portions bought"
        }
      },
      "getById(uint256)": {
        "params": {
          "_id": "Portion ID return the tuple containing the data related to the portion and its terms of sale"
        }
      },
      "getByLand(uint256)": {
        "params": {
          "_land": "Land ID return the array containing all the portions in a land"
        }
      },
      "getByOwner(address)": {
        "params": {
          "_owner": "Owner address"
        },
        "returns": {
          "_0": "the array containing all the portions owned"
        }
      },
      "getTotal()": {
        "returns": {
          "_0": "the number of registered portions"
        }
      },
      "ownershipExpiration(uint256)": {
        "params": {
          "_id": "Portion ID"
        }
      },
      "register(uint256,string)": {
        "params": {
          "_description": "Portion description",
          "_landId": "Land to be divided"
        }
      },
      "register(uint256,string,address)": {
        "params": {
          "_description": "Portion description",
          "_landId": "Land to be divided",
          "_source": "Original sender from divide land"
        }
      },
      "registerDocument(uint256,bytes32,string)": {
        "params": {
          "_base64": "Base64 document",
          "_document": "Document name",
          "_id": "Portion ID"
        }
      },
      "registerMaintenance(string,uint256,address)": {
        "params": {
          "_contractAddress": "Maintenance contract address",
          "_description": "Maintenance description",
          "_id": "Portion ID for registering the maintenance"
        }
      },
      "registerProduct(string,uint256,address)": {
        "params": {
          "_contractAddress": "Product contract address",
          "_description": "Product description",
          "_id": "Portion ID for registering the product"
        }
      },
      "registerProductionActivity(string,uint256,address)": {
        "params": {
          "_contractAddress": "Production contract address",
          "_description": "Production description",
          "_id": "Portion ID for registering the production"
        }
      },
      "sell(uint256,address)": {
        "params": {
          "_buyer": "New buyer",
          "_id": "Portion ID"
        }
      }
    },
    "stateVariables": {
      "buyersByPortions": {
        "details": "Buyers grouped by portion"
      },
      "dataStorage": {
        "details": "Storage contract instance"
      },
      "lastPortionId": {
        "details": "Portion counter"
      },
      "portionTerms": {
        "details": "All the portion terms"
      },
      "portions": {
        "details": "All the portions"
      },
      "portionsByBuyer": {
        "details": "Portions grouped by buyer's address"
      },
      "portionsByLand": {
        "details": "Portions grouped by land"
      },
      "portionsByOwner": {
        "details": "Portions grouped by owner's address"
      }
    },
    "title": "Contract representing a portion of land",
    "version": 1
  },
  "userdoc": {
    "kind": "user",
    "methods": {
      "sell(uint256,address)": {
        "notice": "Sell and transfer ownership"
      }
    },
    "version": 1
  }
}