{
  "contractName": "Portion",
  "abi": [
    {
      "inputs": [
        {
          "internalType": "address",
          "name": "_dataStorage",
          "type": "address"
        }
      ],
      "stateMutability": "nonpayable",
      "type": "constructor"
    },
    {
      "inputs": [
        {
          "internalType": "uint256",
          "name": "_landId",
          "type": "uint256"
        },
        {
          "internalType": "string",
          "name": "_description",
          "type": "string"
        },
        {
          "internalType": "string",
          "name": "_documents",
          "type": "string"
        },
        {
          "internalType": "string",
          "name": "_base64",
          "type": "string"
        },
        {
          "internalType": "address",
          "name": "_source",
          "type": "address"
        }
      ],
      "name": "register",
      "outputs": [],
      "stateMutability": "nonpayable",
      "type": "function"
    },
    {
      "inputs": [
        {
          "internalType": "uint256",
          "name": "_landId",
          "type": "uint256"
        },
        {
          "internalType": "string",
          "name": "_description",
          "type": "string"
        },
        {
          "internalType": "string",
          "name": "_documents",
          "type": "string"
        },
        {
          "internalType": "string",
          "name": "_base64",
          "type": "string"
        }
      ],
      "name": "register",
      "outputs": [],
      "stateMutability": "nonpayable",
      "type": "function"
    },
    {
      "inputs": [
        {
          "internalType": "uint256",
          "name": "_portionId",
          "type": "uint256"
        },
        {
          "internalType": "uint256",
          "name": "_price",
          "type": "uint256"
        },
        {
          "internalType": "uint256",
          "name": "_duration",
          "type": "uint256"
        },
        {
          "internalType": "string",
          "name": "_expectedProduction",
          "type": "string"
        },
        {
          "internalType": "string",
          "name": "_periodicity",
          "type": "string"
        },
        {
          "internalType": "uint256",
          "name": "_expectedMaintenanceCost",
          "type": "uint256"
        },
        {
          "internalType": "uint256",
          "name": "_expectedProdActivityCost",
          "type": "uint256"
        }
      ],
      "name": "defineTerms",
      "outputs": [],
      "stateMutability": "nonpayable",
      "type": "function"
    },
    {
      "inputs": [
        {
          "internalType": "uint256",
          "name": "_id",
          "type": "uint256"
        },
        {
          "internalType": "address",
          "name": "_buyer",
          "type": "address"
        }
      ],
      "name": "sell",
      "outputs": [],
      "stateMutability": "nonpayable",
      "type": "function"
    },
    {
      "inputs": [
        {
          "internalType": "uint256",
          "name": "_id",
          "type": "uint256"
        }
      ],
      "name": "ownershipExpiration",
      "outputs": [],
      "stateMutability": "nonpayable",
      "type": "function"
    },
    {
      "inputs": [
        {
          "internalType": "uint256",
          "name": "_id",
          "type": "uint256"
        }
      ],
      "name": "getById",
      "outputs": [
        {
          "components": [
            {
              "internalType": "uint256",
              "name": "land",
              "type": "uint256"
            },
            {
              "internalType": "string",
              "name": "description",
              "type": "string"
            },
            {
              "internalType": "string",
              "name": "documents",
              "type": "string"
            },
            {
              "internalType": "uint256",
              "name": "hashId",
              "type": "uint256"
            },
            {
              "internalType": "bool",
              "name": "hasValue",
              "type": "bool"
            }
          ],
          "internalType": "struct Portion.Data",
          "name": "",
          "type": "tuple"
        },
        {
          "components": [
            {
              "internalType": "uint256",
              "name": "price",
              "type": "uint256"
            },
            {
              "internalType": "uint256",
              "name": "duration",
              "type": "uint256"
            },
            {
              "internalType": "string",
              "name": "expectedProduction",
              "type": "string"
            },
            {
              "internalType": "string",
              "name": "periodicity",
              "type": "string"
            },
            {
              "internalType": "uint256",
              "name": "expectedMaintenanceCost",
              "type": "uint256"
            },
            {
              "internalType": "uint256",
              "name": "expectedProdActivityCost",
              "type": "uint256"
            },
            {
              "internalType": "address",
              "name": "owner",
              "type": "address"
            },
            {
              "internalType": "address",
              "name": "buyer",
              "type": "address"
            }
          ],
          "internalType": "struct Portion.TermsOfSale",
          "name": "",
          "type": "tuple"
        }
      ],
      "stateMutability": "view",
      "type": "function",
      "constant": true
    },
    {
      "inputs": [
        {
          "internalType": "address",
          "name": "_owner",
          "type": "address"
        }
      ],
      "name": "getByOwner",
      "outputs": [
        {
          "internalType": "uint256[]",
          "name": "",
          "type": "uint256[]"
        }
      ],
      "stateMutability": "view",
      "type": "function",
      "constant": true
    },
    {
      "inputs": [
        {
          "internalType": "address",
          "name": "_buyer",
          "type": "address"
        }
      ],
      "name": "getByBuyer",
      "outputs": [
        {
          "internalType": "uint256[]",
          "name": "",
          "type": "uint256[]"
        }
      ],
      "stateMutability": "view",
      "type": "function",
      "constant": true
    },
    {
      "inputs": [
        {
          "internalType": "uint256",
          "name": "_id",
          "type": "uint256"
        }
      ],
      "name": "getBuyersByPortion",
      "outputs": [
        {
          "internalType": "address[]",
          "name": "",
          "type": "address[]"
        }
      ],
      "stateMutability": "view",
      "type": "function",
      "constant": true
    },
    {
      "inputs": [],
      "name": "getTotal",
      "outputs": [
        {
          "internalType": "uint256",
          "name": "",
          "type": "uint256"
        }
      ],
      "stateMutability": "view",
      "type": "function",
      "constant": true
    },
    {
      "inputs": [
        {
          "internalType": "string",
          "name": "_description",
          "type": "string"
        },
        {
          "internalType": "uint256",
          "name": "_id",
          "type": "uint256"
        },
        {
          "internalType": "address",
          "name": "_contractAddress",
          "type": "address"
        }
      ],
      "name": "registerProduct",
      "outputs": [],
      "stateMutability": "nonpayable",
      "type": "function"
    },
    {
      "inputs": [
        {
          "internalType": "string",
          "name": "_description",
          "type": "string"
        },
        {
          "internalType": "uint256",
          "name": "_id",
          "type": "uint256"
        },
        {
          "internalType": "address",
          "name": "_contractAddress",
          "type": "address"
        }
      ],
      "name": "registerProductionActivity",
      "outputs": [],
      "stateMutability": "nonpayable",
      "type": "function"
    },
    {
      "inputs": [
        {
          "internalType": "string",
          "name": "_description",
          "type": "string"
        },
        {
          "internalType": "uint256",
          "name": "_id",
          "type": "uint256"
        },
        {
          "internalType": "address",
          "name": "_contractAddress",
          "type": "address"
        }
      ],
      "name": "registerMaintenance",
      "outputs": [],
      "stateMutability": "nonpayable",
      "type": "function"
    }
  ],
  "bytecode": "0x60806040523480156200001157600080fd5b50604051620020da380380620020da833981810160405281019062000037919062000096565b80600660006101000a81548173ffffffffffffffffffffffffffffffffffffffff021916908373ffffffffffffffffffffffffffffffffffffffff1602179055505062000110565b6000815190506200009081620000f6565b92915050565b600060208284031215620000a957600080fd5b6000620000b9848285016200007f565b91505092915050565b6000620000cf82620000d6565b9050919050565b600073ffffffffffffffffffffffffffffffffffffffff82169050919050565b6200010181620000c2565b81146200010d57600080fd5b50565b611fba80620001206000396000f3fe608060405234801561001057600080fd5b50600436106100cf5760003560e01c8063682563c31161008c5780639a654c34116100665780639a654c34146101fa578063eaca6fa614610216578063f4f4d23714610232578063fa5f955914610263576100cf565b8063682563c3146101a45780637681365e146101c0578063775a25e3146101dc576100cf565b806322be8da1146100d45780633681894214610104578063379c5131146101205780633d59a0e2146101505780634189a68e1461016c5780635a67fff114610188575b600080fd5b6100ee60048036038101906100e991906114bd565b610293565b6040516100fb9190611c2e565b60405180910390f35b61011e60048036038101906101199190611765565b61032a565b005b61013a600480360381019061013591906114bd565b610493565b6040516101479190611c2e565b60405180910390f35b61016a600480360381019061016591906115e0565b61052a565b005b610186600480360381019061018191906115a4565b6106a9565b005b6101a2600480360381019061019d91906114e6565b6108ee565b005b6101be60048036038101906101b991906114e6565b6109c7565b005b6101da60048036038101906101d59190611552565b610aa0565b005b6101e4610bd5565b6040516101f19190611d6b565b60405180910390f35b610214600480360381019061020f91906114e6565b610bdf565b005b610230600480360381019061022b9190611699565b610cb8565b005b61024c60048036038101906102479190611552565b610e6e565b60405161025a929190611d34565b60405180910390f35b61027d60048036038101906102789190611552565b611254565b60405161028a9190611c0c565b60405180910390f35b6060600260008373ffffffffffffffffffffffffffffffffffffffff1673ffffffffffffffffffffffffffffffffffffffff16815260200190815260200160002080548060200260200160405190810160405280929190818152602001828054801561031e57602002820191906000526020600020905b81548152602001906001019080831161030a575b50505050509050919050565b883373ffffffffffffffffffffffffffffffffffffffff166003600083815260200190815260200160002060060160009054906101000a900473ffffffffffffffffffffffffffffffffffffffff1673ffffffffffffffffffffffffffffffffffffffff16146103cf576040517f08c379a00000000000000000000000000000000000000000000000000000000081526004016103c690611cf4565b60405180910390fd5b88600360008c81526020019081526020016000206000018190555087600360008c8152602001908152602001600020600101819055508686600360008d8152602001908152602001600020600201919061042a9291906112f5565b508484600360008d815260200190815260200160002060030191906104509291906112f5565b5082600360008c81526020019081526020016000206004018190555081600360008c81526020019081526020016000206005018190555050505050505050505050565b6060600160008373ffffffffffffffffffffffffffffffffffffffff1673ffffffffffffffffffffffffffffffffffffffff16815260200190815260200160002080548060200260200160405190810160405280929190818152602001828054801561051e57602002820191906000526020600020905b81548152602001906001019080831161050a575b50505050509050919050565b8585600080600554815260200190815260200160002060010191906105509291906112f5565b508383600080600554815260200190815260200160002060020191906105779291906112f5565b5086600080600554815260200190815260200160002060000181905550600660009054906101000a900473ffffffffffffffffffffffffffffffffffffffff1673ffffffffffffffffffffffffffffffffffffffff1663b0c8f9dc83836040518363ffffffff1660e01b81526004016105f1929190611c50565b602060405180830381600087803b15801561060b57600080fd5b505af115801561061f573d6000803e3d6000fd5b505050506040513d601f19601f82011682018060405250810190610643919061157b565b6000806005548152602001908152602001600020600301819055506001600080600554815260200190815260200160002060040160006101000a81548160ff02191690831515021790555060056000815480929190600101919050555050505050505050565b813373ffffffffffffffffffffffffffffffffffffffff166003600083815260200190815260200160002060060160009054906101000a900473ffffffffffffffffffffffffffffffffffffffff1673ffffffffffffffffffffffffffffffffffffffff16148061077b57503373ffffffffffffffffffffffffffffffffffffffff166003600083815260200190815260200160002060070160009054906101000a900473ffffffffffffffffffffffffffffffffffffffff1673ffffffffffffffffffffffffffffffffffffffff16145b6107ba576040517f08c379a00000000000000000000000000000000000000000000000000000000081526004016107b190611cd4565b60405180910390fd5b816003600085815260200190815260200160002060070160006101000a81548173ffffffffffffffffffffffffffffffffffffffff021916908373ffffffffffffffffffffffffffffffffffffffff160217905550600260008373ffffffffffffffffffffffffffffffffffffffff1673ffffffffffffffffffffffffffffffffffffffff16815260200190815260200160002083908060018154018082558091505060019003906000526020600020016000909190919091505560046000848152602001908152602001600020829080600181540180825580915050600190039060005260206000200160009091909190916101000a81548173ffffffffffffffffffffffffffffffffffffffff021916908373ffffffffffffffffffffffffffffffffffffffff160217905550505050565b60008083815260200190815260200160002060040160009054906101000a900460ff16610950576040517f08c379a000000000000000000000000000000000000000000000000000000000815260040161094790611d14565b60405180910390fd5b8073ffffffffffffffffffffffffffffffffffffffff16635dc1aad3858585336040518563ffffffff1660e01b815260040161098f9493929190611c74565b600060405180830381600087803b1580156109a957600080fd5b505af11580156109bd573d6000803e3d6000fd5b5050505050505050565b60008083815260200190815260200160002060040160009054906101000a900460ff16610a29576040517f08c379a0000000000000000000000000000000000000000000000000000000008152600401610a2090611d14565b60405180910390fd5b8073ffffffffffffffffffffffffffffffffffffffff16635dc1aad3858585336040518563ffffffff1660e01b8152600401610a689493929190611c74565b600060405180830381600087803b158015610a8257600080fd5b505af1158015610a96573d6000803e3d6000fd5b5050505050505050565b60008082815260200190815260200160002060040160009054906101000a900460ff16610b02576040517f08c379a0000000000000000000000000000000000000000000000000000000008152600401610af990611d14565b60405180910390fd5b600060036000838152602001908152602001600020600101541480610b3c5750600360008281526020019081526020016000206001015442105b15610b7c576040517f08c379a0000000000000000000000000000000000000000000000000000000008152600401610b7390611cb4565b60405180910390fd5b60006003600083815260200190815260200160002060070160006101000a81548173ffffffffffffffffffffffffffffffffffffffff021916908373ffffffffffffffffffffffffffffffffffffffff16021790555050565b6000600554905090565b60008083815260200190815260200160002060040160009054906101000a900460ff16610c41576040517f08c379a0000000000000000000000000000000000000000000000000000000008152600401610c3890611d14565b60405180910390fd5b8073ffffffffffffffffffffffffffffffffffffffff16635dc1aad3858585336040518563ffffffff1660e01b8152600401610c809493929190611c74565b600060405180830381600087803b158015610c9a57600080fd5b505af1158015610cae573d6000803e3d6000fd5b5050505050505050565b8060036000600554815260200190815260200160002060060160006101000a81548173ffffffffffffffffffffffffffffffffffffffff021916908373ffffffffffffffffffffffffffffffffffffffff160217905550600160008273ffffffffffffffffffffffffffffffffffffffff1673ffffffffffffffffffffffffffffffffffffffff1681526020019081526020016000206005549080600181540180825580915050600190039060005260206000200160009091909190915055600460006005548152602001908152602001600020819080600181540180825580915050600190039060005260206000200160009091909190916101000a81548173ffffffffffffffffffffffffffffffffffffffff021916908373ffffffffffffffffffffffffffffffffffffffff1602179055503073ffffffffffffffffffffffffffffffffffffffff16633d59a0e2898989898989896040518863ffffffff1660e01b8152600401610e329796959493929190611d86565b600060405180830381600087803b158015610e4c57600080fd5b505af1158015610e60573d6000803e3d6000fd5b505050505050505050505050565b610e76611375565b610e7e6113a6565b60008084815260200190815260200160002060036000858152602001908152602001600020816040518060a001604052908160008201548152602001600182018054600181600116156101000203166002900480601f016020809104026020016040519081016040528092919081815260200182805460018160011615610100020316600290048015610f525780601f10610f2757610100808354040283529160200191610f52565b820191906000526020600020905b815481529060010190602001808311610f3557829003601f168201915b50505050508152602001600282018054600181600116156101000203166002900480601f016020809104026020016040519081016040528092919081815260200182805460018160011615610100020316600290048015610ff45780601f10610fc957610100808354040283529160200191610ff4565b820191906000526020600020905b815481529060010190602001808311610fd757829003601f168201915b50505050508152602001600382015481526020016004820160009054906101000a900460ff161515151581525050915080604051806101000160405290816000820154815260200160018201548152602001600282018054600181600116156101000203166002900480601f0160208091040260200160405190810160405280929190818152602001828054600181600116156101000203166002900480156110de5780601f106110b3576101008083540402835291602001916110de565b820191906000526020600020905b8154815290600101906020018083116110c157829003601f168201915b50505050508152602001600382018054600181600116156101000203166002900480601f0160208091040260200160405190810160405280929190818152602001828054600181600116156101000203166002900480156111805780601f1061115557610100808354040283529160200191611180565b820191906000526020600020905b81548152906001019060200180831161116357829003601f168201915b5050505050815260200160048201548152602001600582015481526020016006820160009054906101000a900473ffffffffffffffffffffffffffffffffffffffff1673ffffffffffffffffffffffffffffffffffffffff1673ffffffffffffffffffffffffffffffffffffffff1681526020016007820160009054906101000a900473ffffffffffffffffffffffffffffffffffffffff1673ffffffffffffffffffffffffffffffffffffffff1673ffffffffffffffffffffffffffffffffffffffff1681525050905091509150915091565b6060600460008381526020019081526020016000208054806020026020016040519081016040528092919081815260200182805480156112e957602002820191906000526020600020905b8160009054906101000a900473ffffffffffffffffffffffffffffffffffffffff1673ffffffffffffffffffffffffffffffffffffffff168152602001906001019080831161129f575b50505050509050919050565b828054600181600116156101000203166002900490600052602060002090601f016020900481019282601f1061133657803560ff1916838001178555611364565b82800160010185558215611364579182015b82811115611363578235825591602001919060010190611348565b5b5090506113719190611417565b5090565b6040518060a00160405280600081526020016060815260200160608152602001600081526020016000151581525090565b604051806101000160405280600081526020016000815260200160608152602001606081526020016000815260200160008152602001600073ffffffffffffffffffffffffffffffffffffffff168152602001600073ffffffffffffffffffffffffffffffffffffffff1681525090565b5b80821115611430576000816000905550600101611418565b5090565b60008135905061144381611f56565b92915050565b60008083601f84011261145b57600080fd5b8235905067ffffffffffffffff81111561147457600080fd5b60208301915083600182028301111561148c57600080fd5b9250929050565b6000813590506114a281611f6d565b92915050565b6000815190506114b781611f6d565b92915050565b6000602082840312156114cf57600080fd5b60006114dd84828501611434565b91505092915050565b600080600080606085870312156114fc57600080fd5b600085013567ffffffffffffffff81111561151657600080fd5b61152287828801611449565b9450945050602061153587828801611493565b925050604061154687828801611434565b91505092959194509250565b60006020828403121561156457600080fd5b600061157284828501611493565b91505092915050565b60006020828403121561158d57600080fd5b600061159b848285016114a8565b91505092915050565b600080604083850312156115b757600080fd5b60006115c585828601611493565b92505060206115d685828601611434565b9150509250929050565b60008060008060008060006080888a0312156115fb57600080fd5b60006116098a828b01611493565b975050602088013567ffffffffffffffff81111561162657600080fd5b6116328a828b01611449565b9650965050604088013567ffffffffffffffff81111561165157600080fd5b61165d8a828b01611449565b9450945050606088013567ffffffffffffffff81111561167c57600080fd5b6116888a828b01611449565b925092505092959891949750929550565b60008060008060008060008060a0898b0312156116b557600080fd5b60006116c38b828c01611493565b985050602089013567ffffffffffffffff8111156116e057600080fd5b6116ec8b828c01611449565b9750975050604089013567ffffffffffffffff81111561170b57600080fd5b6117178b828c01611449565b9550955050606089013567ffffffffffffffff81111561173657600080fd5b6117428b828c01611449565b935093505060806117558b828c01611434565b9150509295985092959890939650565b600080600080600080600080600060e08a8c03121561178357600080fd5b60006117918c828d01611493565b99505060206117a28c828d01611493565b98505060406117b38c828d01611493565b97505060608a013567ffffffffffffffff8111156117d057600080fd5b6117dc8c828d01611449565b965096505060808a013567ffffffffffffffff8111156117fb57600080fd5b6118078c828d01611449565b945094505060a061181a8c828d01611493565b92505060c061182b8c828d01611493565b9150509295985092959850929598565b6000611847838361187a565b60208301905092915050565b600061185f8383611bee565b60208301905092915050565b61187481611ecd565b82525050565b61188381611e85565b82525050565b600061189482611e06565b61189e8185611e41565b93506118a983611de6565b8060005b838110156118da5781516118c1888261183b565b97506118cc83611e27565b9250506001810190506118ad565b5085935050505092915050565b60006118f282611e11565b6118fc8185611e52565b935061190783611df6565b8060005b8381101561193857815161191f8882611853565b975061192a83611e34565b92505060018101905061190b565b5085935050505092915050565b61194e81611e97565b82525050565b60006119608385611e74565b935061196d838584611f03565b61197683611f45565b840190509392505050565b600061198c82611e1c565b6119968185611e63565b93506119a6818560208601611f12565b6119af81611f45565b840191505092915050565b60006119c7601f83611e74565b91507f4f776e65736869702065787069726174696f6e206e6f7420616c6c6f776564006000830152602082019050919050565b6000611a07601f83611e74565b91507f4f6e6c79206f776e6572206f722062757965722061726520616c6c6f776564006000830152602082019050919050565b6000611a47601583611e74565b91507f4f6e6c79206f776e657220697320616c6c6f77656400000000000000000000006000830152602082019050919050565b6000611a87601683611e74565b91507f456c656d656e7420646f6573206e6f74206578697374000000000000000000006000830152602082019050919050565b600060a083016000830151611ad26000860182611bee565b5060208301518482036020860152611aea8282611981565b91505060408301518482036040860152611b048282611981565b9150506060830151611b196060860182611bee565b506080830151611b2c6080860182611945565b508091505092915050565b600061010083016000830151611b506000860182611bee565b506020830151611b636020860182611bee565b5060408301518482036040860152611b7b8282611981565b91505060608301518482036060860152611b958282611981565b9150506080830151611baa6080860182611bee565b5060a0830151611bbd60a0860182611bee565b5060c0830151611bd060c086018261187a565b5060e0830151611be360e086018261187a565b508091505092915050565b611bf781611ec3565b82525050565b611c0681611ec3565b82525050565b60006020820190508181036000830152611c268184611889565b905092915050565b60006020820190508181036000830152611c4881846118e7565b905092915050565b60006020820190508181036000830152611c6b818486611954565b90509392505050565b60006060820190508181036000830152611c8f818688611954565b9050611c9e6020830185611bfd565b611cab604083018461186b565b95945050505050565b60006020820190508181036000830152611ccd816119ba565b9050919050565b60006020820190508181036000830152611ced816119fa565b9050919050565b60006020820190508181036000830152611d0d81611a3a565b9050919050565b60006020820190508181036000830152611d2d81611a7a565b9050919050565b60006040820190508181036000830152611d4e8185611aba565b90508181036020830152611d628184611b37565b90509392505050565b6000602082019050611d806000830184611bfd565b92915050565b6000608082019050611d9b600083018a611bfd565b8181036020830152611dae81888a611954565b90508181036040830152611dc3818688611954565b90508181036060830152611dd8818486611954565b905098975050505050505050565b6000819050602082019050919050565b6000819050602082019050919050565b600081519050919050565b600081519050919050565b600081519050919050565b6000602082019050919050565b6000602082019050919050565b600082825260208201905092915050565b600082825260208201905092915050565b600082825260208201905092915050565b600082825260208201905092915050565b6000611e9082611ea3565b9050919050565b60008115159050919050565b600073ffffffffffffffffffffffffffffffffffffffff82169050919050565b6000819050919050565b6000611ed882611edf565b9050919050565b6000611eea82611ef1565b9050919050565b6000611efc82611ea3565b9050919050565b82818337600083830152505050565b60005b83811015611f30578082015181840152602081019050611f15565b83811115611f3f576000848401525b50505050565b6000601f19601f8301169050919050565b611f5f81611e85565b8114611f6a57600080fd5b50565b611f7681611ec3565b8114611f8157600080fd5b5056fea2646970667358221220dd0a4e64316c3de8799f96b4deedfbdc19e658fc16fcd8bf9b094081c770afc964736f6c634300060c0033",
  "immutableReferences": {},
  "source": "// SPDX-License-Identifier: MIT\n\npragma solidity ^0.6.0;\npragma experimental ABIEncoderV2;\n\n//import '../../OpenZeppelin/openzeppelin-contracts/contracts/math/SafeMath.sol';\nimport '@openzeppelin/contracts/math/SafeMath.sol';\n\nimport './Storage.sol';\nimport './Product.sol';\nimport './Maintenance.sol';\nimport './ProductionActivity.sol';\n\n/// @title Contract representing a portion of land\ncontract Portion {\n    using SafeMath for uint256;\n    \n    /// @dev Portion data\n    struct Data {\n        uint256 land;\n        string description;\n        string documents;\n        uint256 hashId;\n        bool hasValue;\n    }\n    \n    /// @notice Duration parameter can be perpetual (0) or for n years\n    struct TermsOfSale {\n        uint256 price;\n        uint256 duration;\n        string expectedProduction;\n        string periodicity;\n        uint256 expectedMaintenanceCost;\n        uint256 expectedProdActivityCost;\n        address owner;\n        address buyer;\n    }\n    \n    /// @dev All the portions\n    mapping (uint256 => Data) private portions;\n    /// @dev Portions grouped by owner's address\n    mapping (address => uint256[]) private portionsByOwner;\n    /// @dev Portions grouped by buyer's address\n    mapping (address => uint256[]) private portionsByBuyer;\n    /// @dev All the portion terms\n    mapping (uint256 => TermsOfSale) private portionTerms;\n    /// @dev Buyers grouped by portion\n    mapping (uint256 => address[]) buyersByPortions;\n    \n    /// @dev Portion counter\n    uint256 private lastPortionId;\n    \n    /// @dev Storage contract instance\n    Storage private dataStorage;\n    \n    /// @param _dataStorage Storage contract address\n    constructor (address _dataStorage) public  {\n        dataStorage = Storage(_dataStorage);\n    }\n    \n    /// @dev Portion terms can be defined only by the portion owner\n    modifier onlyOwner(uint256 _portionId) {\n        require(portionTerms[_portionId].owner == msg.sender, 'Only owner is allowed');\n        _;\n    }\n    \n    /// @dev Selling or transferring ownership can be performed only by owner or buyer\n    modifier onlyOwnerAndBuyer(uint256 _portionId) {\n        require(portionTerms[_portionId].owner == msg.sender || portionTerms[_portionId].buyer == msg.sender, 'Only owner or buyer are allowed');\n        _;\n    }\n    \n    /// @param _landId Land to be divided\n    /// @param _description Portion description\n    /// @param _documents Link of documents related to the portion\n    /// @param _base64 Base64 encoded documents\n    function register(uint256 _landId, string calldata _description, string calldata _documents, string calldata _base64) external {\n        portions[lastPortionId].description = _description;\n        portions[lastPortionId].documents = _documents;\n        portions[lastPortionId].land = _landId;\n        \n        portions[lastPortionId].hashId = dataStorage.add(_base64);\n        portions[lastPortionId].hasValue = true;\n        \n        lastPortionId++;\n    }\n\n    /// @param _landId Land to be divided\n    /// @param _description Portion description\n    /// @param _documents Link of documents related to the portion\n    /// @param _base64 Base64 encoded documents\n    /// @param _source Original sender from divide land\n    function register(uint256 _landId, string calldata _description, string calldata _documents, string calldata _base64, address _source) external {\n        portionTerms[lastPortionId].owner = _source;\n        portionsByOwner[_source].push(lastPortionId);        \n        buyersByPortions[lastPortionId].push(_source);\n\n        this.register(_landId, _description, _documents, _base64);\n    }\n    \n    /// @param _portionId ID of portion related\n    /// @param _price Contract price\n    /// @param _duration Contract duration\n    /// @param _expectedProduction Production expected from the portion\n    /// @param _periodicity Production periodicity\n    /// @param _expectedMaintenanceCost Costs expected for maintenance\n    /// @param _expectedProdActivityCost Costs expected for production-related activities \n    function defineTerms(\n        uint256 _portionId,\n        uint256 _price,\n        uint256 _duration,\n        string calldata _expectedProduction,\n        string calldata _periodicity,\n        uint256 _expectedMaintenanceCost,\n        uint256 _expectedProdActivityCost\n    ) external onlyOwner(_portionId) {\n        portionTerms[_portionId].price = _price;\n        portionTerms[_portionId].duration = _duration;\n        portionTerms[_portionId].expectedProduction = _expectedProduction;\n        portionTerms[_portionId].periodicity = _periodicity;\n        portionTerms[_portionId].expectedMaintenanceCost = _expectedMaintenanceCost;\n        portionTerms[_portionId].expectedProdActivityCost = _expectedProdActivityCost;\n    }\n    \n    /// @notice Sell and transfer ownership\n    /// @param _id Portion ID\n    /// @param _buyer New buyer\n    function sell(uint256 _id, address _buyer) external onlyOwnerAndBuyer(_id) {\n        portionTerms[_id].buyer = _buyer;\n        portionsByBuyer[_buyer].push(_id);\n        \n        buyersByPortions[_id].push(_buyer);\n    }\n    \n    /// @param _id Portion ID\n    function ownershipExpiration(uint256 _id) external {\n        if (!portions[_id].hasValue) revert('Element does not exist');\n        if (portionTerms[_id].duration == 0 || now < portionTerms[_id].duration) revert('Owneship expiration not allowed');\n        portionTerms[_id].buyer = address(0);\n    }\n    \n    /// @param _id Portion ID\n    /// return the tuple containing the data related to the portion and its terms of sale\n    function getById(uint256 _id) external view returns (Data memory, TermsOfSale memory) {\n        return (portions[_id], portionTerms[_id]);\n    }\n    \n    /// @param _owner Owner address\n    /// @return the array containing all the portions owned\n    function getByOwner(address _owner) external view returns (uint256[] memory) {\n        return portionsByOwner[_owner];\n    }\n\n    /// @param _buyer Buyer address\n    /// @return the array containing all the portions bought\n    function getByBuyer(address _buyer) external view returns (uint256[] memory) {\n        return portionsByBuyer[_buyer];\n    }\n    \n    /// @param _id Portion ID\n    /// @return the array containing all the buyers for that portion\n    function getBuyersByPortion(uint256 _id) external view returns (address[] memory) {\n        return buyersByPortions[_id];\n    }\n    \n    /// @return the number of registered portions\n    function getTotal() external view returns (uint256) {\n        return lastPortionId;\n    }\n    \n    /// @param _description Product description\n    /// @param _id Portion ID for registering the product\n    /// @param _contractAddress Product contract address\n    function registerProduct(string calldata _description, uint256 _id, address _contractAddress) external {\n        if (!portions[_id].hasValue) revert('Element does not exist');\n        Product(_contractAddress).register(_description, _id, msg.sender);\n    }\n    \n    /// @param _description Production description\n    /// @param _id Portion ID for registering the production\n    /// @param _contractAddress Production contract address\n    function registerProductionActivity(string calldata _description, uint256 _id, address _contractAddress) external {\n        if (!portions[_id].hasValue) revert('Element does not exist');\n        ProductionActivity(_contractAddress).register(_description, _id, msg.sender);\n    }\n    \n    /// @param _description Maintenance description\n    /// @param _id Portion ID for registering the maintenance\n    /// @param _contractAddress Maintenance contract address\n    function registerMaintenance(string calldata _description, uint256 _id, address _contractAddress) external {\n        if (!portions[_id].hasValue) revert('Element does not exist');\n        Maintenance(_contractAddress).register(_description, _id, msg.sender);\n    }\n    \n}\n",
  "sourcePath": "/home/francesca/WebstormProjects/APT/contracts/Portion.sol",
  "compiler": {
    "name": "solc",
    "version": "0.6.12+commit.27d51765.Emscripten.clang"
  },
  "schemaVersion": "3.2.5",
  "updatedAt": "2020-10-01T14:24:08.573Z",
  "networkType": "ethereum",
  "devdoc": {
    "kind": "dev",
    "methods": {
      "constructor": {
        "params": {
          "_dataStorage": "Storage contract address"
        }
      },
      "defineTerms(uint256,uint256,uint256,string,string,uint256,uint256)": {
        "params": {
          "_duration": "Contract duration",
          "_expectedMaintenanceCost": "Costs expected for maintenance",
          "_expectedProdActivityCost": "Costs expected for production-related activities ",
          "_expectedProduction": "Production expected from the portion",
          "_periodicity": "Production periodicity",
          "_portionId": "ID of portion related",
          "_price": "Contract price"
        }
      },
      "getBuyersByPortion(uint256)": {
        "params": {
          "_id": "Portion ID"
        },
        "returns": {
          "_0": "the array containing all the buyers for that portion"
        }
      },
      "getByBuyer(address)": {
        "params": {
          "_buyer": "Buyer address"
        },
        "returns": {
          "_0": "the array containing all the portions bought"
        }
      },
      "getById(uint256)": {
        "params": {
          "_id": "Portion ID return the tuple containing the data related to the portion and its terms of sale"
        }
      },
      "getByOwner(address)": {
        "params": {
          "_owner": "Owner address"
        },
        "returns": {
          "_0": "the array containing all the portions owned"
        }
      },
      "getTotal()": {
        "returns": {
          "_0": "the number of registered portions"
        }
      },
      "ownershipExpiration(uint256)": {
        "params": {
          "_id": "Portion ID"
        }
      },
      "register(uint256,string,string,string)": {
        "params": {
          "_base64": "Base64 encoded documents",
          "_description": "Portion description",
          "_documents": "Link of documents related to the portion",
          "_landId": "Land to be divided"
        }
      },
      "register(uint256,string,string,string,address)": {
        "params": {
          "_base64": "Base64 encoded documents",
          "_description": "Portion description",
          "_documents": "Link of documents related to the portion",
          "_landId": "Land to be divided",
          "_source": "Original sender from divide land"
        }
      },
      "registerMaintenance(string,uint256,address)": {
        "params": {
          "_contractAddress": "Maintenance contract address",
          "_description": "Maintenance description",
          "_id": "Portion ID for registering the maintenance"
        }
      },
      "registerProduct(string,uint256,address)": {
        "params": {
          "_contractAddress": "Product contract address",
          "_description": "Product description",
          "_id": "Portion ID for registering the product"
        }
      },
      "registerProductionActivity(string,uint256,address)": {
        "params": {
          "_contractAddress": "Production contract address",
          "_description": "Production description",
          "_id": "Portion ID for registering the production"
        }
      },
      "sell(uint256,address)": {
        "params": {
          "_buyer": "New buyer",
          "_id": "Portion ID"
        }
      }
    },
    "stateVariables": {
      "buyersByPortions": {
        "details": "Buyers grouped by portion"
      },
      "dataStorage": {
        "details": "Storage contract instance"
      },
      "lastPortionId": {
        "details": "Portion counter"
      },
      "portionTerms": {
        "details": "All the portion terms"
      },
      "portions": {
        "details": "All the portions"
      },
      "portionsByBuyer": {
        "details": "Portions grouped by buyer's address"
      },
      "portionsByOwner": {
        "details": "Portions grouped by owner's address"
      }
    },
    "title": "Contract representing a portion of land",
    "version": 1
  },
  "userdoc": {
    "kind": "user",
    "methods": {
      "sell(uint256,address)": {
        "notice": "Sell and transfer ownership"
      }
    },
    "version": 1
  }
}