{
  "contractName": "Portion",
  "abi": [
    {
      "inputs": [
        {
          "internalType": "address",
          "name": "_dataStorage",
          "type": "address"
        }
      ],
      "stateMutability": "nonpayable",
      "type": "constructor"
    },
    {
      "inputs": [
        {
          "internalType": "uint256",
          "name": "_landId",
          "type": "uint256"
        },
        {
          "internalType": "string",
          "name": "_description",
          "type": "string"
        },
        {
          "internalType": "bytes32",
          "name": "_documents",
          "type": "bytes32"
        },
        {
          "internalType": "string",
          "name": "_base64",
          "type": "string"
        },
        {
          "internalType": "address",
          "name": "_source",
          "type": "address"
        }
      ],
      "name": "register",
      "outputs": [],
      "stateMutability": "nonpayable",
      "type": "function"
    },
    {
      "inputs": [
        {
          "internalType": "uint256",
          "name": "_landId",
          "type": "uint256"
        },
        {
          "internalType": "string",
          "name": "_description",
          "type": "string"
        },
        {
          "internalType": "bytes32",
          "name": "_documents",
          "type": "bytes32"
        },
        {
          "internalType": "string",
          "name": "_base64",
          "type": "string"
        }
      ],
      "name": "register",
      "outputs": [],
      "stateMutability": "nonpayable",
      "type": "function"
    },
    {
      "inputs": [
        {
          "internalType": "uint256",
          "name": "_portionId",
          "type": "uint256"
        },
        {
          "internalType": "uint256",
          "name": "_price",
          "type": "uint256"
        },
        {
          "internalType": "uint256",
          "name": "_duration",
          "type": "uint256"
        },
        {
          "internalType": "string",
          "name": "_expectedProduction",
          "type": "string"
        },
        {
          "internalType": "string",
          "name": "_periodicity",
          "type": "string"
        },
        {
          "internalType": "uint256",
          "name": "_expectedMaintenanceCost",
          "type": "uint256"
        },
        {
          "internalType": "uint256",
          "name": "_expectedProdActivityCost",
          "type": "uint256"
        }
      ],
      "name": "defineTerms",
      "outputs": [],
      "stateMutability": "nonpayable",
      "type": "function"
    },
    {
      "inputs": [
        {
          "internalType": "uint256",
          "name": "_id",
          "type": "uint256"
        },
        {
          "internalType": "address",
          "name": "_buyer",
          "type": "address"
        }
      ],
      "name": "sell",
      "outputs": [],
      "stateMutability": "nonpayable",
      "type": "function"
    },
    {
      "inputs": [
        {
          "internalType": "uint256",
          "name": "_id",
          "type": "uint256"
        }
      ],
      "name": "ownershipExpiration",
      "outputs": [],
      "stateMutability": "nonpayable",
      "type": "function"
    },
    {
      "inputs": [
        {
          "internalType": "uint256",
          "name": "_id",
          "type": "uint256"
        }
      ],
      "name": "getById",
      "outputs": [
        {
          "components": [
            {
              "internalType": "uint256",
              "name": "land",
              "type": "uint256"
            },
            {
              "internalType": "string",
              "name": "description",
              "type": "string"
            },
            {
              "internalType": "bytes32",
              "name": "documents",
              "type": "bytes32"
            },
            {
              "internalType": "uint256",
              "name": "hashId",
              "type": "uint256"
            },
            {
              "internalType": "bool",
              "name": "hasValue",
              "type": "bool"
            }
          ],
          "internalType": "struct Portion.Data",
          "name": "",
          "type": "tuple"
        },
        {
          "components": [
            {
              "internalType": "uint256",
              "name": "price",
              "type": "uint256"
            },
            {
              "internalType": "uint256",
              "name": "duration",
              "type": "uint256"
            },
            {
              "internalType": "string",
              "name": "expectedProduction",
              "type": "string"
            },
            {
              "internalType": "string",
              "name": "periodicity",
              "type": "string"
            },
            {
              "internalType": "uint256",
              "name": "expectedMaintenanceCost",
              "type": "uint256"
            },
            {
              "internalType": "uint256",
              "name": "expectedProdActivityCost",
              "type": "uint256"
            },
            {
              "internalType": "address",
              "name": "owner",
              "type": "address"
            },
            {
              "internalType": "address",
              "name": "buyer",
              "type": "address"
            }
          ],
          "internalType": "struct Portion.TermsOfSale",
          "name": "",
          "type": "tuple"
        }
      ],
      "stateMutability": "view",
      "type": "function",
      "constant": true
    },
    {
      "inputs": [
        {
          "internalType": "uint256",
          "name": "_land",
          "type": "uint256"
        }
      ],
      "name": "getByLand",
      "outputs": [
        {
          "internalType": "uint256[]",
          "name": "",
          "type": "uint256[]"
        }
      ],
      "stateMutability": "view",
      "type": "function",
      "constant": true
    },
    {
      "inputs": [
        {
          "internalType": "address",
          "name": "_owner",
          "type": "address"
        }
      ],
      "name": "getByOwner",
      "outputs": [
        {
          "internalType": "uint256[]",
          "name": "",
          "type": "uint256[]"
        }
      ],
      "stateMutability": "view",
      "type": "function",
      "constant": true
    },
    {
      "inputs": [
        {
          "internalType": "address",
          "name": "_buyer",
          "type": "address"
        }
      ],
      "name": "getByBuyer",
      "outputs": [
        {
          "internalType": "uint256[]",
          "name": "",
          "type": "uint256[]"
        }
      ],
      "stateMutability": "view",
      "type": "function",
      "constant": true
    },
    {
      "inputs": [
        {
          "internalType": "uint256",
          "name": "_id",
          "type": "uint256"
        }
      ],
      "name": "getBuyersByPortion",
      "outputs": [
        {
          "internalType": "address[]",
          "name": "",
          "type": "address[]"
        }
      ],
      "stateMutability": "view",
      "type": "function",
      "constant": true
    },
    {
      "inputs": [],
      "name": "getTotal",
      "outputs": [
        {
          "internalType": "uint256",
          "name": "",
          "type": "uint256"
        }
      ],
      "stateMutability": "view",
      "type": "function",
      "constant": true
    },
    {
      "inputs": [
        {
          "internalType": "string",
          "name": "_description",
          "type": "string"
        },
        {
          "internalType": "uint256",
          "name": "_id",
          "type": "uint256"
        },
        {
          "internalType": "address",
          "name": "_contractAddress",
          "type": "address"
        }
      ],
      "name": "registerProduct",
      "outputs": [],
      "stateMutability": "nonpayable",
      "type": "function"
    },
    {
      "inputs": [
        {
          "internalType": "string",
          "name": "_description",
          "type": "string"
        },
        {
          "internalType": "uint256",
          "name": "_id",
          "type": "uint256"
        },
        {
          "internalType": "address",
          "name": "_contractAddress",
          "type": "address"
        }
      ],
      "name": "registerProductionActivity",
      "outputs": [],
      "stateMutability": "nonpayable",
      "type": "function"
    },
    {
      "inputs": [
        {
          "internalType": "string",
          "name": "_description",
          "type": "string"
        },
        {
          "internalType": "uint256",
          "name": "_id",
          "type": "uint256"
        },
        {
          "internalType": "address",
          "name": "_contractAddress",
          "type": "address"
        }
      ],
      "name": "registerMaintenance",
      "outputs": [],
      "stateMutability": "nonpayable",
      "type": "function"
    }
  ],
  "bytecode": "0x60806040523480156200001157600080fd5b506040516200213238038062002132833981810160405281019062000037919062000096565b80600760006101000a81548173ffffffffffffffffffffffffffffffffffffffff021916908373ffffffffffffffffffffffffffffffffffffffff1602179055505062000110565b6000815190506200009081620000f6565b92915050565b600060208284031215620000a957600080fd5b6000620000b9848285016200007f565b91505092915050565b6000620000cf82620000d6565b9050919050565b600073ffffffffffffffffffffffffffffffffffffffff82169050919050565b6200010181620000c2565b81146200010d57600080fd5b50565b61201280620001206000396000f3fe608060405234801561001057600080fd5b50600436106100ea5760003560e01c80637681365e1161008c5780638d7496d7116100665780638d7496d7146102455780639a654c3414610261578063f4f4d2371461027d578063fa5f9559146102ae576100ea565b80637681365e146101ef578063775a25e31461020b578063816b1a8514610229576100ea565b80633b8d33f2116100c85780633b8d33f21461016b5780634189a68e1461019b5780635a67fff1146101b7578063682563c3146101d3576100ea565b806322be8da1146100ef578063368189421461011f578063379c51311461013b575b600080fd5b61010960048036038101906101049190611520565b6102de565b6040516101169190611c6e565b60405180910390f35b6101396004803603810190610134919061178e565b610375565b005b61015560048036038101906101509190611520565b6104de565b6040516101629190611c6e565b60405180910390f35b610185600480360381019061018091906115b5565b610575565b6040516101929190611c6e565b60405180910390f35b6101b560048036038101906101b09190611607565b6105e0565b005b6101d160048036038101906101cc9190611549565b610825565b005b6101ed60048036038101906101e89190611549565b6108fe565b005b610209600480360381019061020491906115b5565b6109d7565b005b610213610b0c565b6040516102209190611dab565b60405180910390f35b610243600480360381019061023e9190611643565b610b16565b005b61025f600480360381019061025a91906116de565b610c89565b005b61027b60048036038101906102769190611549565b610e78565b005b610297600480360381019061029291906115b5565b610f51565b6040516102a5929190611d74565b60405180910390f35b6102c860048036038101906102c391906115b5565b61129f565b6040516102d59190611c4c565b60405180910390f35b6060600360008373ffffffffffffffffffffffffffffffffffffffff1673ffffffffffffffffffffffffffffffffffffffff16815260200190815260200160002080548060200260200160405190810160405280929190818152602001828054801561036957602002820191906000526020600020905b815481526020019060010190808311610355575b50505050509050919050565b883373ffffffffffffffffffffffffffffffffffffffff166004600083815260200190815260200160002060060160009054906101000a900473ffffffffffffffffffffffffffffffffffffffff1673ffffffffffffffffffffffffffffffffffffffff161461041a576040517f08c379a000000000000000000000000000000000000000000000000000000000815260040161041190611d34565b60405180910390fd5b88600460008c81526020019081526020016000206000018190555087600460008c8152602001908152602001600020600101819055508686600460008d81526020019081526020016000206002019190610475929190611340565b508484600460008d8152602001908152602001600020600301919061049b929190611340565b5082600460008c81526020019081526020016000206004018190555081600460008c81526020019081526020016000206005018190555050505050505050505050565b6060600260008373ffffffffffffffffffffffffffffffffffffffff1673ffffffffffffffffffffffffffffffffffffffff16815260200190815260200160002080548060200260200160405190810160405280929190818152602001828054801561056957602002820191906000526020600020905b815481526020019060010190808311610555575b50505050509050919050565b6060600160008381526020019081526020016000208054806020026020016040519081016040528092919081815260200182805480156105d457602002820191906000526020600020905b8154815260200190600101908083116105c0575b50505050509050919050565b813373ffffffffffffffffffffffffffffffffffffffff166004600083815260200190815260200160002060060160009054906101000a900473ffffffffffffffffffffffffffffffffffffffff1673ffffffffffffffffffffffffffffffffffffffff1614806106b257503373ffffffffffffffffffffffffffffffffffffffff166004600083815260200190815260200160002060070160009054906101000a900473ffffffffffffffffffffffffffffffffffffffff1673ffffffffffffffffffffffffffffffffffffffff16145b6106f1576040517f08c379a00000000000000000000000000000000000000000000000000000000081526004016106e890611d14565b60405180910390fd5b816004600085815260200190815260200160002060070160006101000a81548173ffffffffffffffffffffffffffffffffffffffff021916908373ffffffffffffffffffffffffffffffffffffffff160217905550600360008373ffffffffffffffffffffffffffffffffffffffff1673ffffffffffffffffffffffffffffffffffffffff16815260200190815260200160002083908060018154018082558091505060019003906000526020600020016000909190919091505560056000848152602001908152602001600020829080600181540180825580915050600190039060005260206000200160009091909190916101000a81548173ffffffffffffffffffffffffffffffffffffffff021916908373ffffffffffffffffffffffffffffffffffffffff160217905550505050565b60008083815260200190815260200160002060040160009054906101000a900460ff16610887576040517f08c379a000000000000000000000000000000000000000000000000000000000815260040161087e90611d54565b60405180910390fd5b8073ffffffffffffffffffffffffffffffffffffffff16635dc1aad3858585336040518563ffffffff1660e01b81526004016108c69493929190611cb4565b600060405180830381600087803b1580156108e057600080fd5b505af11580156108f4573d6000803e3d6000fd5b5050505050505050565b60008083815260200190815260200160002060040160009054906101000a900460ff16610960576040517f08c379a000000000000000000000000000000000000000000000000000000000815260040161095790611d54565b60405180910390fd5b8073ffffffffffffffffffffffffffffffffffffffff16635dc1aad3858585336040518563ffffffff1660e01b815260040161099f9493929190611cb4565b600060405180830381600087803b1580156109b957600080fd5b505af11580156109cd573d6000803e3d6000fd5b5050505050505050565b60008082815260200190815260200160002060040160009054906101000a900460ff16610a39576040517f08c379a0000000000000000000000000000000000000000000000000000000008152600401610a3090611d54565b60405180910390fd5b600060046000838152602001908152602001600020600101541480610a735750600460008281526020019081526020016000206001015442105b15610ab3576040517f08c379a0000000000000000000000000000000000000000000000000000000008152600401610aaa90611cf4565b60405180910390fd5b60006004600083815260200190815260200160002060070160006101000a81548173ffffffffffffffffffffffffffffffffffffffff021916908373ffffffffffffffffffffffffffffffffffffffff16021790555050565b6000600654905090565b848460008060065481526020019081526020016000206001019190610b3c929190611340565b508260008060065481526020019081526020016000206002018190555085600080600654815260200190815260200160002060000181905550600760009054906101000a900473ffffffffffffffffffffffffffffffffffffffff1673ffffffffffffffffffffffffffffffffffffffff1663b0c8f9dc83836040518363ffffffff1660e01b8152600401610bd2929190611c90565b602060405180830381600087803b158015610bec57600080fd5b505af1158015610c00573d6000803e3d6000fd5b505050506040513d601f19601f82011682018060405250810190610c2491906115de565b6000806006548152602001908152602001600020600301819055506001600080600654815260200190815260200160002060040160006101000a81548160ff021916908315150217905550600660008154809291906001019190505550505050505050565b6001600088815260200190815260200160002060065490806001815401808255809150506001900390600052602060002001600090919091909150558060046000600654815260200190815260200160002060060160006101000a81548173ffffffffffffffffffffffffffffffffffffffff021916908373ffffffffffffffffffffffffffffffffffffffff160217905550600260008273ffffffffffffffffffffffffffffffffffffffff1673ffffffffffffffffffffffffffffffffffffffff1681526020019081526020016000206006549080600181540180825580915050600190039060005260206000200160009091909190915055600560006006548152602001908152602001600020819080600181540180825580915050600190039060005260206000200160009091909190916101000a81548173ffffffffffffffffffffffffffffffffffffffff021916908373ffffffffffffffffffffffffffffffffffffffff1602179055503073ffffffffffffffffffffffffffffffffffffffff1663816b1a858888888888886040518763ffffffff1660e01b8152600401610e3d96959493929190611dc6565b600060405180830381600087803b158015610e5757600080fd5b505af1158015610e6b573d6000803e3d6000fd5b5050505050505050505050565b60008083815260200190815260200160002060040160009054906101000a900460ff16610eda576040517f08c379a0000000000000000000000000000000000000000000000000000000008152600401610ed190611d54565b60405180910390fd5b8073ffffffffffffffffffffffffffffffffffffffff16635dc1aad3858585336040518563ffffffff1660e01b8152600401610f199493929190611cb4565b600060405180830381600087803b158015610f3357600080fd5b505af1158015610f47573d6000803e3d6000fd5b5050505050505050565b610f596113c0565b610f616113f4565b60008084815260200190815260200160002060046000858152602001908152602001600020816040518060a001604052908160008201548152602001600182018054600181600116156101000203166002900480601f0160208091040260200160405190810160405280929190818152602001828054600181600116156101000203166002900480156110355780601f1061100a57610100808354040283529160200191611035565b820191906000526020600020905b81548152906001019060200180831161101857829003601f168201915b5050505050815260200160028201548152602001600382015481526020016004820160009054906101000a900460ff161515151581525050915080604051806101000160405290816000820154815260200160018201548152602001600282018054600181600116156101000203166002900480601f0160208091040260200160405190810160405280929190818152602001828054600181600116156101000203166002900480156111295780601f106110fe57610100808354040283529160200191611129565b820191906000526020600020905b81548152906001019060200180831161110c57829003601f168201915b50505050508152602001600382018054600181600116156101000203166002900480601f0160208091040260200160405190810160405280929190818152602001828054600181600116156101000203166002900480156111cb5780601f106111a0576101008083540402835291602001916111cb565b820191906000526020600020905b8154815290600101906020018083116111ae57829003601f168201915b5050505050815260200160048201548152602001600582015481526020016006820160009054906101000a900473ffffffffffffffffffffffffffffffffffffffff1673ffffffffffffffffffffffffffffffffffffffff1673ffffffffffffffffffffffffffffffffffffffff1681526020016007820160009054906101000a900473ffffffffffffffffffffffffffffffffffffffff1673ffffffffffffffffffffffffffffffffffffffff1673ffffffffffffffffffffffffffffffffffffffff1681525050905091509150915091565b60606005600083815260200190815260200160002080548060200260200160405190810160405280929190818152602001828054801561133457602002820191906000526020600020905b8160009054906101000a900473ffffffffffffffffffffffffffffffffffffffff1673ffffffffffffffffffffffffffffffffffffffff16815260200190600101908083116112ea575b50505050509050919050565b828054600181600116156101000203166002900490600052602060002090601f016020900481019282601f1061138157803560ff19168380011785556113af565b828001600101855582156113af579182015b828111156113ae578235825591602001919060010190611393565b5b5090506113bc9190611465565b5090565b6040518060a00160405280600081526020016060815260200160008019168152602001600081526020016000151581525090565b604051806101000160405280600081526020016000815260200160608152602001606081526020016000815260200160008152602001600073ffffffffffffffffffffffffffffffffffffffff168152602001600073ffffffffffffffffffffffffffffffffffffffff1681525090565b5b8082111561147e576000816000905550600101611466565b5090565b60008135905061149181611f97565b92915050565b6000813590506114a681611fae565b92915050565b60008083601f8401126114be57600080fd5b8235905067ffffffffffffffff8111156114d757600080fd5b6020830191508360018202830111156114ef57600080fd5b9250929050565b60008135905061150581611fc5565b92915050565b60008151905061151a81611fc5565b92915050565b60006020828403121561153257600080fd5b600061154084828501611482565b91505092915050565b6000806000806060858703121561155f57600080fd5b600085013567ffffffffffffffff81111561157957600080fd5b611585878288016114ac565b94509450506020611598878288016114f6565b92505060406115a987828801611482565b91505092959194509250565b6000602082840312156115c757600080fd5b60006115d5848285016114f6565b91505092915050565b6000602082840312156115f057600080fd5b60006115fe8482850161150b565b91505092915050565b6000806040838503121561161a57600080fd5b6000611628858286016114f6565b925050602061163985828601611482565b9150509250929050565b6000806000806000806080878903121561165c57600080fd5b600061166a89828a016114f6565b965050602087013567ffffffffffffffff81111561168757600080fd5b61169389828a016114ac565b955095505060406116a689828a01611497565b935050606087013567ffffffffffffffff8111156116c357600080fd5b6116cf89828a016114ac565b92509250509295509295509295565b600080600080600080600060a0888a0312156116f957600080fd5b60006117078a828b016114f6565b975050602088013567ffffffffffffffff81111561172457600080fd5b6117308a828b016114ac565b965096505060406117438a828b01611497565b945050606088013567ffffffffffffffff81111561176057600080fd5b61176c8a828b016114ac565b9350935050608061177f8a828b01611482565b91505092959891949750929550565b600080600080600080600080600060e08a8c0312156117ac57600080fd5b60006117ba8c828d016114f6565b99505060206117cb8c828d016114f6565b98505060406117dc8c828d016114f6565b97505060608a013567ffffffffffffffff8111156117f957600080fd5b6118058c828d016114ac565b965096505060808a013567ffffffffffffffff81111561182457600080fd5b6118308c828d016114ac565b945094505060a06118438c828d016114f6565b92505060c06118548c828d016114f6565b9150509295985092959850929598565b600061187083836118a3565b60208301905092915050565b60006118888383611c2e565b60208301905092915050565b61189d81611f0e565b82525050565b6118ac81611ebc565b82525050565b60006118bd82611e3d565b6118c78185611e78565b93506118d283611e1d565b8060005b838110156119035781516118ea8882611864565b97506118f583611e5e565b9250506001810190506118d6565b5085935050505092915050565b600061191b82611e48565b6119258185611e89565b935061193083611e2d565b8060005b83811015611961578151611948888261187c565b975061195383611e6b565b925050600181019050611934565b5085935050505092915050565b61197781611ece565b82525050565b61198681611eda565b82525050565b61199581611eda565b82525050565b60006119a78385611eab565b93506119b4838584611f44565b6119bd83611f86565b840190509392505050565b60006119d382611e53565b6119dd8185611e9a565b93506119ed818560208601611f53565b6119f681611f86565b840191505092915050565b6000611a0e601f83611eab565b91507f4f776e65736869702065787069726174696f6e206e6f7420616c6c6f776564006000830152602082019050919050565b6000611a4e601f83611eab565b91507f4f6e6c79206f776e6572206f722062757965722061726520616c6c6f776564006000830152602082019050919050565b6000611a8e601583611eab565b91507f4f6e6c79206f776e657220697320616c6c6f77656400000000000000000000006000830152602082019050919050565b6000611ace601683611eab565b91507f456c656d656e7420646f6573206e6f74206578697374000000000000000000006000830152602082019050919050565b600060a083016000830151611b196000860182611c2e565b5060208301518482036020860152611b3182826119c8565b9150506040830151611b46604086018261197d565b506060830151611b596060860182611c2e565b506080830151611b6c608086018261196e565b508091505092915050565b600061010083016000830151611b906000860182611c2e565b506020830151611ba36020860182611c2e565b5060408301518482036040860152611bbb82826119c8565b91505060608301518482036060860152611bd582826119c8565b9150506080830151611bea6080860182611c2e565b5060a0830151611bfd60a0860182611c2e565b5060c0830151611c1060c08601826118a3565b5060e0830151611c2360e08601826118a3565b508091505092915050565b611c3781611f04565b82525050565b611c4681611f04565b82525050565b60006020820190508181036000830152611c6681846118b2565b905092915050565b60006020820190508181036000830152611c888184611910565b905092915050565b60006020820190508181036000830152611cab81848661199b565b90509392505050565b60006060820190508181036000830152611ccf81868861199b565b9050611cde6020830185611c3d565b611ceb6040830184611894565b95945050505050565b60006020820190508181036000830152611d0d81611a01565b9050919050565b60006020820190508181036000830152611d2d81611a41565b9050919050565b60006020820190508181036000830152611d4d81611a81565b9050919050565b60006020820190508181036000830152611d6d81611ac1565b9050919050565b60006040820190508181036000830152611d8e8185611b01565b90508181036020830152611da28184611b77565b90509392505050565b6000602082019050611dc06000830184611c3d565b92915050565b6000608082019050611ddb6000830189611c3d565b8181036020830152611dee81878961199b565b9050611dfd604083018661198c565b8181036060830152611e1081848661199b565b9050979650505050505050565b6000819050602082019050919050565b6000819050602082019050919050565b600081519050919050565b600081519050919050565b600081519050919050565b6000602082019050919050565b6000602082019050919050565b600082825260208201905092915050565b600082825260208201905092915050565b600082825260208201905092915050565b600082825260208201905092915050565b6000611ec782611ee4565b9050919050565b60008115159050919050565b6000819050919050565b600073ffffffffffffffffffffffffffffffffffffffff82169050919050565b6000819050919050565b6000611f1982611f20565b9050919050565b6000611f2b82611f32565b9050919050565b6000611f3d82611ee4565b9050919050565b82818337600083830152505050565b60005b83811015611f71578082015181840152602081019050611f56565b83811115611f80576000848401525b50505050565b6000601f19601f8301169050919050565b611fa081611ebc565b8114611fab57600080fd5b50565b611fb781611eda565b8114611fc257600080fd5b50565b611fce81611f04565b8114611fd957600080fd5b5056fea2646970667358221220af13c733cde47c1484f6a803d0f8f7f1442635030df03d4ab7955cc0742e002f64736f6c634300060c0033",
  "immutableReferences": {},
  "source": "// SPDX-License-Identifier: MIT\n\npragma solidity ^0.6.0;\npragma experimental ABIEncoderV2;\n\n//import '../../OpenZeppelin/openzeppelin-contracts/contracts/math/SafeMath.sol';\nimport '@openzeppelin/contracts/math/SafeMath.sol';\n\nimport './Storage.sol';\nimport './Product.sol';\nimport './Maintenance.sol';\nimport './ProductionActivity.sol';\n\n/// @title Contract representing a portion of land\ncontract Portion {\n    using SafeMath for uint256;\n    \n    /// @dev Portion data\n    struct Data {\n        uint256 land;\n        string description;\n        bytes32 documents;\n        uint256 hashId;\n        bool hasValue;\n    }\n    \n    /// @notice Duration parameter can be perpetual (0) or for n years\n    struct TermsOfSale {\n        uint256 price;\n        uint256 duration;\n        string expectedProduction;\n        string periodicity;\n        uint256 expectedMaintenanceCost;\n        uint256 expectedProdActivityCost;\n        address owner;\n        address buyer;\n    }\n    \n    /// @dev All the portions\n    mapping (uint256 => Data) private portions;\n    /// @dev Portions grouped by land\n    mapping (uint256 => uint256[]) private portionsByLand;\n    /// @dev Portions grouped by owner's address\n    mapping (address => uint256[]) private portionsByOwner;\n    /// @dev Portions grouped by buyer's address\n    mapping (address => uint256[]) private portionsByBuyer;\n    /// @dev All the portion terms\n    mapping (uint256 => TermsOfSale) private portionTerms;\n    /// @dev Buyers grouped by portion\n    mapping (uint256 => address[]) buyersByPortions;\n    \n    /// @dev Portion counter\n    uint256 private lastPortionId;\n    \n    /// @dev Storage contract instance\n    Storage private dataStorage;\n    \n    /// @param _dataStorage Storage contract address\n    constructor (address _dataStorage) public  {\n        dataStorage = Storage(_dataStorage);\n    }\n    \n    /// @dev Portion terms can be defined only by the portion owner\n    modifier onlyOwner(uint256 _portionId) {\n        require(portionTerms[_portionId].owner == msg.sender, 'Only owner is allowed');\n        _;\n    }\n    \n    /// @dev Selling or transferring ownership can be performed only by owner or buyer\n    modifier onlyOwnerAndBuyer(uint256 _portionId) {\n        require(portionTerms[_portionId].owner == msg.sender || portionTerms[_portionId].buyer == msg.sender, 'Only owner or buyer are allowed');\n        _;\n    }\n    \n    /// @param _landId Land to be divided\n    /// @param _description Portion description\n    /// @param _documents Link of documents related to the portion\n    /// @param _base64 Base64 encoded documents\n    function register(uint256 _landId, string calldata _description, bytes32 _documents, string calldata _base64) external {\n        portions[lastPortionId].description = _description;\n        portions[lastPortionId].documents = _documents;\n        portions[lastPortionId].land = _landId;\n        \n        portions[lastPortionId].hashId = dataStorage.add(_base64);\n        portions[lastPortionId].hasValue = true;\n        \n        lastPortionId++;\n    }\n\n    /// @param _landId Land to be divided\n    /// @param _description Portion description\n    /// @param _documents Link of documents related to the portion\n    /// @param _base64 Base64 encoded documents\n    /// @param _source Original sender from divide land\n    function register(uint256 _landId, string calldata _description, bytes32 _documents, string calldata _base64, address _source) external {\n        portionsByLand[_landId].push(lastPortionId);\n        portionTerms[lastPortionId].owner = _source;\n        portionsByOwner[_source].push(lastPortionId);        \n        buyersByPortions[lastPortionId].push(_source);\n\n        this.register(_landId, _description, _documents, _base64);\n    }\n    \n    /// @param _portionId ID of portion related\n    /// @param _price Contract price\n    /// @param _duration Contract duration\n    /// @param _expectedProduction Production expected from the portion\n    /// @param _periodicity Production periodicity\n    /// @param _expectedMaintenanceCost Costs expected for maintenance\n    /// @param _expectedProdActivityCost Costs expected for production-related activities \n    function defineTerms(\n        uint256 _portionId,\n        uint256 _price,\n        uint256 _duration,\n        string calldata _expectedProduction,\n        string calldata _periodicity,\n        uint256 _expectedMaintenanceCost,\n        uint256 _expectedProdActivityCost\n    ) external onlyOwner(_portionId) {\n        portionTerms[_portionId].price = _price;\n        portionTerms[_portionId].duration = _duration;\n        portionTerms[_portionId].expectedProduction = _expectedProduction;\n        portionTerms[_portionId].periodicity = _periodicity;\n        portionTerms[_portionId].expectedMaintenanceCost = _expectedMaintenanceCost;\n        portionTerms[_portionId].expectedProdActivityCost = _expectedProdActivityCost;\n    }\n    \n    /// @notice Sell and transfer ownership\n    /// @param _id Portion ID\n    /// @param _buyer New buyer\n    function sell(uint256 _id, address _buyer) external onlyOwnerAndBuyer(_id) {\n        portionTerms[_id].buyer = _buyer;\n        portionsByBuyer[_buyer].push(_id);\n        \n        buyersByPortions[_id].push(_buyer);\n    }\n    \n    /// @param _id Portion ID\n    function ownershipExpiration(uint256 _id) external {\n        if (!portions[_id].hasValue) revert('Element does not exist');\n        if (portionTerms[_id].duration == 0 || now < portionTerms[_id].duration) revert('Owneship expiration not allowed');\n        portionTerms[_id].buyer = address(0);\n    }\n    \n    /// @param _id Portion ID\n    /// return the tuple containing the data related to the portion and its terms of sale\n    function getById(uint256 _id) external view returns (Data memory, TermsOfSale memory) {\n        return (portions[_id], portionTerms[_id]);\n    }\n\n    /// @param _land Land ID\n    /// return the array containing all the portions in a land\n    function getByLand(uint256 _land) external view returns (uint256[] memory) {\n        return (portionsByLand[_land]);\n    }\n    \n    /// @param _owner Owner address\n    /// @return the array containing all the portions owned\n    function getByOwner(address _owner) external view returns (uint256[] memory) {\n        return portionsByOwner[_owner];\n    }\n\n    /// @param _buyer Buyer address\n    /// @return the array containing all the portions bought\n    function getByBuyer(address _buyer) external view returns (uint256[] memory) {\n        return portionsByBuyer[_buyer];\n    }\n    \n    /// @param _id Portion ID\n    /// @return the array containing all the buyers for that portion\n    function getBuyersByPortion(uint256 _id) external view returns (address[] memory) {\n        return buyersByPortions[_id];\n    }\n    \n    /// @return the number of registered portions\n    function getTotal() external view returns (uint256) {\n        return lastPortionId;\n    }\n    \n    /// @param _description Product description\n    /// @param _id Portion ID for registering the product\n    /// @param _contractAddress Product contract address\n    function registerProduct(string calldata _description, uint256 _id, address _contractAddress) external {\n        if (!portions[_id].hasValue) revert('Element does not exist');\n        Product(_contractAddress).register(_description, _id, msg.sender);\n    }\n    \n    /// @param _description Production description\n    /// @param _id Portion ID for registering the production\n    /// @param _contractAddress Production contract address\n    function registerProductionActivity(string calldata _description, uint256 _id, address _contractAddress) external {\n        if (!portions[_id].hasValue) revert('Element does not exist');\n        ProductionActivity(_contractAddress).register(_description, _id, msg.sender);\n    }\n    \n    /// @param _description Maintenance description\n    /// @param _id Portion ID for registering the maintenance\n    /// @param _contractAddress Maintenance contract address\n    function registerMaintenance(string calldata _description, uint256 _id, address _contractAddress) external {\n        if (!portions[_id].hasValue) revert('Element does not exist');\n        Maintenance(_contractAddress).register(_description, _id, msg.sender);\n    }\n    \n}\n",
  "sourcePath": "/home/francesca/WebstormProjects/APT/contracts/Portion.sol",
  "compiler": {
    "name": "solc",
    "version": "0.6.12+commit.27d51765.Emscripten.clang"
  },
  "schemaVersion": "3.2.5",
  "updatedAt": "2020-10-18T08:59:45.716Z",
  "networkType": "ethereum",
  "devdoc": {
    "kind": "dev",
    "methods": {
      "constructor": {
        "params": {
          "_dataStorage": "Storage contract address"
        }
      },
      "defineTerms(uint256,uint256,uint256,string,string,uint256,uint256)": {
        "params": {
          "_duration": "Contract duration",
          "_expectedMaintenanceCost": "Costs expected for maintenance",
          "_expectedProdActivityCost": "Costs expected for production-related activities ",
          "_expectedProduction": "Production expected from the portion",
          "_periodicity": "Production periodicity",
          "_portionId": "ID of portion related",
          "_price": "Contract price"
        }
      },
      "getBuyersByPortion(uint256)": {
        "params": {
          "_id": "Portion ID"
        },
        "returns": {
          "_0": "the array containing all the buyers for that portion"
        }
      },
      "getByBuyer(address)": {
        "params": {
          "_buyer": "Buyer address"
        },
        "returns": {
          "_0": "the array containing all the portions bought"
        }
      },
      "getById(uint256)": {
        "params": {
          "_id": "Portion ID return the tuple containing the data related to the portion and its terms of sale"
        }
      },
      "getByLand(uint256)": {
        "params": {
          "_land": "Land ID return the array containing all the portions in a land"
        }
      },
      "getByOwner(address)": {
        "params": {
          "_owner": "Owner address"
        },
        "returns": {
          "_0": "the array containing all the portions owned"
        }
      },
      "getTotal()": {
        "returns": {
          "_0": "the number of registered portions"
        }
      },
      "ownershipExpiration(uint256)": {
        "params": {
          "_id": "Portion ID"
        }
      },
      "register(uint256,string,bytes32,string)": {
        "params": {
          "_base64": "Base64 encoded documents",
          "_description": "Portion description",
          "_documents": "Link of documents related to the portion",
          "_landId": "Land to be divided"
        }
      },
      "register(uint256,string,bytes32,string,address)": {
        "params": {
          "_base64": "Base64 encoded documents",
          "_description": "Portion description",
          "_documents": "Link of documents related to the portion",
          "_landId": "Land to be divided",
          "_source": "Original sender from divide land"
        }
      },
      "registerMaintenance(string,uint256,address)": {
        "params": {
          "_contractAddress": "Maintenance contract address",
          "_description": "Maintenance description",
          "_id": "Portion ID for registering the maintenance"
        }
      },
      "registerProduct(string,uint256,address)": {
        "params": {
          "_contractAddress": "Product contract address",
          "_description": "Product description",
          "_id": "Portion ID for registering the product"
        }
      },
      "registerProductionActivity(string,uint256,address)": {
        "params": {
          "_contractAddress": "Production contract address",
          "_description": "Production description",
          "_id": "Portion ID for registering the production"
        }
      },
      "sell(uint256,address)": {
        "params": {
          "_buyer": "New buyer",
          "_id": "Portion ID"
        }
      }
    },
    "stateVariables": {
      "buyersByPortions": {
        "details": "Buyers grouped by portion"
      },
      "dataStorage": {
        "details": "Storage contract instance"
      },
      "lastPortionId": {
        "details": "Portion counter"
      },
      "portionTerms": {
        "details": "All the portion terms"
      },
      "portions": {
        "details": "All the portions"
      },
      "portionsByBuyer": {
        "details": "Portions grouped by buyer's address"
      },
      "portionsByLand": {
        "details": "Portions grouped by land"
      },
      "portionsByOwner": {
        "details": "Portions grouped by owner's address"
      }
    },
    "title": "Contract representing a portion of land",
    "version": 1
  },
  "userdoc": {
    "kind": "user",
    "methods": {
      "sell(uint256,address)": {
        "notice": "Sell and transfer ownership"
      }
    },
    "version": 1
  }
}