{
  "contractName": "Portion",
  "abi": [
    {
      "inputs": [
        {
          "internalType": "address",
          "name": "_dataStorage",
          "type": "address"
        }
      ],
      "stateMutability": "nonpayable",
      "type": "constructor"
    },
    {
      "inputs": [
        {
          "internalType": "uint256",
          "name": "_landId",
          "type": "uint256"
        },
        {
          "internalType": "string",
          "name": "_description",
          "type": "string"
        },
        {
          "internalType": "string",
          "name": "_documents",
          "type": "string"
        },
        {
          "internalType": "string",
          "name": "_base64",
          "type": "string"
        },
        {
          "internalType": "address",
          "name": "_source",
          "type": "address"
        }
      ],
      "name": "register",
      "outputs": [],
      "stateMutability": "nonpayable",
      "type": "function"
    },
    {
      "inputs": [
        {
          "internalType": "uint256",
          "name": "_landId",
          "type": "uint256"
        },
        {
          "internalType": "string",
          "name": "_description",
          "type": "string"
        },
        {
          "internalType": "string",
          "name": "_documents",
          "type": "string"
        },
        {
          "internalType": "string",
          "name": "_base64",
          "type": "string"
        }
      ],
      "name": "register",
      "outputs": [],
      "stateMutability": "nonpayable",
      "type": "function"
    },
    {
      "inputs": [
        {
          "internalType": "uint256",
          "name": "_portionId",
          "type": "uint256"
        },
        {
          "internalType": "uint256",
          "name": "_price",
          "type": "uint256"
        },
        {
          "internalType": "uint256",
          "name": "_duration",
          "type": "uint256"
        },
        {
          "internalType": "string",
          "name": "_expectedProduction",
          "type": "string"
        },
        {
          "internalType": "string",
          "name": "_periodicity",
          "type": "string"
        },
        {
          "internalType": "uint256",
          "name": "_expectedMaintenanceCost",
          "type": "uint256"
        },
        {
          "internalType": "uint256",
          "name": "_expectedProdActivityCost",
          "type": "uint256"
        }
      ],
      "name": "defineTerms",
      "outputs": [],
      "stateMutability": "nonpayable",
      "type": "function"
    },
    {
      "inputs": [
        {
          "internalType": "uint256",
          "name": "_id",
          "type": "uint256"
        },
        {
          "internalType": "address",
          "name": "_buyer",
          "type": "address"
        }
      ],
      "name": "sell",
      "outputs": [],
      "stateMutability": "nonpayable",
      "type": "function"
    },
    {
      "inputs": [
        {
          "internalType": "uint256",
          "name": "_id",
          "type": "uint256"
        }
      ],
      "name": "ownershipExpiration",
      "outputs": [],
      "stateMutability": "nonpayable",
      "type": "function"
    },
    {
      "inputs": [
        {
          "internalType": "uint256",
          "name": "_id",
          "type": "uint256"
        }
      ],
      "name": "getById",
      "outputs": [
        {
          "components": [
            {
              "internalType": "uint256",
              "name": "land",
              "type": "uint256"
            },
            {
              "internalType": "string",
              "name": "description",
              "type": "string"
            },
            {
              "internalType": "string",
              "name": "documents",
              "type": "string"
            },
            {
              "internalType": "uint256",
              "name": "hashId",
              "type": "uint256"
            },
            {
              "internalType": "bool",
              "name": "hasValue",
              "type": "bool"
            }
          ],
          "internalType": "struct Portion.Data",
          "name": "",
          "type": "tuple"
        },
        {
          "components": [
            {
              "internalType": "uint256",
              "name": "price",
              "type": "uint256"
            },
            {
              "internalType": "uint256",
              "name": "duration",
              "type": "uint256"
            },
            {
              "internalType": "string",
              "name": "expectedProduction",
              "type": "string"
            },
            {
              "internalType": "string",
              "name": "periodicity",
              "type": "string"
            },
            {
              "internalType": "uint256",
              "name": "expectedMaintenanceCost",
              "type": "uint256"
            },
            {
              "internalType": "uint256",
              "name": "expectedProdActivityCost",
              "type": "uint256"
            },
            {
              "internalType": "address",
              "name": "owner",
              "type": "address"
            },
            {
              "internalType": "address",
              "name": "buyer",
              "type": "address"
            }
          ],
          "internalType": "struct Portion.TermsOfSale",
          "name": "",
          "type": "tuple"
        }
      ],
      "stateMutability": "view",
      "type": "function",
      "constant": true
    },
    {
      "inputs": [
        {
          "internalType": "uint256",
          "name": "_land",
          "type": "uint256"
        }
      ],
      "name": "getByLand",
      "outputs": [
        {
          "internalType": "uint256[]",
          "name": "",
          "type": "uint256[]"
        }
      ],
      "stateMutability": "view",
      "type": "function",
      "constant": true
    },
    {
      "inputs": [
        {
          "internalType": "address",
          "name": "_owner",
          "type": "address"
        }
      ],
      "name": "getByOwner",
      "outputs": [
        {
          "internalType": "uint256[]",
          "name": "",
          "type": "uint256[]"
        }
      ],
      "stateMutability": "view",
      "type": "function",
      "constant": true
    },
    {
      "inputs": [
        {
          "internalType": "address",
          "name": "_buyer",
          "type": "address"
        }
      ],
      "name": "getByBuyer",
      "outputs": [
        {
          "internalType": "uint256[]",
          "name": "",
          "type": "uint256[]"
        }
      ],
      "stateMutability": "view",
      "type": "function",
      "constant": true
    },
    {
      "inputs": [
        {
          "internalType": "uint256",
          "name": "_id",
          "type": "uint256"
        }
      ],
      "name": "getBuyersByPortion",
      "outputs": [
        {
          "internalType": "address[]",
          "name": "",
          "type": "address[]"
        }
      ],
      "stateMutability": "view",
      "type": "function",
      "constant": true
    },
    {
      "inputs": [],
      "name": "getTotal",
      "outputs": [
        {
          "internalType": "uint256",
          "name": "",
          "type": "uint256"
        }
      ],
      "stateMutability": "view",
      "type": "function",
      "constant": true
    },
    {
      "inputs": [
        {
          "internalType": "string",
          "name": "_description",
          "type": "string"
        },
        {
          "internalType": "uint256",
          "name": "_id",
          "type": "uint256"
        },
        {
          "internalType": "address",
          "name": "_contractAddress",
          "type": "address"
        }
      ],
      "name": "registerProduct",
      "outputs": [],
      "stateMutability": "nonpayable",
      "type": "function"
    },
    {
      "inputs": [
        {
          "internalType": "string",
          "name": "_description",
          "type": "string"
        },
        {
          "internalType": "uint256",
          "name": "_id",
          "type": "uint256"
        },
        {
          "internalType": "address",
          "name": "_contractAddress",
          "type": "address"
        }
      ],
      "name": "registerProductionActivity",
      "outputs": [],
      "stateMutability": "nonpayable",
      "type": "function"
    },
    {
      "inputs": [
        {
          "internalType": "string",
          "name": "_description",
          "type": "string"
        },
        {
          "internalType": "uint256",
          "name": "_id",
          "type": "uint256"
        },
        {
          "internalType": "address",
          "name": "_contractAddress",
          "type": "address"
        }
      ],
      "name": "registerMaintenance",
      "outputs": [],
      "stateMutability": "nonpayable",
      "type": "function"
    }
  ],
  "bytecode": "0x60806040523480156200001157600080fd5b50604051620021cc380380620021cc833981810160405281019062000037919062000096565b80600760006101000a81548173ffffffffffffffffffffffffffffffffffffffff021916908373ffffffffffffffffffffffffffffffffffffffff1602179055505062000110565b6000815190506200009081620000f6565b92915050565b600060208284031215620000a957600080fd5b6000620000b9848285016200007f565b91505092915050565b6000620000cf82620000d6565b9050919050565b600073ffffffffffffffffffffffffffffffffffffffff82169050919050565b6200010181620000c2565b81146200010d57600080fd5b50565b6120ac80620001206000396000f3fe608060405234801561001057600080fd5b50600436106100ea5760003560e01c8063682563c31161008c5780639a654c34116100665780639a654c3414610245578063eaca6fa614610261578063f4f4d2371461027d578063fa5f9559146102ae576100ea565b8063682563c3146101ef5780637681365e1461020b578063775a25e314610227576100ea565b80633b8d33f2116100c85780633b8d33f21461016b5780633d59a0e21461019b5780634189a68e146101b75780635a67fff1146101d3576100ea565b806322be8da1146100ef578063368189421461011f578063379c51311461013b575b600080fd5b610109600480360381019061010491906115af565b6102de565b6040516101169190611d20565b60405180910390f35b61013960048036038101906101349190611857565b610375565b005b610155600480360381019061015091906115af565b6104de565b6040516101629190611d20565b60405180910390f35b61018560048036038101906101809190611644565b610575565b6040516101929190611d20565b60405180910390f35b6101b560048036038101906101b091906116d2565b6105e0565b005b6101d160048036038101906101cc9190611696565b61075f565b005b6101ed60048036038101906101e891906115d8565b6109a4565b005b610209600480360381019061020491906115d8565b610a7d565b005b61022560048036038101906102209190611644565b610b56565b005b61022f610c8b565b60405161023c9190611e5d565b60405180910390f35b61025f600480360381019061025a91906115d8565b610c95565b005b61027b6004803603810190610276919061178b565b610d6e565b005b61029760048036038101906102929190611644565b610f60565b6040516102a5929190611e26565b60405180910390f35b6102c860048036038101906102c39190611644565b611346565b6040516102d59190611cfe565b60405180910390f35b6060600360008373ffffffffffffffffffffffffffffffffffffffff1673ffffffffffffffffffffffffffffffffffffffff16815260200190815260200160002080548060200260200160405190810160405280929190818152602001828054801561036957602002820191906000526020600020905b815481526020019060010190808311610355575b50505050509050919050565b883373ffffffffffffffffffffffffffffffffffffffff166004600083815260200190815260200160002060060160009054906101000a900473ffffffffffffffffffffffffffffffffffffffff1673ffffffffffffffffffffffffffffffffffffffff161461041a576040517f08c379a000000000000000000000000000000000000000000000000000000000815260040161041190611de6565b60405180910390fd5b88600460008c81526020019081526020016000206000018190555087600460008c8152602001908152602001600020600101819055508686600460008d815260200190815260200160002060020191906104759291906113e7565b508484600460008d8152602001908152602001600020600301919061049b9291906113e7565b5082600460008c81526020019081526020016000206004018190555081600460008c81526020019081526020016000206005018190555050505050505050505050565b6060600260008373ffffffffffffffffffffffffffffffffffffffff1673ffffffffffffffffffffffffffffffffffffffff16815260200190815260200160002080548060200260200160405190810160405280929190818152602001828054801561056957602002820191906000526020600020905b815481526020019060010190808311610555575b50505050509050919050565b6060600160008381526020019081526020016000208054806020026020016040519081016040528092919081815260200182805480156105d457602002820191906000526020600020905b8154815260200190600101908083116105c0575b50505050509050919050565b8585600080600654815260200190815260200160002060010191906106069291906113e7565b5083836000806006548152602001908152602001600020600201919061062d9291906113e7565b5086600080600654815260200190815260200160002060000181905550600760009054906101000a900473ffffffffffffffffffffffffffffffffffffffff1673ffffffffffffffffffffffffffffffffffffffff1663b0c8f9dc83836040518363ffffffff1660e01b81526004016106a7929190611d42565b602060405180830381600087803b1580156106c157600080fd5b505af11580156106d5573d6000803e3d6000fd5b505050506040513d601f19601f820116820180604052508101906106f9919061166d565b6000806006548152602001908152602001600020600301819055506001600080600654815260200190815260200160002060040160006101000a81548160ff02191690831515021790555060066000815480929190600101919050555050505050505050565b813373ffffffffffffffffffffffffffffffffffffffff166004600083815260200190815260200160002060060160009054906101000a900473ffffffffffffffffffffffffffffffffffffffff1673ffffffffffffffffffffffffffffffffffffffff16148061083157503373ffffffffffffffffffffffffffffffffffffffff166004600083815260200190815260200160002060070160009054906101000a900473ffffffffffffffffffffffffffffffffffffffff1673ffffffffffffffffffffffffffffffffffffffff16145b610870576040517f08c379a000000000000000000000000000000000000000000000000000000000815260040161086790611dc6565b60405180910390fd5b816004600085815260200190815260200160002060070160006101000a81548173ffffffffffffffffffffffffffffffffffffffff021916908373ffffffffffffffffffffffffffffffffffffffff160217905550600360008373ffffffffffffffffffffffffffffffffffffffff1673ffffffffffffffffffffffffffffffffffffffff16815260200190815260200160002083908060018154018082558091505060019003906000526020600020016000909190919091505560056000848152602001908152602001600020829080600181540180825580915050600190039060005260206000200160009091909190916101000a81548173ffffffffffffffffffffffffffffffffffffffff021916908373ffffffffffffffffffffffffffffffffffffffff160217905550505050565b60008083815260200190815260200160002060040160009054906101000a900460ff16610a06576040517f08c379a00000000000000000000000000000000000000000000000000000000081526004016109fd90611e06565b60405180910390fd5b8073ffffffffffffffffffffffffffffffffffffffff16635dc1aad3858585336040518563ffffffff1660e01b8152600401610a459493929190611d66565b600060405180830381600087803b158015610a5f57600080fd5b505af1158015610a73573d6000803e3d6000fd5b5050505050505050565b60008083815260200190815260200160002060040160009054906101000a900460ff16610adf576040517f08c379a0000000000000000000000000000000000000000000000000000000008152600401610ad690611e06565b60405180910390fd5b8073ffffffffffffffffffffffffffffffffffffffff16635dc1aad3858585336040518563ffffffff1660e01b8152600401610b1e9493929190611d66565b600060405180830381600087803b158015610b3857600080fd5b505af1158015610b4c573d6000803e3d6000fd5b5050505050505050565b60008082815260200190815260200160002060040160009054906101000a900460ff16610bb8576040517f08c379a0000000000000000000000000000000000000000000000000000000008152600401610baf90611e06565b60405180910390fd5b600060046000838152602001908152602001600020600101541480610bf25750600460008281526020019081526020016000206001015442105b15610c32576040517f08c379a0000000000000000000000000000000000000000000000000000000008152600401610c2990611da6565b60405180910390fd5b60006004600083815260200190815260200160002060070160006101000a81548173ffffffffffffffffffffffffffffffffffffffff021916908373ffffffffffffffffffffffffffffffffffffffff16021790555050565b6000600654905090565b60008083815260200190815260200160002060040160009054906101000a900460ff16610cf7576040517f08c379a0000000000000000000000000000000000000000000000000000000008152600401610cee90611e06565b60405180910390fd5b8073ffffffffffffffffffffffffffffffffffffffff16635dc1aad3858585336040518563ffffffff1660e01b8152600401610d369493929190611d66565b600060405180830381600087803b158015610d5057600080fd5b505af1158015610d64573d6000803e3d6000fd5b5050505050505050565b6001600089815260200190815260200160002060065490806001815401808255809150506001900390600052602060002001600090919091909150558060046000600654815260200190815260200160002060060160006101000a81548173ffffffffffffffffffffffffffffffffffffffff021916908373ffffffffffffffffffffffffffffffffffffffff160217905550600260008273ffffffffffffffffffffffffffffffffffffffff1673ffffffffffffffffffffffffffffffffffffffff1681526020019081526020016000206006549080600181540180825580915050600190039060005260206000200160009091909190915055600560006006548152602001908152602001600020819080600181540180825580915050600190039060005260206000200160009091909190916101000a81548173ffffffffffffffffffffffffffffffffffffffff021916908373ffffffffffffffffffffffffffffffffffffffff1602179055503073ffffffffffffffffffffffffffffffffffffffff16633d59a0e2898989898989896040518863ffffffff1660e01b8152600401610f249796959493929190611e78565b600060405180830381600087803b158015610f3e57600080fd5b505af1158015610f52573d6000803e3d6000fd5b505050505050505050505050565b610f68611467565b610f70611498565b60008084815260200190815260200160002060046000858152602001908152602001600020816040518060a001604052908160008201548152602001600182018054600181600116156101000203166002900480601f0160208091040260200160405190810160405280929190818152602001828054600181600116156101000203166002900480156110445780601f1061101957610100808354040283529160200191611044565b820191906000526020600020905b81548152906001019060200180831161102757829003601f168201915b50505050508152602001600282018054600181600116156101000203166002900480601f0160208091040260200160405190810160405280929190818152602001828054600181600116156101000203166002900480156110e65780601f106110bb576101008083540402835291602001916110e6565b820191906000526020600020905b8154815290600101906020018083116110c957829003601f168201915b50505050508152602001600382015481526020016004820160009054906101000a900460ff161515151581525050915080604051806101000160405290816000820154815260200160018201548152602001600282018054600181600116156101000203166002900480601f0160208091040260200160405190810160405280929190818152602001828054600181600116156101000203166002900480156111d05780601f106111a5576101008083540402835291602001916111d0565b820191906000526020600020905b8154815290600101906020018083116111b357829003601f168201915b50505050508152602001600382018054600181600116156101000203166002900480601f0160208091040260200160405190810160405280929190818152602001828054600181600116156101000203166002900480156112725780601f1061124757610100808354040283529160200191611272565b820191906000526020600020905b81548152906001019060200180831161125557829003601f168201915b5050505050815260200160048201548152602001600582015481526020016006820160009054906101000a900473ffffffffffffffffffffffffffffffffffffffff1673ffffffffffffffffffffffffffffffffffffffff1673ffffffffffffffffffffffffffffffffffffffff1681526020016007820160009054906101000a900473ffffffffffffffffffffffffffffffffffffffff1673ffffffffffffffffffffffffffffffffffffffff1673ffffffffffffffffffffffffffffffffffffffff1681525050905091509150915091565b6060600560008381526020019081526020016000208054806020026020016040519081016040528092919081815260200182805480156113db57602002820191906000526020600020905b8160009054906101000a900473ffffffffffffffffffffffffffffffffffffffff1673ffffffffffffffffffffffffffffffffffffffff1681526020019060010190808311611391575b50505050509050919050565b828054600181600116156101000203166002900490600052602060002090601f016020900481019282601f1061142857803560ff1916838001178555611456565b82800160010185558215611456579182015b8281111561145557823582559160200191906001019061143a565b5b5090506114639190611509565b5090565b6040518060a00160405280600081526020016060815260200160608152602001600081526020016000151581525090565b604051806101000160405280600081526020016000815260200160608152602001606081526020016000815260200160008152602001600073ffffffffffffffffffffffffffffffffffffffff168152602001600073ffffffffffffffffffffffffffffffffffffffff1681525090565b5b8082111561152257600081600090555060010161150a565b5090565b60008135905061153581612048565b92915050565b60008083601f84011261154d57600080fd5b8235905067ffffffffffffffff81111561156657600080fd5b60208301915083600182028301111561157e57600080fd5b9250929050565b6000813590506115948161205f565b92915050565b6000815190506115a98161205f565b92915050565b6000602082840312156115c157600080fd5b60006115cf84828501611526565b91505092915050565b600080600080606085870312156115ee57600080fd5b600085013567ffffffffffffffff81111561160857600080fd5b6116148782880161153b565b9450945050602061162787828801611585565b925050604061163887828801611526565b91505092959194509250565b60006020828403121561165657600080fd5b600061166484828501611585565b91505092915050565b60006020828403121561167f57600080fd5b600061168d8482850161159a565b91505092915050565b600080604083850312156116a957600080fd5b60006116b785828601611585565b92505060206116c885828601611526565b9150509250929050565b60008060008060008060006080888a0312156116ed57600080fd5b60006116fb8a828b01611585565b975050602088013567ffffffffffffffff81111561171857600080fd5b6117248a828b0161153b565b9650965050604088013567ffffffffffffffff81111561174357600080fd5b61174f8a828b0161153b565b9450945050606088013567ffffffffffffffff81111561176e57600080fd5b61177a8a828b0161153b565b925092505092959891949750929550565b60008060008060008060008060a0898b0312156117a757600080fd5b60006117b58b828c01611585565b985050602089013567ffffffffffffffff8111156117d257600080fd5b6117de8b828c0161153b565b9750975050604089013567ffffffffffffffff8111156117fd57600080fd5b6118098b828c0161153b565b9550955050606089013567ffffffffffffffff81111561182857600080fd5b6118348b828c0161153b565b935093505060806118478b828c01611526565b9150509295985092959890939650565b600080600080600080600080600060e08a8c03121561187557600080fd5b60006118838c828d01611585565b99505060206118948c828d01611585565b98505060406118a58c828d01611585565b97505060608a013567ffffffffffffffff8111156118c257600080fd5b6118ce8c828d0161153b565b965096505060808a013567ffffffffffffffff8111156118ed57600080fd5b6118f98c828d0161153b565b945094505060a061190c8c828d01611585565b92505060c061191d8c828d01611585565b9150509295985092959850929598565b6000611939838361196c565b60208301905092915050565b60006119518383611ce0565b60208301905092915050565b61196681611fbf565b82525050565b61197581611f77565b82525050565b600061198682611ef8565b6119908185611f33565b935061199b83611ed8565b8060005b838110156119cc5781516119b3888261192d565b97506119be83611f19565b92505060018101905061199f565b5085935050505092915050565b60006119e482611f03565b6119ee8185611f44565b93506119f983611ee8565b8060005b83811015611a2a578151611a118882611945565b9750611a1c83611f26565b9250506001810190506119fd565b5085935050505092915050565b611a4081611f89565b82525050565b6000611a528385611f66565b9350611a5f838584611ff5565b611a6883612037565b840190509392505050565b6000611a7e82611f0e565b611a888185611f55565b9350611a98818560208601612004565b611aa181612037565b840191505092915050565b6000611ab9601f83611f66565b91507f4f776e65736869702065787069726174696f6e206e6f7420616c6c6f776564006000830152602082019050919050565b6000611af9601f83611f66565b91507f4f6e6c79206f776e6572206f722062757965722061726520616c6c6f776564006000830152602082019050919050565b6000611b39601583611f66565b91507f4f6e6c79206f776e657220697320616c6c6f77656400000000000000000000006000830152602082019050919050565b6000611b79601683611f66565b91507f456c656d656e7420646f6573206e6f74206578697374000000000000000000006000830152602082019050919050565b600060a083016000830151611bc46000860182611ce0565b5060208301518482036020860152611bdc8282611a73565b91505060408301518482036040860152611bf68282611a73565b9150506060830151611c0b6060860182611ce0565b506080830151611c1e6080860182611a37565b508091505092915050565b600061010083016000830151611c426000860182611ce0565b506020830151611c556020860182611ce0565b5060408301518482036040860152611c6d8282611a73565b91505060608301518482036060860152611c878282611a73565b9150506080830151611c9c6080860182611ce0565b5060a0830151611caf60a0860182611ce0565b5060c0830151611cc260c086018261196c565b5060e0830151611cd560e086018261196c565b508091505092915050565b611ce981611fb5565b82525050565b611cf881611fb5565b82525050565b60006020820190508181036000830152611d18818461197b565b905092915050565b60006020820190508181036000830152611d3a81846119d9565b905092915050565b60006020820190508181036000830152611d5d818486611a46565b90509392505050565b60006060820190508181036000830152611d81818688611a46565b9050611d906020830185611cef565b611d9d604083018461195d565b95945050505050565b60006020820190508181036000830152611dbf81611aac565b9050919050565b60006020820190508181036000830152611ddf81611aec565b9050919050565b60006020820190508181036000830152611dff81611b2c565b9050919050565b60006020820190508181036000830152611e1f81611b6c565b9050919050565b60006040820190508181036000830152611e408185611bac565b90508181036020830152611e548184611c29565b90509392505050565b6000602082019050611e726000830184611cef565b92915050565b6000608082019050611e8d600083018a611cef565b8181036020830152611ea081888a611a46565b90508181036040830152611eb5818688611a46565b90508181036060830152611eca818486611a46565b905098975050505050505050565b6000819050602082019050919050565b6000819050602082019050919050565b600081519050919050565b600081519050919050565b600081519050919050565b6000602082019050919050565b6000602082019050919050565b600082825260208201905092915050565b600082825260208201905092915050565b600082825260208201905092915050565b600082825260208201905092915050565b6000611f8282611f95565b9050919050565b60008115159050919050565b600073ffffffffffffffffffffffffffffffffffffffff82169050919050565b6000819050919050565b6000611fca82611fd1565b9050919050565b6000611fdc82611fe3565b9050919050565b6000611fee82611f95565b9050919050565b82818337600083830152505050565b60005b83811015612022578082015181840152602081019050612007565b83811115612031576000848401525b50505050565b6000601f19601f8301169050919050565b61205181611f77565b811461205c57600080fd5b50565b61206881611fb5565b811461207357600080fd5b5056fea2646970667358221220156afac22683cf41cae18ca099de745e6a5145c4228330b59e88f532b6af27e064736f6c634300060c0033",
  "immutableReferences": {},
  "source": "// SPDX-License-Identifier: MIT\n\npragma solidity ^0.6.0;\npragma experimental ABIEncoderV2;\n\n//import '../../OpenZeppelin/openzeppelin-contracts/contracts/math/SafeMath.sol';\nimport '@openzeppelin/contracts/math/SafeMath.sol';\n\nimport './Storage.sol';\nimport './Product.sol';\nimport './Maintenance.sol';\nimport './ProductionActivity.sol';\n\n/// @title Contract representing a portion of land\ncontract Portion {\n    using SafeMath for uint256;\n    \n    /// @dev Portion data\n    struct Data {\n        uint256 land;\n        string description;\n        string documents;\n        uint256 hashId;\n        bool hasValue;\n    }\n    \n    /// @notice Duration parameter can be perpetual (0) or for n years\n    struct TermsOfSale {\n        uint256 price;\n        uint256 duration;\n        string expectedProduction;\n        string periodicity;\n        uint256 expectedMaintenanceCost;\n        uint256 expectedProdActivityCost;\n        address owner;\n        address buyer;\n    }\n    \n    /// @dev All the portions\n    mapping (uint256 => Data) private portions;\n    /// @dev Portions grouped by land\n    mapping (uint256 => uint256[]) private portionsByLand;\n    /// @dev Portions grouped by owner's address\n    mapping (address => uint256[]) private portionsByOwner;\n    /// @dev Portions grouped by buyer's address\n    mapping (address => uint256[]) private portionsByBuyer;\n    /// @dev All the portion terms\n    mapping (uint256 => TermsOfSale) private portionTerms;\n    /// @dev Buyers grouped by portion\n    mapping (uint256 => address[]) buyersByPortions;\n    \n    /// @dev Portion counter\n    uint256 private lastPortionId;\n    \n    /// @dev Storage contract instance\n    Storage private dataStorage;\n    \n    /// @param _dataStorage Storage contract address\n    constructor (address _dataStorage) public  {\n        dataStorage = Storage(_dataStorage);\n    }\n    \n    /// @dev Portion terms can be defined only by the portion owner\n    modifier onlyOwner(uint256 _portionId) {\n        require(portionTerms[_portionId].owner == msg.sender, 'Only owner is allowed');\n        _;\n    }\n    \n    /// @dev Selling or transferring ownership can be performed only by owner or buyer\n    modifier onlyOwnerAndBuyer(uint256 _portionId) {\n        require(portionTerms[_portionId].owner == msg.sender || portionTerms[_portionId].buyer == msg.sender, 'Only owner or buyer are allowed');\n        _;\n    }\n    \n    /// @param _landId Land to be divided\n    /// @param _description Portion description\n    /// @param _documents Link of documents related to the portion\n    /// @param _base64 Base64 encoded documents\n    function register(uint256 _landId, string calldata _description, string calldata _documents, string calldata _base64) external {\n        portions[lastPortionId].description = _description;\n        portions[lastPortionId].documents = _documents;\n        portions[lastPortionId].land = _landId;\n        \n        portions[lastPortionId].hashId = dataStorage.add(_base64);\n        portions[lastPortionId].hasValue = true;\n        \n        lastPortionId++;\n    }\n\n    /// @param _landId Land to be divided\n    /// @param _description Portion description\n    /// @param _documents Link of documents related to the portion\n    /// @param _base64 Base64 encoded documents\n    /// @param _source Original sender from divide land\n    function register(uint256 _landId, string calldata _description, string calldata _documents, string calldata _base64, address _source) external {\n        portionsByLand[_landId].push(lastPortionId);\n        portionTerms[lastPortionId].owner = _source;\n        portionsByOwner[_source].push(lastPortionId);        \n        buyersByPortions[lastPortionId].push(_source);\n\n        this.register(_landId, _description, _documents, _base64);\n    }\n    \n    /// @param _portionId ID of portion related\n    /// @param _price Contract price\n    /// @param _duration Contract duration\n    /// @param _expectedProduction Production expected from the portion\n    /// @param _periodicity Production periodicity\n    /// @param _expectedMaintenanceCost Costs expected for maintenance\n    /// @param _expectedProdActivityCost Costs expected for production-related activities \n    function defineTerms(\n        uint256 _portionId,\n        uint256 _price,\n        uint256 _duration,\n        string calldata _expectedProduction,\n        string calldata _periodicity,\n        uint256 _expectedMaintenanceCost,\n        uint256 _expectedProdActivityCost\n    ) external onlyOwner(_portionId) {\n        portionTerms[_portionId].price = _price;\n        portionTerms[_portionId].duration = _duration;\n        portionTerms[_portionId].expectedProduction = _expectedProduction;\n        portionTerms[_portionId].periodicity = _periodicity;\n        portionTerms[_portionId].expectedMaintenanceCost = _expectedMaintenanceCost;\n        portionTerms[_portionId].expectedProdActivityCost = _expectedProdActivityCost;\n    }\n    \n    /// @notice Sell and transfer ownership\n    /// @param _id Portion ID\n    /// @param _buyer New buyer\n    function sell(uint256 _id, address _buyer) external onlyOwnerAndBuyer(_id) {\n        portionTerms[_id].buyer = _buyer;\n        portionsByBuyer[_buyer].push(_id);\n        \n        buyersByPortions[_id].push(_buyer);\n    }\n    \n    /// @param _id Portion ID\n    function ownershipExpiration(uint256 _id) external {\n        if (!portions[_id].hasValue) revert('Element does not exist');\n        if (portionTerms[_id].duration == 0 || now < portionTerms[_id].duration) revert('Owneship expiration not allowed');\n        portionTerms[_id].buyer = address(0);\n    }\n    \n    /// @param _id Portion ID\n    /// return the tuple containing the data related to the portion and its terms of sale\n    function getById(uint256 _id) external view returns (Data memory, TermsOfSale memory) {\n        return (portions[_id], portionTerms[_id]);\n    }\n\n    /// @param _land Land ID\n    /// return the array containing all the portions in a land\n    function getByLand(uint256 _land) external view returns (uint256[] memory) {\n        return (portionsByLand[_land]);\n    }\n    \n    /// @param _owner Owner address\n    /// @return the array containing all the portions owned\n    function getByOwner(address _owner) external view returns (uint256[] memory) {\n        return portionsByOwner[_owner];\n    }\n\n    /// @param _buyer Buyer address\n    /// @return the array containing all the portions bought\n    function getByBuyer(address _buyer) external view returns (uint256[] memory) {\n        return portionsByBuyer[_buyer];\n    }\n    \n    /// @param _id Portion ID\n    /// @return the array containing all the buyers for that portion\n    function getBuyersByPortion(uint256 _id) external view returns (address[] memory) {\n        return buyersByPortions[_id];\n    }\n    \n    /// @return the number of registered portions\n    function getTotal() external view returns (uint256) {\n        return lastPortionId;\n    }\n    \n    /// @param _description Product description\n    /// @param _id Portion ID for registering the product\n    /// @param _contractAddress Product contract address\n    function registerProduct(string calldata _description, uint256 _id, address _contractAddress) external {\n        if (!portions[_id].hasValue) revert('Element does not exist');\n        Product(_contractAddress).register(_description, _id, msg.sender);\n    }\n    \n    /// @param _description Production description\n    /// @param _id Portion ID for registering the production\n    /// @param _contractAddress Production contract address\n    function registerProductionActivity(string calldata _description, uint256 _id, address _contractAddress) external {\n        if (!portions[_id].hasValue) revert('Element does not exist');\n        ProductionActivity(_contractAddress).register(_description, _id, msg.sender);\n    }\n    \n    /// @param _description Maintenance description\n    /// @param _id Portion ID for registering the maintenance\n    /// @param _contractAddress Maintenance contract address\n    function registerMaintenance(string calldata _description, uint256 _id, address _contractAddress) external {\n        if (!portions[_id].hasValue) revert('Element does not exist');\n        Maintenance(_contractAddress).register(_description, _id, msg.sender);\n    }\n    \n}\n",
  "sourcePath": "/home/francesca/WebstormProjects/APT/contracts/Portion.sol",
  "compiler": {
    "name": "solc",
    "version": "0.6.12+commit.27d51765.Emscripten.clang"
  },
  "schemaVersion": "3.2.5",
  "updatedAt": "2020-10-15T08:42:11.601Z",
  "networkType": "ethereum",
  "devdoc": {
    "kind": "dev",
    "methods": {
      "constructor": {
        "params": {
          "_dataStorage": "Storage contract address"
        }
      },
      "defineTerms(uint256,uint256,uint256,string,string,uint256,uint256)": {
        "params": {
          "_duration": "Contract duration",
          "_expectedMaintenanceCost": "Costs expected for maintenance",
          "_expectedProdActivityCost": "Costs expected for production-related activities ",
          "_expectedProduction": "Production expected from the portion",
          "_periodicity": "Production periodicity",
          "_portionId": "ID of portion related",
          "_price": "Contract price"
        }
      },
      "getBuyersByPortion(uint256)": {
        "params": {
          "_id": "Portion ID"
        },
        "returns": {
          "_0": "the array containing all the buyers for that portion"
        }
      },
      "getByBuyer(address)": {
        "params": {
          "_buyer": "Buyer address"
        },
        "returns": {
          "_0": "the array containing all the portions bought"
        }
      },
      "getById(uint256)": {
        "params": {
          "_id": "Portion ID return the tuple containing the data related to the portion and its terms of sale"
        }
      },
      "getByLand(uint256)": {
        "params": {
          "_land": "Land ID return the array containing all the portions in a land"
        }
      },
      "getByOwner(address)": {
        "params": {
          "_owner": "Owner address"
        },
        "returns": {
          "_0": "the array containing all the portions owned"
        }
      },
      "getTotal()": {
        "returns": {
          "_0": "the number of registered portions"
        }
      },
      "ownershipExpiration(uint256)": {
        "params": {
          "_id": "Portion ID"
        }
      },
      "register(uint256,string,string,string)": {
        "params": {
          "_base64": "Base64 encoded documents",
          "_description": "Portion description",
          "_documents": "Link of documents related to the portion",
          "_landId": "Land to be divided"
        }
      },
      "register(uint256,string,string,string,address)": {
        "params": {
          "_base64": "Base64 encoded documents",
          "_description": "Portion description",
          "_documents": "Link of documents related to the portion",
          "_landId": "Land to be divided",
          "_source": "Original sender from divide land"
        }
      },
      "registerMaintenance(string,uint256,address)": {
        "params": {
          "_contractAddress": "Maintenance contract address",
          "_description": "Maintenance description",
          "_id": "Portion ID for registering the maintenance"
        }
      },
      "registerProduct(string,uint256,address)": {
        "params": {
          "_contractAddress": "Product contract address",
          "_description": "Product description",
          "_id": "Portion ID for registering the product"
        }
      },
      "registerProductionActivity(string,uint256,address)": {
        "params": {
          "_contractAddress": "Production contract address",
          "_description": "Production description",
          "_id": "Portion ID for registering the production"
        }
      },
      "sell(uint256,address)": {
        "params": {
          "_buyer": "New buyer",
          "_id": "Portion ID"
        }
      }
    },
    "stateVariables": {
      "buyersByPortions": {
        "details": "Buyers grouped by portion"
      },
      "dataStorage": {
        "details": "Storage contract instance"
      },
      "lastPortionId": {
        "details": "Portion counter"
      },
      "portionTerms": {
        "details": "All the portion terms"
      },
      "portions": {
        "details": "All the portions"
      },
      "portionsByBuyer": {
        "details": "Portions grouped by buyer's address"
      },
      "portionsByLand": {
        "details": "Portions grouped by land"
      },
      "portionsByOwner": {
        "details": "Portions grouped by owner's address"
      }
    },
    "title": "Contract representing a portion of land",
    "version": 1
  },
  "userdoc": {
    "kind": "user",
    "methods": {
      "sell(uint256,address)": {
        "notice": "Sell and transfer ownership"
      }
    },
    "version": 1
  }
}