{
  "contractName": "Product",
  "abi": [
    {
      "inputs": [
        {
          "internalType": "uint256",
          "name": "_id",
          "type": "uint256"
        },
        {
          "internalType": "string",
          "name": "_description",
          "type": "string"
        },
        {
          "internalType": "address",
          "name": "_source",
          "type": "address"
        }
      ],
      "name": "certify",
      "outputs": [],
      "stateMutability": "nonpayable",
      "type": "function"
    },
    {
      "inputs": [
        {
          "internalType": "uint256",
          "name": "_id",
          "type": "uint256"
        },
        {
          "internalType": "string",
          "name": "_description",
          "type": "string"
        }
      ],
      "name": "certify",
      "outputs": [],
      "stateMutability": "nonpayable",
      "type": "function"
    },
    {
      "inputs": [
        {
          "internalType": "address",
          "name": "_address",
          "type": "address"
        }
      ],
      "name": "getByCertifier",
      "outputs": [
        {
          "internalType": "uint256[]",
          "name": "",
          "type": "uint256[]"
        }
      ],
      "stateMutability": "view",
      "type": "function",
      "constant": true
    },
    {
      "inputs": [
        {
          "internalType": "uint256",
          "name": "_id",
          "type": "uint256"
        }
      ],
      "name": "getById",
      "outputs": [
        {
          "components": [
            {
              "internalType": "string",
              "name": "description",
              "type": "string"
            },
            {
              "internalType": "uint256",
              "name": "portion",
              "type": "uint256"
            },
            {
              "internalType": "address",
              "name": "registeredBy",
              "type": "address"
            }
          ],
          "internalType": "struct Recordable.Data",
          "name": "",
          "type": "tuple"
        }
      ],
      "stateMutability": "view",
      "type": "function",
      "constant": true
    },
    {
      "inputs": [
        {
          "internalType": "uint256",
          "name": "_item",
          "type": "uint256"
        }
      ],
      "name": "getByItem",
      "outputs": [
        {
          "internalType": "uint256[]",
          "name": "",
          "type": "uint256[]"
        }
      ],
      "stateMutability": "view",
      "type": "function",
      "constant": true
    },
    {
      "inputs": [
        {
          "internalType": "address",
          "name": "_address",
          "type": "address"
        }
      ],
      "name": "getByOperator",
      "outputs": [
        {
          "internalType": "uint256[]",
          "name": "",
          "type": "uint256[]"
        }
      ],
      "stateMutability": "view",
      "type": "function",
      "constant": true
    },
    {
      "inputs": [
        {
          "internalType": "uint256",
          "name": "_id",
          "type": "uint256"
        }
      ],
      "name": "getByPortion",
      "outputs": [
        {
          "internalType": "uint256[]",
          "name": "",
          "type": "uint256[]"
        }
      ],
      "stateMutability": "view",
      "type": "function",
      "constant": true
    },
    {
      "inputs": [
        {
          "internalType": "uint256",
          "name": "_id",
          "type": "uint256"
        }
      ],
      "name": "getCertificationById",
      "outputs": [
        {
          "components": [
            {
              "internalType": "string",
              "name": "description",
              "type": "string"
            },
            {
              "internalType": "address",
              "name": "certifier",
              "type": "address"
            }
          ],
          "internalType": "struct Certifiable.Certification",
          "name": "",
          "type": "tuple"
        }
      ],
      "stateMutability": "view",
      "type": "function",
      "constant": true
    },
    {
      "inputs": [],
      "name": "getTotal",
      "outputs": [
        {
          "internalType": "uint256",
          "name": "",
          "type": "uint256"
        }
      ],
      "stateMutability": "view",
      "type": "function",
      "constant": true
    },
    {
      "inputs": [
        {
          "internalType": "string",
          "name": "_description",
          "type": "string"
        },
        {
          "internalType": "uint256",
          "name": "_id",
          "type": "uint256"
        },
        {
          "internalType": "address",
          "name": "_source",
          "type": "address"
        }
      ],
      "name": "register",
      "outputs": [],
      "stateMutability": "nonpayable",
      "type": "function"
    },
    {
      "inputs": [
        {
          "internalType": "string",
          "name": "_description",
          "type": "string"
        },
        {
          "internalType": "uint256",
          "name": "_id",
          "type": "uint256"
        }
      ],
      "name": "register",
      "outputs": [],
      "stateMutability": "nonpayable",
      "type": "function"
    },
    {
      "inputs": [
        {
          "internalType": "uint256",
          "name": "_id",
          "type": "uint256"
        },
        {
          "internalType": "string",
          "name": "_description",
          "type": "string"
        }
      ],
      "name": "certifyProduct",
      "outputs": [],
      "stateMutability": "nonpayable",
      "type": "function"
    }
  ],
  "bytecode": "0x608060405234801561001057600080fd5b50611696806100206000396000f3fe608060405234801561001057600080fd5b50600436106100b45760003560e01c80635dc1aad3116100715780635dc1aad3146101c557806365b6f987146101e1578063775a25e3146101fd578063ea87152b1461021b578063f4f4d23714610237578063f7475edf14610267576100b4565b806304d6e3f6146100b957806327225077146100e957806331f5ff0d1461011957806337b2b5ad146101355780634a4d72e11461016557806352acbb5814610195575b600080fd5b6100d360048036038101906100ce9190611043565b610283565b6040516100e09190611369565b60405180910390f35b61010360048036038101906100fe9190611043565b6102ee565b60405161011091906113dd565b60405180910390f35b610133600480360381019061012e91906110c4565b610413565b005b61014f600480360381019061014a9190610f15565b610545565b60405161015c9190611369565b60405180910390f35b61017f600480360381019061017a9190610f15565b6105dc565b60405161018c9190611369565b60405180910390f35b6101af60048036038101906101aa9190611043565b610673565b6040516101bc9190611369565b60405180910390f35b6101df60048036038101906101da9190610f96565b6106de565b005b6101fb60048036038101906101f69190611130565b610811565b005b61020561088e565b6040516102129190611421565b60405180910390f35b61023560048036038101906102309190610f3e565b610898565b005b610251600480360381019061024c9190611043565b61092e565b60405161025e91906113ff565b60405180910390f35b610281600480360381019061027c919061106c565b610a5c565b005b6060600260008381526020019081526020016000208054806020026020016040519081016040528092919081815260200182805480156102e257602002820191906000526020600020905b8154815260200190600101908083116102ce575b50505050509050919050565b6102f6610bd3565b60056000838152602001908152602001600020604051806040016040529081600082018054600181600116156101000203166002900480601f0160208091040260200160405190810160405280929190818152602001828054600181600116156101000203166002900480156103ad5780601f10610382576101008083540402835291602001916103ad565b820191906000526020600020905b81548152906001019060200180831161039057829003601f168201915b505050505081526020016001820160009054906101000a900473ffffffffffffffffffffffffffffffffffffffff1673ffffffffffffffffffffffffffffffffffffffff1673ffffffffffffffffffffffffffffffffffffffff16815250509050919050565b8060056000600454815260200190815260200160002060010160006101000a81548173ffffffffffffffffffffffffffffffffffffffff021916908373ffffffffffffffffffffffffffffffffffffffff160217905550600660008273ffffffffffffffffffffffffffffffffffffffff1673ffffffffffffffffffffffffffffffffffffffff1681526020019081526020016000208490806001815401808255809150506001900390600052602060002001600090919091909150553073ffffffffffffffffffffffffffffffffffffffff166365b6f9878585856040518463ffffffff1660e01b815260040161050d9392919061143c565b600060405180830381600087803b15801561052757600080fd5b505af115801561053b573d6000803e3d6000fd5b5050505050505050565b6060600660008373ffffffffffffffffffffffffffffffffffffffff1673ffffffffffffffffffffffffffffffffffffffff1681526020019081526020016000208054806020026020016040519081016040528092919081815260200182805480156105d057602002820191906000526020600020905b8154815260200190600101908083116105bc575b50505050509050919050565b6060600160008373ffffffffffffffffffffffffffffffffffffffff1673ffffffffffffffffffffffffffffffffffffffff16815260200190815260200160002080548060200260200160405190810160405280929190818152602001828054801561066757602002820191906000526020600020905b815481526020019060010190808311610653575b50505050509050919050565b6060600760008381526020019081526020016000208054806020026020016040519081016040528092919081815260200182805480156106d257602002820191906000526020600020905b8154815260200190600101908083116106be575b50505050509050919050565b80600080600354815260200190815260200160002060020160006101000a81548173ffffffffffffffffffffffffffffffffffffffff021916908373ffffffffffffffffffffffffffffffffffffffff160217905550600160008273ffffffffffffffffffffffffffffffffffffffff1673ffffffffffffffffffffffffffffffffffffffff16815260200190815260200160002060035490806001815401808255809150506001900390600052602060002001600090919091909150553073ffffffffffffffffffffffffffffffffffffffff1663ea87152b8585856040518463ffffffff1660e01b81526004016107d99392919061138b565b600060405180830381600087803b1580156107f357600080fd5b505af1158015610807573d6000803e3d6000fd5b5050505050505050565b80600560006004548152602001908152602001600020600001908051906020019061083d929190610c03565b50600760008381526020019081526020016000208290806001815401808255809150506001900390600052602060002001600090919091909150556004600081548092919060010191905055505050565b6000600354905090565b8282600080600354815260200190815260200160002060000191906108be929190610c83565b5080600080600354815260200190815260200160002060010181905550600260008281526020019081526020016000206003549080600181540180825580915050600190039060005260206000200160009091909190915055600360008154809291906001019190505550505050565b610936610d03565b600080838152602001908152602001600020604051806060016040529081600082018054600181600116156101000203166002900480601f0160208091040260200160405190810160405280929190818152602001828054600181600116156101000203166002900480156109ec5780601f106109c1576101008083540402835291602001916109ec565b820191906000526020600020905b8154815290600101906020018083116109cf57829003601f168201915b50505050508152602001600182015481526020016002820160009054906101000a900473ffffffffffffffffffffffffffffffffffffffff1673ffffffffffffffffffffffffffffffffffffffff1673ffffffffffffffffffffffffffffffffffffffff16815250509050919050565b600073ffffffffffffffffffffffffffffffffffffffff163073ffffffffffffffffffffffffffffffffffffffff1663f4f4d237856040518263ffffffff1660e01b8152600401610aad9190611421565b60006040518083038186803b158015610ac557600080fd5b505afa158015610ad9573d6000803e3d6000fd5b505050506040513d6000823e3d601f19601f82011682018060405250810190610b029190611002565b6040015173ffffffffffffffffffffffffffffffffffffffff161415610b5d576040517f08c379a0000000000000000000000000000000000000000000000000000000008152600401610b54906113bd565b60405180910390fd5b3073ffffffffffffffffffffffffffffffffffffffff166331f5ff0d848484336040518563ffffffff1660e01b8152600401610b9c949392919061146e565b600060405180830381600087803b158015610bb657600080fd5b505af1158015610bca573d6000803e3d6000fd5b50505050505050565b604051806040016040528060608152602001600073ffffffffffffffffffffffffffffffffffffffff1681525090565b828054600181600116156101000203166002900490600052602060002090601f016020900481019282601f10610c4457805160ff1916838001178555610c72565b82800160010185558215610c72579182015b82811115610c71578251825591602001919060010190610c56565b5b509050610c7f9190610d3a565b5090565b828054600181600116156101000203166002900490600052602060002090601f016020900481019282601f10610cc457803560ff1916838001178555610cf2565b82800160010185558215610cf2579182015b82811115610cf1578235825591602001919060010190610cd6565b5b509050610cff9190610d3a565b5090565b60405180606001604052806060815260200160008152602001600073ffffffffffffffffffffffffffffffffffffffff1681525090565b5b80821115610d53576000816000905550600101610d3b565b5090565b600081359050610d6681611632565b92915050565b600081519050610d7b81611632565b92915050565b60008083601f840112610d9357600080fd5b8235905067ffffffffffffffff811115610dac57600080fd5b602083019150836001820283011115610dc457600080fd5b9250929050565b600082601f830112610ddc57600080fd5b8135610def610dea826114db565b6114ae565b91508082526020830160208301858383011115610e0b57600080fd5b610e168382846115df565b50505092915050565b600082601f830112610e3057600080fd5b8151610e43610e3e826114db565b6114ae565b91508082526020830160208301858383011115610e5f57600080fd5b610e6a8382846115ee565b50505092915050565b600060608284031215610e8557600080fd5b610e8f60606114ae565b9050600082015167ffffffffffffffff811115610eab57600080fd5b610eb784828501610e1f565b6000830152506020610ecb84828501610f00565b6020830152506040610edf84828501610d6c565b60408301525092915050565b600081359050610efa81611649565b92915050565b600081519050610f0f81611649565b92915050565b600060208284031215610f2757600080fd5b6000610f3584828501610d57565b91505092915050565b600080600060408486031215610f5357600080fd5b600084013567ffffffffffffffff811115610f6d57600080fd5b610f7986828701610d81565b93509350506020610f8c86828701610eeb565b9150509250925092565b60008060008060608587031215610fac57600080fd5b600085013567ffffffffffffffff811115610fc657600080fd5b610fd287828801610d81565b94509450506020610fe587828801610eeb565b9250506040610ff687828801610d57565b91505092959194509250565b60006020828403121561101457600080fd5b600082015167ffffffffffffffff81111561102e57600080fd5b61103a84828501610e73565b91505092915050565b60006020828403121561105557600080fd5b600061106384828501610eeb565b91505092915050565b60008060006040848603121561108157600080fd5b600061108f86828701610eeb565b935050602084013567ffffffffffffffff8111156110ac57600080fd5b6110b886828701610d81565b92509250509250925092565b600080600080606085870312156110da57600080fd5b60006110e887828801610eeb565b945050602085013567ffffffffffffffff81111561110557600080fd5b61111187828801610d81565b9350935050604061112487828801610d57565b91505092959194509250565b6000806040838503121561114357600080fd5b600061115185828601610eeb565b925050602083013567ffffffffffffffff81111561116e57600080fd5b61117a85828601610dcb565b9150509250929050565b6000611190838361134b565b60208301905092915050565b6111a5816115a9565b82525050565b6111b48161156d565b82525050565b60006111c582611517565b6111cf818561153a565b93506111da83611507565b8060005b8381101561120b5781516111f28882611184565b97506111fd8361152d565b9250506001810190506111de565b5085935050505092915050565b6000611224838561155c565b93506112318385846115df565b61123a83611621565b840190509392505050565b600061125082611522565b61125a818561154b565b935061126a8185602086016115ee565b61127381611621565b840191505092915050565b600061128b60168361155c565b91507f456c656d656e7420646f6573206e6f74206578697374000000000000000000006000830152602082019050919050565b600060408301600083015184820360008601526112db8282611245565b91505060208301516112f060208601826111ab565b508091505092915050565b600060608301600083015184820360008601526113188282611245565b915050602083015161132d602086018261134b565b50604083015161134060408601826111ab565b508091505092915050565b6113548161159f565b82525050565b6113638161159f565b82525050565b6000602082019050818103600083015261138381846111ba565b905092915050565b600060408201905081810360008301526113a6818587611218565b90506113b5602083018461135a565b949350505050565b600060208201905081810360008301526113d68161127e565b9050919050565b600060208201905081810360008301526113f781846112be565b905092915050565b6000602082019050818103600083015261141981846112fb565b905092915050565b6000602082019050611436600083018461135a565b92915050565b6000604082019050611451600083018661135a565b8181036020830152611464818486611218565b9050949350505050565b6000606082019050611483600083018761135a565b8181036020830152611496818587611218565b90506114a5604083018461119c565b95945050505050565b6000604051905081810181811067ffffffffffffffff821117156114d157600080fd5b8060405250919050565b600067ffffffffffffffff8211156114f257600080fd5b601f19601f8301169050602081019050919050565b6000819050602082019050919050565b600081519050919050565b600081519050919050565b6000602082019050919050565b600082825260208201905092915050565b600082825260208201905092915050565b600082825260208201905092915050565b60006115788261157f565b9050919050565b600073ffffffffffffffffffffffffffffffffffffffff82169050919050565b6000819050919050565b60006115b4826115bb565b9050919050565b60006115c6826115cd565b9050919050565b60006115d88261157f565b9050919050565b82818337600083830152505050565b60005b8381101561160c5780820151818401526020810190506115f1565b8381111561161b576000848401525b50505050565b6000601f19601f8301169050919050565b61163b8161156d565b811461164657600080fd5b50565b6116528161159f565b811461165d57600080fd5b5056fea2646970667358221220364e27b9d582d0595720c3f547071d529607cf31020dbb2567e7b3a725ad2d8164736f6c634300060c0033",
  "immutableReferences": {},
  "source": "// SPDX-License-Identifier: MIT\n\npragma solidity ^0.6.0;\npragma experimental ABIEncoderV2;\n\n//import '../../OpenZeppelin/openzeppelin-contracts/contracts/math/SafeMath.sol';\nimport '@openzeppelin/contracts/math/SafeMath.sol';\n\nimport './Recordable.sol';\nimport './Certifiable.sol';\n\n/// @title Product item contract. A product is recordable by an operator and certifiable by a certifier.\ncontract Product is Recordable, Certifiable {\n    \n    /// @param _id Product ID\n    /// @param _description Description of certification\n    function certifyProduct(uint256 _id, string calldata _description) external {\n        if (this.getById(_id).registeredBy == address(0)) revert('Element does not exist');\n        this.certify(_id, _description, msg.sender);\n    }\n}\n",
  "sourcePath": "/home/francesca/WebstormProjects/PSAB-Contracts/contracts/Product.sol",
  "compiler": {
    "name": "solc",
    "version": "0.6.12+commit.27d51765.Emscripten.clang"
  },
  "schemaVersion": "3.2.5",
  "updatedAt": "2020-10-24T23:36:09.188Z",
  "networkType": "ethereum",
  "devdoc": {
    "kind": "dev",
    "methods": {
      "certify(uint256,string)": {
        "params": {
          "_description": "Certification description",
          "_id": "Item to be certified"
        }
      },
      "certify(uint256,string,address)": {
        "params": {
          "_description": "Certification description",
          "_id": "Item to be certified",
          "_source": "Original sender"
        }
      },
      "certifyProduct(uint256,string)": {
        "params": {
          "_description": "Description of certification",
          "_id": "Product ID"
        }
      },
      "getByCertifier(address)": {
        "params": {
          "_address": "Certifier address for which to retrieve certifications"
        },
        "returns": {
          "_0": "the array containing all the certifications perfomed by a specific certifier"
        }
      },
      "getById(uint256)": {
        "params": {
          "_id": "Item ID"
        },
        "returns": {
          "_0": "the item data only if the item exists"
        }
      },
      "getByItem(uint256)": {
        "params": {
          "_item": "Item ID for which to retrieve certifications"
        },
        "returns": {
          "_0": "the array containing all the certifications related to a specific item"
        }
      },
      "getByOperator(address)": {
        "params": {
          "_address": "Operator's address"
        },
        "returns": {
          "_0": "the array containing all the item IDs registered by a specific operator"
        }
      },
      "getByPortion(uint256)": {
        "params": {
          "_id": "Portion ID"
        },
        "returns": {
          "_0": "the array containing all the the item IDs registered in a specific portion"
        }
      },
      "getCertificationById(uint256)": {
        "params": {
          "_id": "Item for which to retrieve certifications"
        },
        "returns": {
          "_0": "the related certification"
        }
      },
      "getTotal()": {
        "returns": {
          "_0": "the number of registerd items"
        }
      },
      "register(string,uint256)": {
        "params": {
          "_description": "Item description",
          "_id": "Related portion ID"
        }
      },
      "register(string,uint256,address)": {
        "params": {
          "_description": "Item description",
          "_id": "Related portion ID",
          "_source": "Original sender"
        }
      }
    },
    "title": "Product item contract. A product is recordable by an operator and certifiable by a certifier.",
    "version": 1
  },
  "userdoc": {
    "kind": "user",
    "methods": {},
    "version": 1
  }
}