{
  "contractName": "Product",
  "abi": [
    {
      "inputs": [
        {
          "internalType": "uint256",
          "name": "_id",
          "type": "uint256"
        },
        {
          "internalType": "string",
          "name": "_description",
          "type": "string"
        }
      ],
      "name": "certify",
      "outputs": [],
      "stateMutability": "nonpayable",
      "type": "function"
    },
    {
      "inputs": [
        {
          "internalType": "address",
          "name": "_address",
          "type": "address"
        }
      ],
      "name": "getByCertifier",
      "outputs": [
        {
          "internalType": "uint256[]",
          "name": "",
          "type": "uint256[]"
        }
      ],
      "stateMutability": "view",
      "type": "function",
      "constant": true
    },
    {
      "inputs": [
        {
          "internalType": "uint256",
          "name": "_id",
          "type": "uint256"
        }
      ],
      "name": "getById",
      "outputs": [
        {
          "components": [
            {
              "internalType": "string",
              "name": "description",
              "type": "string"
            },
            {
              "internalType": "uint256",
              "name": "portion",
              "type": "uint256"
            },
            {
              "internalType": "address",
              "name": "registeredBy",
              "type": "address"
            }
          ],
          "internalType": "struct Recordable.Data",
          "name": "",
          "type": "tuple"
        }
      ],
      "stateMutability": "view",
      "type": "function",
      "constant": true
    },
    {
      "inputs": [
        {
          "internalType": "uint256",
          "name": "_item",
          "type": "uint256"
        }
      ],
      "name": "getByItem",
      "outputs": [
        {
          "internalType": "uint256[]",
          "name": "",
          "type": "uint256[]"
        }
      ],
      "stateMutability": "view",
      "type": "function",
      "constant": true
    },
    {
      "inputs": [
        {
          "internalType": "address",
          "name": "_address",
          "type": "address"
        }
      ],
      "name": "getByOperator",
      "outputs": [
        {
          "internalType": "uint256[]",
          "name": "",
          "type": "uint256[]"
        }
      ],
      "stateMutability": "view",
      "type": "function",
      "constant": true
    },
    {
      "inputs": [
        {
          "internalType": "uint256",
          "name": "_id",
          "type": "uint256"
        }
      ],
      "name": "getByPortion",
      "outputs": [
        {
          "internalType": "uint256[]",
          "name": "",
          "type": "uint256[]"
        }
      ],
      "stateMutability": "view",
      "type": "function",
      "constant": true
    },
    {
      "inputs": [
        {
          "internalType": "uint256",
          "name": "_id",
          "type": "uint256"
        }
      ],
      "name": "getCertificationById",
      "outputs": [
        {
          "components": [
            {
              "internalType": "string",
              "name": "description",
              "type": "string"
            },
            {
              "internalType": "address",
              "name": "certifier",
              "type": "address"
            }
          ],
          "internalType": "struct Certifiable.Certification",
          "name": "",
          "type": "tuple"
        }
      ],
      "stateMutability": "view",
      "type": "function",
      "constant": true
    },
    {
      "inputs": [],
      "name": "getTotal",
      "outputs": [
        {
          "internalType": "uint256",
          "name": "",
          "type": "uint256"
        }
      ],
      "stateMutability": "view",
      "type": "function",
      "constant": true
    },
    {
      "inputs": [
        {
          "internalType": "string",
          "name": "_description",
          "type": "string"
        },
        {
          "internalType": "uint256",
          "name": "_id",
          "type": "uint256"
        },
        {
          "internalType": "address",
          "name": "_source",
          "type": "address"
        }
      ],
      "name": "register",
      "outputs": [],
      "stateMutability": "nonpayable",
      "type": "function"
    },
    {
      "inputs": [
        {
          "internalType": "string",
          "name": "_description",
          "type": "string"
        },
        {
          "internalType": "uint256",
          "name": "_id",
          "type": "uint256"
        }
      ],
      "name": "register",
      "outputs": [],
      "stateMutability": "nonpayable",
      "type": "function"
    },
    {
      "inputs": [
        {
          "internalType": "uint256",
          "name": "_id",
          "type": "uint256"
        },
        {
          "internalType": "string",
          "name": "_description",
          "type": "string"
        }
      ],
      "name": "certifyProduct",
      "outputs": [],
      "stateMutability": "nonpayable",
      "type": "function"
    }
  ],
  "bytecode": "0x608060405234801561001057600080fd5b506113db806100206000396000f3fe608060405234801561001057600080fd5b50600436106100a95760003560e01c80635dc1aad3116100715780635dc1aad31461019e57806365b6f987146101ba578063775a25e3146101d6578063ea87152b146101f4578063f4f4d23714610210578063f7475edf14610240576100a9565b806304d6e3f6146100ae57806327225077146100de57806337b2b5ad1461010e5780634a4d72e11461013e57806352acbb581461016e575b600080fd5b6100c860048036038101906100c39190610ecd565b61025c565b6040516100d59190611124565b60405180910390f35b6100f860048036038101906100f39190610ecd565b6102c7565b6040516101059190611198565b60405180910390f35b61012860048036038101906101239190610d9f565b6103ec565b6040516101359190611124565b60405180910390f35b61015860048036038101906101539190610d9f565b610483565b6040516101659190611124565b60405180910390f35b61018860048036038101906101839190610ecd565b61051a565b6040516101959190611124565b60405180910390f35b6101b860048036038101906101b39190610e20565b610585565b005b6101d460048036038101906101cf9190610ef6565b6106b8565b005b6101de6107ee565b6040516101eb91906111dc565b60405180910390f35b61020e60048036038101906102099190610dc8565b6107f8565b005b61022a60048036038101906102259190610ecd565b61088e565b60405161023791906111ba565b60405180910390f35b61025a60048036038101906102559190610ef6565b6109bc565b005b6060600260008381526020019081526020016000208054806020026020016040519081016040528092919081815260200182805480156102bb57602002820191906000526020600020905b8154815260200190600101908083116102a7575b50505050509050919050565b6102cf610b31565b60056000838152602001908152602001600020604051806040016040529081600082018054600181600116156101000203166002900480601f0160208091040260200160405190810160405280929190818152602001828054600181600116156101000203166002900480156103865780601f1061035b57610100808354040283529160200191610386565b820191906000526020600020905b81548152906001019060200180831161036957829003601f168201915b505050505081526020016001820160009054906101000a900473ffffffffffffffffffffffffffffffffffffffff1673ffffffffffffffffffffffffffffffffffffffff1673ffffffffffffffffffffffffffffffffffffffff16815250509050919050565b6060600660008373ffffffffffffffffffffffffffffffffffffffff1673ffffffffffffffffffffffffffffffffffffffff16815260200190815260200160002080548060200260200160405190810160405280929190818152602001828054801561047757602002820191906000526020600020905b815481526020019060010190808311610463575b50505050509050919050565b6060600160008373ffffffffffffffffffffffffffffffffffffffff1673ffffffffffffffffffffffffffffffffffffffff16815260200190815260200160002080548060200260200160405190810160405280929190818152602001828054801561050e57602002820191906000526020600020905b8154815260200190600101908083116104fa575b50505050509050919050565b60606007600083815260200190815260200160002080548060200260200160405190810160405280929190818152602001828054801561057957602002820191906000526020600020905b815481526020019060010190808311610565575b50505050509050919050565b80600080600354815260200190815260200160002060020160006101000a81548173ffffffffffffffffffffffffffffffffffffffff021916908373ffffffffffffffffffffffffffffffffffffffff160217905550600160008273ffffffffffffffffffffffffffffffffffffffff1673ffffffffffffffffffffffffffffffffffffffff16815260200190815260200160002060035490806001815401808255809150506001900390600052602060002001600090919091909150553073ffffffffffffffffffffffffffffffffffffffff1663ea87152b8585856040518463ffffffff1660e01b815260040161068093929190611146565b600060405180830381600087803b15801561069a57600080fd5b505af11580156106ae573d6000803e3d6000fd5b5050505050505050565b818160056000600454815260200190815260200160002060000191906106df929190610b61565b503360056000600454815260200190815260200160002060010160006101000a81548173ffffffffffffffffffffffffffffffffffffffff021916908373ffffffffffffffffffffffffffffffffffffffff16021790555060076000848152602001908152602001600020839080600181540180825580915050600190039060005260206000200160009091909190915055600660003373ffffffffffffffffffffffffffffffffffffffff1673ffffffffffffffffffffffffffffffffffffffff168152602001908152602001600020839080600181540180825580915050600190039060005260206000200160009091909190915055600460008154809291906001019190505550505050565b6000600354905090565b82826000806003548152602001908152602001600020600001919061081e929190610b61565b5080600080600354815260200190815260200160002060010181905550600260008281526020019081526020016000206003549080600181540180825580915050600190039060005260206000200160009091909190915055600360008154809291906001019190505550505050565b610896610be1565b600080838152602001908152602001600020604051806060016040529081600082018054600181600116156101000203166002900480601f01602080910402602001604051908101604052809291908181526020018280546001816001161561010002031660029004801561094c5780601f106109215761010080835404028352916020019161094c565b820191906000526020600020905b81548152906001019060200180831161092f57829003601f168201915b50505050508152602001600182015481526020016002820160009054906101000a900473ffffffffffffffffffffffffffffffffffffffff1673ffffffffffffffffffffffffffffffffffffffff1673ffffffffffffffffffffffffffffffffffffffff16815250509050919050565b600073ffffffffffffffffffffffffffffffffffffffff163073ffffffffffffffffffffffffffffffffffffffff1663f4f4d237856040518263ffffffff1660e01b8152600401610a0d91906111dc565b60006040518083038186803b158015610a2557600080fd5b505afa158015610a39573d6000803e3d6000fd5b505050506040513d6000823e3d601f19601f82011682018060405250810190610a629190610e8c565b6040015173ffffffffffffffffffffffffffffffffffffffff161415610abd576040517f08c379a0000000000000000000000000000000000000000000000000000000008152600401610ab490611178565b60405180910390fd5b3073ffffffffffffffffffffffffffffffffffffffff166365b6f9878484846040518463ffffffff1660e01b8152600401610afa939291906111f7565b600060405180830381600087803b158015610b1457600080fd5b505af1158015610b28573d6000803e3d6000fd5b50505050505050565b604051806040016040528060608152602001600073ffffffffffffffffffffffffffffffffffffffff1681525090565b828054600181600116156101000203166002900490600052602060002090601f016020900481019282601f10610ba257803560ff1916838001178555610bd0565b82800160010185558215610bd0579182015b82811115610bcf578235825591602001919060010190610bb4565b5b509050610bdd9190610c18565b5090565b60405180606001604052806060815260200160008152602001600073ffffffffffffffffffffffffffffffffffffffff1681525090565b5b80821115610c31576000816000905550600101610c19565b5090565b600081359050610c4481611377565b92915050565b600081519050610c5981611377565b92915050565b60008083601f840112610c7157600080fd5b8235905067ffffffffffffffff811115610c8a57600080fd5b602083019150836001820283011115610ca257600080fd5b9250929050565b600082601f830112610cba57600080fd5b8151610ccd610cc882611256565b611229565b91508082526020830160208301858383011115610ce957600080fd5b610cf4838284611333565b50505092915050565b600060608284031215610d0f57600080fd5b610d196060611229565b9050600082015167ffffffffffffffff811115610d3557600080fd5b610d4184828501610ca9565b6000830152506020610d5584828501610d8a565b6020830152506040610d6984828501610c4a565b60408301525092915050565b600081359050610d848161138e565b92915050565b600081519050610d998161138e565b92915050565b600060208284031215610db157600080fd5b6000610dbf84828501610c35565b91505092915050565b600080600060408486031215610ddd57600080fd5b600084013567ffffffffffffffff811115610df757600080fd5b610e0386828701610c5f565b93509350506020610e1686828701610d75565b9150509250925092565b60008060008060608587031215610e3657600080fd5b600085013567ffffffffffffffff811115610e5057600080fd5b610e5c87828801610c5f565b94509450506020610e6f87828801610d75565b9250506040610e8087828801610c35565b91505092959194509250565b600060208284031215610e9e57600080fd5b600082015167ffffffffffffffff811115610eb857600080fd5b610ec484828501610cfd565b91505092915050565b600060208284031215610edf57600080fd5b6000610eed84828501610d75565b91505092915050565b600080600060408486031215610f0b57600080fd5b6000610f1986828701610d75565b935050602084013567ffffffffffffffff811115610f3657600080fd5b610f4286828701610c5f565b92509250509250925092565b6000610f5a8383611106565b60208301905092915050565b610f6f816112e8565b82525050565b6000610f8082611292565b610f8a81856112b5565b9350610f9583611282565b8060005b83811015610fc6578151610fad8882610f4e565b9750610fb8836112a8565b925050600181019050610f99565b5085935050505092915050565b6000610fdf83856112d7565b9350610fec838584611324565b610ff583611366565b840190509392505050565b600061100b8261129d565b61101581856112c6565b9350611025818560208601611333565b61102e81611366565b840191505092915050565b60006110466016836112d7565b91507f456c656d656e7420646f6573206e6f74206578697374000000000000000000006000830152602082019050919050565b600060408301600083015184820360008601526110968282611000565b91505060208301516110ab6020860182610f66565b508091505092915050565b600060608301600083015184820360008601526110d38282611000565b91505060208301516110e86020860182611106565b5060408301516110fb6040860182610f66565b508091505092915050565b61110f8161131a565b82525050565b61111e8161131a565b82525050565b6000602082019050818103600083015261113e8184610f75565b905092915050565b60006040820190508181036000830152611161818587610fd3565b90506111706020830184611115565b949350505050565b6000602082019050818103600083015261119181611039565b9050919050565b600060208201905081810360008301526111b28184611079565b905092915050565b600060208201905081810360008301526111d481846110b6565b905092915050565b60006020820190506111f16000830184611115565b92915050565b600060408201905061120c6000830186611115565b818103602083015261121f818486610fd3565b9050949350505050565b6000604051905081810181811067ffffffffffffffff8211171561124c57600080fd5b8060405250919050565b600067ffffffffffffffff82111561126d57600080fd5b601f19601f8301169050602081019050919050565b6000819050602082019050919050565b600081519050919050565b600081519050919050565b6000602082019050919050565b600082825260208201905092915050565b600082825260208201905092915050565b600082825260208201905092915050565b60006112f3826112fa565b9050919050565b600073ffffffffffffffffffffffffffffffffffffffff82169050919050565b6000819050919050565b82818337600083830152505050565b60005b83811015611351578082015181840152602081019050611336565b83811115611360576000848401525b50505050565b6000601f19601f8301169050919050565b611380816112e8565b811461138b57600080fd5b50565b6113978161131a565b81146113a257600080fd5b5056fea26469706673582212204cc709e73ce2629c00e087de31255344db6b628e3b3e5b6c4282f22b44d166a964736f6c634300060c0033",
  "immutableReferences": {},
  "source": "// SPDX-License-Identifier: MIT\n\npragma solidity ^0.6.0;\npragma experimental ABIEncoderV2;\n\n//import '../../OpenZeppelin/openzeppelin-contracts/contracts/math/SafeMath.sol';\nimport '@openzeppelin/contracts/math/SafeMath.sol';\n\nimport './Recordable.sol';\nimport './Certifiable.sol';\n\n/// @title Product item contract. A product is recordable by an operator and certifiable by a certifier.\ncontract Product is Recordable, Certifiable {\n    \n    /// @param _id Product ID\n    /// @param _description Description of certification\n    function certifyProduct(uint256 _id, string calldata _description) external {\n        if (this.getById(_id).registeredBy == address(0)) revert('Element does not exist');\n        this.certify(_id, _description);\n    }\n}\n",
  "sourcePath": "/home/francesca/WebstormProjects/APT/contracts/Product.sol",
  "compiler": {
    "name": "solc",
    "version": "0.6.12+commit.27d51765.Emscripten.clang"
  },
  "schemaVersion": "3.2.5",
  "updatedAt": "2020-10-01T14:27:29.450Z",
  "networkType": "ethereum",
  "devdoc": {
    "kind": "dev",
    "methods": {
      "certify(uint256,string)": {
        "params": {
          "_description": "Certification description",
          "_id": "Item to be certified"
        }
      },
      "certifyProduct(uint256,string)": {
        "params": {
          "_description": "Description of certification",
          "_id": "Product ID"
        }
      },
      "getByCertifier(address)": {
        "params": {
          "_address": "Certifier address for which to retrieve certifications"
        },
        "returns": {
          "_0": "the array containing all the certifications perfomed by a specific certifier"
        }
      },
      "getById(uint256)": {
        "params": {
          "_id": "Item ID"
        },
        "returns": {
          "_0": "the item data only if the item exists"
        }
      },
      "getByItem(uint256)": {
        "params": {
          "_item": "Item ID for which to retrieve certifications"
        },
        "returns": {
          "_0": "the array containing all the certifications related to a specific item"
        }
      },
      "getByOperator(address)": {
        "params": {
          "_address": "Operator's address"
        },
        "returns": {
          "_0": "the array containing all the item IDs registered by a specific operator"
        }
      },
      "getByPortion(uint256)": {
        "params": {
          "_id": "Portion ID"
        },
        "returns": {
          "_0": "the array containing all the the item IDs registered in a specific portion"
        }
      },
      "getCertificationById(uint256)": {
        "params": {
          "_id": "Item for which to retrieve certifications"
        },
        "returns": {
          "_0": "the related certification"
        }
      },
      "getTotal()": {
        "returns": {
          "_0": "the number of registerd items"
        }
      },
      "register(string,uint256)": {
        "params": {
          "_description": "Item description",
          "_id": "Related portion ID"
        }
      },
      "register(string,uint256,address)": {
        "params": {
          "_description": "Item description",
          "_id": "Related portion ID",
          "_source": "Original sender"
        }
      }
    },
    "title": "Product item contract. A product is recordable by an operator and certifiable by a certifier.",
    "version": 1
  },
  "userdoc": {
    "kind": "user",
    "methods": {},
    "version": 1
  }
}