{
  "contractName": "ProductionActivity",
  "abi": [
    {
      "inputs": [
        {
          "internalType": "uint256",
          "name": "_id",
          "type": "uint256"
        },
        {
          "internalType": "string",
          "name": "_description",
          "type": "string"
        },
        {
          "internalType": "address",
          "name": "_source",
          "type": "address"
        }
      ],
      "name": "certify",
      "outputs": [],
      "stateMutability": "nonpayable",
      "type": "function"
    },
    {
      "inputs": [
        {
          "internalType": "uint256",
          "name": "_id",
          "type": "uint256"
        },
        {
          "internalType": "string",
          "name": "_description",
          "type": "string"
        }
      ],
      "name": "certify",
      "outputs": [],
      "stateMutability": "nonpayable",
      "type": "function"
    },
    {
      "inputs": [
        {
          "internalType": "address",
          "name": "_address",
          "type": "address"
        }
      ],
      "name": "getByCertifier",
      "outputs": [
        {
          "internalType": "uint256[]",
          "name": "",
          "type": "uint256[]"
        }
      ],
      "stateMutability": "view",
      "type": "function",
      "constant": true
    },
    {
      "inputs": [
        {
          "internalType": "uint256",
          "name": "_id",
          "type": "uint256"
        }
      ],
      "name": "getById",
      "outputs": [
        {
          "components": [
            {
              "internalType": "string",
              "name": "description",
              "type": "string"
            },
            {
              "internalType": "uint256",
              "name": "portion",
              "type": "uint256"
            },
            {
              "internalType": "address",
              "name": "registeredBy",
              "type": "address"
            }
          ],
          "internalType": "struct Recordable.Data",
          "name": "",
          "type": "tuple"
        }
      ],
      "stateMutability": "view",
      "type": "function",
      "constant": true
    },
    {
      "inputs": [
        {
          "internalType": "uint256",
          "name": "_item",
          "type": "uint256"
        }
      ],
      "name": "getByItem",
      "outputs": [
        {
          "internalType": "uint256[]",
          "name": "",
          "type": "uint256[]"
        }
      ],
      "stateMutability": "view",
      "type": "function",
      "constant": true
    },
    {
      "inputs": [
        {
          "internalType": "address",
          "name": "_address",
          "type": "address"
        }
      ],
      "name": "getByOperator",
      "outputs": [
        {
          "internalType": "uint256[]",
          "name": "",
          "type": "uint256[]"
        }
      ],
      "stateMutability": "view",
      "type": "function",
      "constant": true
    },
    {
      "inputs": [
        {
          "internalType": "uint256",
          "name": "_id",
          "type": "uint256"
        }
      ],
      "name": "getByPortion",
      "outputs": [
        {
          "internalType": "uint256[]",
          "name": "",
          "type": "uint256[]"
        }
      ],
      "stateMutability": "view",
      "type": "function",
      "constant": true
    },
    {
      "inputs": [
        {
          "internalType": "uint256",
          "name": "_id",
          "type": "uint256"
        }
      ],
      "name": "getCertificationById",
      "outputs": [
        {
          "components": [
            {
              "internalType": "string",
              "name": "description",
              "type": "string"
            },
            {
              "internalType": "address",
              "name": "certifier",
              "type": "address"
            }
          ],
          "internalType": "struct Certifiable.Certification",
          "name": "",
          "type": "tuple"
        }
      ],
      "stateMutability": "view",
      "type": "function",
      "constant": true
    },
    {
      "inputs": [],
      "name": "getTotal",
      "outputs": [
        {
          "internalType": "uint256",
          "name": "",
          "type": "uint256"
        }
      ],
      "stateMutability": "view",
      "type": "function",
      "constant": true
    },
    {
      "inputs": [
        {
          "internalType": "string",
          "name": "_description",
          "type": "string"
        },
        {
          "internalType": "uint256",
          "name": "_id",
          "type": "uint256"
        },
        {
          "internalType": "address",
          "name": "_source",
          "type": "address"
        }
      ],
      "name": "register",
      "outputs": [],
      "stateMutability": "nonpayable",
      "type": "function"
    },
    {
      "inputs": [
        {
          "internalType": "string",
          "name": "_description",
          "type": "string"
        },
        {
          "internalType": "uint256",
          "name": "_id",
          "type": "uint256"
        }
      ],
      "name": "register",
      "outputs": [],
      "stateMutability": "nonpayable",
      "type": "function"
    },
    {
      "inputs": [
        {
          "internalType": "uint256",
          "name": "_id",
          "type": "uint256"
        },
        {
          "internalType": "string",
          "name": "_description",
          "type": "string"
        }
      ],
      "name": "certifyProduction",
      "outputs": [],
      "stateMutability": "nonpayable",
      "type": "function"
    }
  ],
  "bytecode": "0x608060405234801561001057600080fd5b5061156a806100206000396000f3fe608060405234801561001057600080fd5b50600436106100b45760003560e01c80635dc1aad3116100715780635dc1aad3146101c557806365b6f987146101e1578063775a25e3146101fd578063e10ef8901461021b578063ea87152b14610237578063f4f4d23714610253576100b4565b806304d6e3f6146100b957806327225077146100e957806331f5ff0d1461011957806337b2b5ad146101355780634a4d72e11461016557806352acbb5814610195575b600080fd5b6100d360048036038101906100ce9190610f6b565b610283565b6040516100e0919061123d565b60405180910390f35b61010360048036038101906100fe9190610f6b565b6102ee565b60405161011091906112b1565b60405180910390f35b610133600480360381019061012e9190610fec565b610413565b005b61014f600480360381019061014a9190610e3d565b610545565b60405161015c919061123d565b60405180910390f35b61017f600480360381019061017a9190610e3d565b6105dc565b60405161018c919061123d565b60405180910390f35b6101af60048036038101906101aa9190610f6b565b610673565b6040516101bc919061123d565b60405180910390f35b6101df60048036038101906101da9190610ebe565b6106de565b005b6101fb60048036038101906101f69190610f94565b610811565b005b61020561088a565b60405161021291906112f5565b60405180910390f35b61023560048036038101906102309190610f94565b610894565b005b610251600480360381019061024c9190610e66565b610a0b565b005b61026d60048036038101906102689190610f6b565b610aa1565b60405161027a91906112d3565b60405180910390f35b6060600260008381526020019081526020016000208054806020026020016040519081016040528092919081815260200182805480156102e257602002820191906000526020600020905b8154815260200190600101908083116102ce575b50505050509050919050565b6102f6610bcf565b60056000838152602001908152602001600020604051806040016040529081600082018054600181600116156101000203166002900480601f0160208091040260200160405190810160405280929190818152602001828054600181600116156101000203166002900480156103ad5780601f10610382576101008083540402835291602001916103ad565b820191906000526020600020905b81548152906001019060200180831161039057829003601f168201915b505050505081526020016001820160009054906101000a900473ffffffffffffffffffffffffffffffffffffffff1673ffffffffffffffffffffffffffffffffffffffff1673ffffffffffffffffffffffffffffffffffffffff16815250509050919050565b8060056000600454815260200190815260200160002060010160006101000a81548173ffffffffffffffffffffffffffffffffffffffff021916908373ffffffffffffffffffffffffffffffffffffffff160217905550600660008273ffffffffffffffffffffffffffffffffffffffff1673ffffffffffffffffffffffffffffffffffffffff1681526020019081526020016000208490806001815401808255809150506001900390600052602060002001600090919091909150553073ffffffffffffffffffffffffffffffffffffffff166365b6f9878585856040518463ffffffff1660e01b815260040161050d93929190611310565b600060405180830381600087803b15801561052757600080fd5b505af115801561053b573d6000803e3d6000fd5b5050505050505050565b6060600660008373ffffffffffffffffffffffffffffffffffffffff1673ffffffffffffffffffffffffffffffffffffffff1681526020019081526020016000208054806020026020016040519081016040528092919081815260200182805480156105d057602002820191906000526020600020905b8154815260200190600101908083116105bc575b50505050509050919050565b6060600160008373ffffffffffffffffffffffffffffffffffffffff1673ffffffffffffffffffffffffffffffffffffffff16815260200190815260200160002080548060200260200160405190810160405280929190818152602001828054801561066757602002820191906000526020600020905b815481526020019060010190808311610653575b50505050509050919050565b6060600760008381526020019081526020016000208054806020026020016040519081016040528092919081815260200182805480156106d257602002820191906000526020600020905b8154815260200190600101908083116106be575b50505050509050919050565b80600080600354815260200190815260200160002060020160006101000a81548173ffffffffffffffffffffffffffffffffffffffff021916908373ffffffffffffffffffffffffffffffffffffffff160217905550600160008273ffffffffffffffffffffffffffffffffffffffff1673ffffffffffffffffffffffffffffffffffffffff16815260200190815260200160002060035490806001815401808255809150506001900390600052602060002001600090919091909150553073ffffffffffffffffffffffffffffffffffffffff1663ea87152b8585856040518463ffffffff1660e01b81526004016107d99392919061125f565b600060405180830381600087803b1580156107f357600080fd5b505af1158015610807573d6000803e3d6000fd5b5050505050505050565b81816005600060045481526020019081526020016000206000019190610838929190610bff565b5060076000848152602001908152602001600020839080600181540180825580915050600190039060005260206000200160009091909190915055600460008154809291906001019190505550505050565b6000600354905090565b600073ffffffffffffffffffffffffffffffffffffffff163073ffffffffffffffffffffffffffffffffffffffff1663f4f4d237856040518263ffffffff1660e01b81526004016108e591906112f5565b60006040518083038186803b1580156108fd57600080fd5b505afa158015610911573d6000803e3d6000fd5b505050506040513d6000823e3d601f19601f8201168201806040525081019061093a9190610f2a565b6040015173ffffffffffffffffffffffffffffffffffffffff161415610995576040517f08c379a000000000000000000000000000000000000000000000000000000000815260040161098c90611291565b60405180910390fd5b3073ffffffffffffffffffffffffffffffffffffffff166331f5ff0d848484336040518563ffffffff1660e01b81526004016109d49493929190611342565b600060405180830381600087803b1580156109ee57600080fd5b505af1158015610a02573d6000803e3d6000fd5b50505050505050565b828260008060035481526020019081526020016000206000019190610a31929190610bff565b5080600080600354815260200190815260200160002060010181905550600260008281526020019081526020016000206003549080600181540180825580915050600190039060005260206000200160009091909190915055600360008154809291906001019190505550505050565b610aa9610c7f565b600080838152602001908152602001600020604051806060016040529081600082018054600181600116156101000203166002900480601f016020809104026020016040519081016040528092919081815260200182805460018160011615610100020316600290048015610b5f5780601f10610b3457610100808354040283529160200191610b5f565b820191906000526020600020905b815481529060010190602001808311610b4257829003601f168201915b50505050508152602001600182015481526020016002820160009054906101000a900473ffffffffffffffffffffffffffffffffffffffff1673ffffffffffffffffffffffffffffffffffffffff1673ffffffffffffffffffffffffffffffffffffffff16815250509050919050565b604051806040016040528060608152602001600073ffffffffffffffffffffffffffffffffffffffff1681525090565b828054600181600116156101000203166002900490600052602060002090601f016020900481019282601f10610c4057803560ff1916838001178555610c6e565b82800160010185558215610c6e579182015b82811115610c6d578235825591602001919060010190610c52565b5b509050610c7b9190610cb6565b5090565b60405180606001604052806060815260200160008152602001600073ffffffffffffffffffffffffffffffffffffffff1681525090565b5b80821115610ccf576000816000905550600101610cb7565b5090565b600081359050610ce281611506565b92915050565b600081519050610cf781611506565b92915050565b60008083601f840112610d0f57600080fd5b8235905067ffffffffffffffff811115610d2857600080fd5b602083019150836001820283011115610d4057600080fd5b9250929050565b600082601f830112610d5857600080fd5b8151610d6b610d66826113af565b611382565b91508082526020830160208301858383011115610d8757600080fd5b610d928382846114c2565b50505092915050565b600060608284031215610dad57600080fd5b610db76060611382565b9050600082015167ffffffffffffffff811115610dd357600080fd5b610ddf84828501610d47565b6000830152506020610df384828501610e28565b6020830152506040610e0784828501610ce8565b60408301525092915050565b600081359050610e228161151d565b92915050565b600081519050610e378161151d565b92915050565b600060208284031215610e4f57600080fd5b6000610e5d84828501610cd3565b91505092915050565b600080600060408486031215610e7b57600080fd5b600084013567ffffffffffffffff811115610e9557600080fd5b610ea186828701610cfd565b93509350506020610eb486828701610e13565b9150509250925092565b60008060008060608587031215610ed457600080fd5b600085013567ffffffffffffffff811115610eee57600080fd5b610efa87828801610cfd565b94509450506020610f0d87828801610e13565b9250506040610f1e87828801610cd3565b91505092959194509250565b600060208284031215610f3c57600080fd5b600082015167ffffffffffffffff811115610f5657600080fd5b610f6284828501610d9b565b91505092915050565b600060208284031215610f7d57600080fd5b6000610f8b84828501610e13565b91505092915050565b600080600060408486031215610fa957600080fd5b6000610fb786828701610e13565b935050602084013567ffffffffffffffff811115610fd457600080fd5b610fe086828701610cfd565b92509250509250925092565b6000806000806060858703121561100257600080fd5b600061101087828801610e13565b945050602085013567ffffffffffffffff81111561102d57600080fd5b61103987828801610cfd565b9350935050604061104c87828801610cd3565b91505092959194509250565b6000611064838361121f565b60208301905092915050565b6110798161147d565b82525050565b61108881611441565b82525050565b6000611099826113eb565b6110a3818561140e565b93506110ae836113db565b8060005b838110156110df5781516110c68882611058565b97506110d183611401565b9250506001810190506110b2565b5085935050505092915050565b60006110f88385611430565b93506111058385846114b3565b61110e836114f5565b840190509392505050565b6000611124826113f6565b61112e818561141f565b935061113e8185602086016114c2565b611147816114f5565b840191505092915050565b600061115f601683611430565b91507f456c656d656e7420646f6573206e6f74206578697374000000000000000000006000830152602082019050919050565b600060408301600083015184820360008601526111af8282611119565b91505060208301516111c4602086018261107f565b508091505092915050565b600060608301600083015184820360008601526111ec8282611119565b9150506020830151611201602086018261121f565b506040830151611214604086018261107f565b508091505092915050565b61122881611473565b82525050565b61123781611473565b82525050565b60006020820190508181036000830152611257818461108e565b905092915050565b6000604082019050818103600083015261127a8185876110ec565b9050611289602083018461122e565b949350505050565b600060208201905081810360008301526112aa81611152565b9050919050565b600060208201905081810360008301526112cb8184611192565b905092915050565b600060208201905081810360008301526112ed81846111cf565b905092915050565b600060208201905061130a600083018461122e565b92915050565b6000604082019050611325600083018661122e565b81810360208301526113388184866110ec565b9050949350505050565b6000606082019050611357600083018761122e565b818103602083015261136a8185876110ec565b90506113796040830184611070565b95945050505050565b6000604051905081810181811067ffffffffffffffff821117156113a557600080fd5b8060405250919050565b600067ffffffffffffffff8211156113c657600080fd5b601f19601f8301169050602081019050919050565b6000819050602082019050919050565b600081519050919050565b600081519050919050565b6000602082019050919050565b600082825260208201905092915050565b600082825260208201905092915050565b600082825260208201905092915050565b600061144c82611453565b9050919050565b600073ffffffffffffffffffffffffffffffffffffffff82169050919050565b6000819050919050565b60006114888261148f565b9050919050565b600061149a826114a1565b9050919050565b60006114ac82611453565b9050919050565b82818337600083830152505050565b60005b838110156114e05780820151818401526020810190506114c5565b838111156114ef576000848401525b50505050565b6000601f19601f8301169050919050565b61150f81611441565b811461151a57600080fd5b50565b61152681611473565b811461153157600080fd5b5056fea26469706673582212203f3ae0bfcf51cd972f1e9b80cf7326e0fe2a3b85d1f1dca36ec6bca2068db62a64736f6c634300060c0033",
  "immutableReferences": {},
  "source": "// SPDX-License-Identifier: MIT\n\npragma solidity ^0.6.0;\npragma experimental ABIEncoderV2;\n\n//import '../../OpenZeppelin/openzeppelin-contracts/contracts/math/SafeMath.sol';\nimport '@openzeppelin/contracts/math/SafeMath.sol';\n\nimport './Recordable.sol';\nimport './Certifiable.sol';\n\n/// @title Production activity contract. A production activity is recordable by an operator and certifiable by a certifier.\ncontract ProductionActivity is Recordable, Certifiable {\n    \n    /// @param _id Production activity ID\n    /// @param _description Description of certification\n    function certifyProduction(uint256 _id, string calldata _description) external {\n        if (this.getById(_id).registeredBy == address(0)) revert('Element does not exist');\n        this.certify(_id, _description, msg.sender);\n    }\n}\n",
  "sourcePath": "/home/francesca/WebstormProjects/APT/contracts/ProductionActivity.sol",
  "compiler": {
    "name": "solc",
    "version": "0.6.12+commit.27d51765.Emscripten.clang"
  },
  "schemaVersion": "3.2.5",
  "updatedAt": "2020-10-01T15:26:49.400Z",
  "networkType": "ethereum",
  "devdoc": {
    "kind": "dev",
    "methods": {
      "certify(uint256,string)": {
        "params": {
          "_description": "Certification description",
          "_id": "Item to be certified"
        }
      },
      "certify(uint256,string,address)": {
        "params": {
          "_description": "Certification description",
          "_id": "Item to be certified",
          "_source": "Original sender"
        }
      },
      "certifyProduction(uint256,string)": {
        "params": {
          "_description": "Description of certification",
          "_id": "Production activity ID"
        }
      },
      "getByCertifier(address)": {
        "params": {
          "_address": "Certifier address for which to retrieve certifications"
        },
        "returns": {
          "_0": "the array containing all the certifications perfomed by a specific certifier"
        }
      },
      "getById(uint256)": {
        "params": {
          "_id": "Item ID"
        },
        "returns": {
          "_0": "the item data only if the item exists"
        }
      },
      "getByItem(uint256)": {
        "params": {
          "_item": "Item ID for which to retrieve certifications"
        },
        "returns": {
          "_0": "the array containing all the certifications related to a specific item"
        }
      },
      "getByOperator(address)": {
        "params": {
          "_address": "Operator's address"
        },
        "returns": {
          "_0": "the array containing all the item IDs registered by a specific operator"
        }
      },
      "getByPortion(uint256)": {
        "params": {
          "_id": "Portion ID"
        },
        "returns": {
          "_0": "the array containing all the the item IDs registered in a specific portion"
        }
      },
      "getCertificationById(uint256)": {
        "params": {
          "_id": "Item for which to retrieve certifications"
        },
        "returns": {
          "_0": "the related certification"
        }
      },
      "getTotal()": {
        "returns": {
          "_0": "the number of registerd items"
        }
      },
      "register(string,uint256)": {
        "params": {
          "_description": "Item description",
          "_id": "Related portion ID"
        }
      },
      "register(string,uint256,address)": {
        "params": {
          "_description": "Item description",
          "_id": "Related portion ID",
          "_source": "Original sender"
        }
      }
    },
    "title": "Production activity contract. A production activity is recordable by an operator and certifiable by a certifier.",
    "version": 1
  },
  "userdoc": {
    "kind": "user",
    "methods": {},
    "version": 1
  }
}