{
  "contractName": "ProductionActivity",
  "abi": [
    {
      "inputs": [
        {
          "internalType": "uint256",
          "name": "_id",
          "type": "uint256"
        },
        {
          "internalType": "string",
          "name": "_description",
          "type": "string"
        }
      ],
      "name": "certify",
      "outputs": [],
      "stateMutability": "nonpayable",
      "type": "function"
    },
    {
      "inputs": [
        {
          "internalType": "address",
          "name": "_address",
          "type": "address"
        }
      ],
      "name": "getByCertifier",
      "outputs": [
        {
          "internalType": "uint256[]",
          "name": "",
          "type": "uint256[]"
        }
      ],
      "stateMutability": "view",
      "type": "function",
      "constant": true
    },
    {
      "inputs": [
        {
          "internalType": "uint256",
          "name": "_id",
          "type": "uint256"
        }
      ],
      "name": "getById",
      "outputs": [
        {
          "components": [
            {
              "internalType": "string",
              "name": "description",
              "type": "string"
            },
            {
              "internalType": "uint256",
              "name": "portion",
              "type": "uint256"
            },
            {
              "internalType": "address",
              "name": "registeredBy",
              "type": "address"
            }
          ],
          "internalType": "struct Recordable.Data",
          "name": "",
          "type": "tuple"
        }
      ],
      "stateMutability": "view",
      "type": "function",
      "constant": true
    },
    {
      "inputs": [
        {
          "internalType": "uint256",
          "name": "_item",
          "type": "uint256"
        }
      ],
      "name": "getByItem",
      "outputs": [
        {
          "internalType": "uint256[]",
          "name": "",
          "type": "uint256[]"
        }
      ],
      "stateMutability": "view",
      "type": "function",
      "constant": true
    },
    {
      "inputs": [
        {
          "internalType": "address",
          "name": "_address",
          "type": "address"
        }
      ],
      "name": "getByOperator",
      "outputs": [
        {
          "internalType": "uint256[]",
          "name": "",
          "type": "uint256[]"
        }
      ],
      "stateMutability": "view",
      "type": "function",
      "constant": true
    },
    {
      "inputs": [
        {
          "internalType": "uint256",
          "name": "_id",
          "type": "uint256"
        }
      ],
      "name": "getByPortion",
      "outputs": [
        {
          "internalType": "uint256[]",
          "name": "",
          "type": "uint256[]"
        }
      ],
      "stateMutability": "view",
      "type": "function",
      "constant": true
    },
    {
      "inputs": [
        {
          "internalType": "uint256",
          "name": "_id",
          "type": "uint256"
        }
      ],
      "name": "getCertificationById",
      "outputs": [
        {
          "components": [
            {
              "internalType": "string",
              "name": "description",
              "type": "string"
            },
            {
              "internalType": "address",
              "name": "certifier",
              "type": "address"
            }
          ],
          "internalType": "struct Certifiable.Certification",
          "name": "",
          "type": "tuple"
        }
      ],
      "stateMutability": "view",
      "type": "function",
      "constant": true
    },
    {
      "inputs": [],
      "name": "getTotal",
      "outputs": [
        {
          "internalType": "uint256",
          "name": "",
          "type": "uint256"
        }
      ],
      "stateMutability": "view",
      "type": "function",
      "constant": true
    },
    {
      "inputs": [
        {
          "internalType": "string",
          "name": "_description",
          "type": "string"
        },
        {
          "internalType": "uint256",
          "name": "_id",
          "type": "uint256"
        }
      ],
      "name": "register",
      "outputs": [],
      "stateMutability": "nonpayable",
      "type": "function"
    },
    {
      "inputs": [
        {
          "internalType": "uint256",
          "name": "_id",
          "type": "uint256"
        },
        {
          "internalType": "string",
          "name": "_description",
          "type": "string"
        }
      ],
      "name": "certifyProduction",
      "outputs": [],
      "stateMutability": "nonpayable",
      "type": "function"
    }
  ],
  "bytecode": "0x608060405234801561001057600080fd5b506112a1806100206000396000f3fe608060405234801561001057600080fd5b506004361061009e5760003560e01c806365b6f9871161006657806365b6f98714610193578063775a25e3146101af578063e10ef890146101cd578063ea87152b146101e9578063f4f4d237146102055761009e565b806304d6e3f6146100a357806327225077146100d357806337b2b5ad146101035780634a4d72e11461013357806352acbb5814610163575b600080fd5b6100bd60048036038101906100b89190610dc5565b610235565b6040516100ca919061101c565b60405180910390f35b6100ed60048036038101906100e89190610dc5565b6102a0565b6040516100fa919061105e565b60405180910390f35b61011d60048036038101906101189190610d03565b6103c5565b60405161012a919061101c565b60405180910390f35b61014d60048036038101906101489190610d03565b61045c565b60405161015a919061101c565b60405180910390f35b61017d60048036038101906101789190610dc5565b6104f3565b60405161018a919061101c565b60405180910390f35b6101ad60048036038101906101a89190610dee565b61055e565b005b6101b7610694565b6040516101c491906110a2565b60405180910390f35b6101e760048036038101906101e29190610dee565b61069e565b005b61020360048036038101906101fe9190610d2c565b610813565b005b61021f600480360381019061021a9190610dc5565b610967565b60405161022c9190611080565b60405180910390f35b60606002600083815260200190815260200160002080548060200260200160405190810160405280929190818152602001828054801561029457602002820191906000526020600020905b815481526020019060010190808311610280575b50505050509050919050565b6102a8610a95565b60056000838152602001908152602001600020604051806040016040529081600082018054600181600116156101000203166002900480601f01602080910402602001604051908101604052809291908181526020018280546001816001161561010002031660029004801561035f5780601f106103345761010080835404028352916020019161035f565b820191906000526020600020905b81548152906001019060200180831161034257829003601f168201915b505050505081526020016001820160009054906101000a900473ffffffffffffffffffffffffffffffffffffffff1673ffffffffffffffffffffffffffffffffffffffff1673ffffffffffffffffffffffffffffffffffffffff16815250509050919050565b6060600660008373ffffffffffffffffffffffffffffffffffffffff1673ffffffffffffffffffffffffffffffffffffffff16815260200190815260200160002080548060200260200160405190810160405280929190818152602001828054801561045057602002820191906000526020600020905b81548152602001906001019080831161043c575b50505050509050919050565b6060600160008373ffffffffffffffffffffffffffffffffffffffff1673ffffffffffffffffffffffffffffffffffffffff1681526020019081526020016000208054806020026020016040519081016040528092919081815260200182805480156104e757602002820191906000526020600020905b8154815260200190600101908083116104d3575b50505050509050919050565b60606007600083815260200190815260200160002080548060200260200160405190810160405280929190818152602001828054801561055257602002820191906000526020600020905b81548152602001906001019080831161053e575b50505050509050919050565b81816005600060045481526020019081526020016000206000019190610585929190610ac5565b503360056000600454815260200190815260200160002060010160006101000a81548173ffffffffffffffffffffffffffffffffffffffff021916908373ffffffffffffffffffffffffffffffffffffffff16021790555060076000848152602001908152602001600020839080600181540180825580915050600190039060005260206000200160009091909190915055600660003373ffffffffffffffffffffffffffffffffffffffff1673ffffffffffffffffffffffffffffffffffffffff168152602001908152602001600020839080600181540180825580915050600190039060005260206000200160009091909190915055600460008154809291906001019190505550505050565b6000600354905090565b600073ffffffffffffffffffffffffffffffffffffffff163073ffffffffffffffffffffffffffffffffffffffff1663f4f4d237856040518263ffffffff1660e01b81526004016106ef91906110a2565b60006040518083038186803b15801561070757600080fd5b505afa15801561071b573d6000803e3d6000fd5b505050506040513d6000823e3d601f19601f820116820180604052508101906107449190610d84565b6040015173ffffffffffffffffffffffffffffffffffffffff16141561079f576040517f08c379a00000000000000000000000000000000000000000000000000000000081526004016107969061103e565b60405180910390fd5b3073ffffffffffffffffffffffffffffffffffffffff166365b6f9878484846040518463ffffffff1660e01b81526004016107dc939291906110bd565b600060405180830381600087803b1580156107f657600080fd5b505af115801561080a573d6000803e3d6000fd5b50505050505050565b828260008060035481526020019081526020016000206000019190610839929190610ac5565b508060008060035481526020019081526020016000206001018190555033600080600354815260200190815260200160002060020160006101000a81548173ffffffffffffffffffffffffffffffffffffffff021916908373ffffffffffffffffffffffffffffffffffffffff160217905550600160003373ffffffffffffffffffffffffffffffffffffffff1673ffffffffffffffffffffffffffffffffffffffff1681526020019081526020016000206003549080600181540180825580915050600190039060005260206000200160009091909190915055600260008281526020019081526020016000206003549080600181540180825580915050600190039060005260206000200160009091909190915055600360008154809291906001019190505550505050565b61096f610b45565b600080838152602001908152602001600020604051806060016040529081600082018054600181600116156101000203166002900480601f016020809104026020016040519081016040528092919081815260200182805460018160011615610100020316600290048015610a255780601f106109fa57610100808354040283529160200191610a25565b820191906000526020600020905b815481529060010190602001808311610a0857829003601f168201915b50505050508152602001600182015481526020016002820160009054906101000a900473ffffffffffffffffffffffffffffffffffffffff1673ffffffffffffffffffffffffffffffffffffffff1673ffffffffffffffffffffffffffffffffffffffff16815250509050919050565b604051806040016040528060608152602001600073ffffffffffffffffffffffffffffffffffffffff1681525090565b828054600181600116156101000203166002900490600052602060002090601f016020900481019282601f10610b0657803560ff1916838001178555610b34565b82800160010185558215610b34579182015b82811115610b33578235825591602001919060010190610b18565b5b509050610b419190610b7c565b5090565b60405180606001604052806060815260200160008152602001600073ffffffffffffffffffffffffffffffffffffffff1681525090565b5b80821115610b95576000816000905550600101610b7d565b5090565b600081359050610ba88161123d565b92915050565b600081519050610bbd8161123d565b92915050565b60008083601f840112610bd557600080fd5b8235905067ffffffffffffffff811115610bee57600080fd5b602083019150836001820283011115610c0657600080fd5b9250929050565b600082601f830112610c1e57600080fd5b8151610c31610c2c8261111c565b6110ef565b91508082526020830160208301858383011115610c4d57600080fd5b610c588382846111f9565b50505092915050565b600060608284031215610c7357600080fd5b610c7d60606110ef565b9050600082015167ffffffffffffffff811115610c9957600080fd5b610ca584828501610c0d565b6000830152506020610cb984828501610cee565b6020830152506040610ccd84828501610bae565b60408301525092915050565b600081359050610ce881611254565b92915050565b600081519050610cfd81611254565b92915050565b600060208284031215610d1557600080fd5b6000610d2384828501610b99565b91505092915050565b600080600060408486031215610d4157600080fd5b600084013567ffffffffffffffff811115610d5b57600080fd5b610d6786828701610bc3565b93509350506020610d7a86828701610cd9565b9150509250925092565b600060208284031215610d9657600080fd5b600082015167ffffffffffffffff811115610db057600080fd5b610dbc84828501610c61565b91505092915050565b600060208284031215610dd757600080fd5b6000610de584828501610cd9565b91505092915050565b600080600060408486031215610e0357600080fd5b6000610e1186828701610cd9565b935050602084013567ffffffffffffffff811115610e2e57600080fd5b610e3a86828701610bc3565b92509250509250925092565b6000610e528383610ffe565b60208301905092915050565b610e67816111ae565b82525050565b6000610e7882611158565b610e82818561117b565b9350610e8d83611148565b8060005b83811015610ebe578151610ea58882610e46565b9750610eb08361116e565b925050600181019050610e91565b5085935050505092915050565b6000610ed7838561119d565b9350610ee48385846111ea565b610eed8361122c565b840190509392505050565b6000610f0382611163565b610f0d818561118c565b9350610f1d8185602086016111f9565b610f268161122c565b840191505092915050565b6000610f3e60168361119d565b91507f456c656d656e7420646f6573206e6f74206578697374000000000000000000006000830152602082019050919050565b60006040830160008301518482036000860152610f8e8282610ef8565b9150506020830151610fa36020860182610e5e565b508091505092915050565b60006060830160008301518482036000860152610fcb8282610ef8565b9150506020830151610fe06020860182610ffe565b506040830151610ff36040860182610e5e565b508091505092915050565b611007816111e0565b82525050565b611016816111e0565b82525050565b600060208201905081810360008301526110368184610e6d565b905092915050565b6000602082019050818103600083015261105781610f31565b9050919050565b600060208201905081810360008301526110788184610f71565b905092915050565b6000602082019050818103600083015261109a8184610fae565b905092915050565b60006020820190506110b7600083018461100d565b92915050565b60006040820190506110d2600083018661100d565b81810360208301526110e5818486610ecb565b9050949350505050565b6000604051905081810181811067ffffffffffffffff8211171561111257600080fd5b8060405250919050565b600067ffffffffffffffff82111561113357600080fd5b601f19601f8301169050602081019050919050565b6000819050602082019050919050565b600081519050919050565b600081519050919050565b6000602082019050919050565b600082825260208201905092915050565b600082825260208201905092915050565b600082825260208201905092915050565b60006111b9826111c0565b9050919050565b600073ffffffffffffffffffffffffffffffffffffffff82169050919050565b6000819050919050565b82818337600083830152505050565b60005b838110156112175780820151818401526020810190506111fc565b83811115611226576000848401525b50505050565b6000601f19601f8301169050919050565b611246816111ae565b811461125157600080fd5b50565b61125d816111e0565b811461126857600080fd5b5056fea2646970667358221220a0ab36f51af2d81b954f4b6da877b9cd960d0e52b06cad070977ccf0f0de126b64736f6c634300060c0033",
  "immutableReferences": {},
  "source": "// SPDX-License-Identifier: MIT\n\npragma solidity ^0.6.0;\npragma experimental ABIEncoderV2;\n\n//import '../../OpenZeppelin/openzeppelin-contracts/contracts/math/SafeMath.sol';\nimport '@openzeppelin/contracts/math/SafeMath.sol';\n\nimport './Recordable.sol';\nimport './Certifiable.sol';\n\n/// @title Production activity contract. A production activity is recordable by an operator and certifiable by a certifier.\ncontract ProductionActivity is Recordable, Certifiable {\n    \n    /// @param _id Production activity ID\n    /// @param _description Description of certification\n    function certifyProduction(uint256 _id, string calldata _description) external {\n        if (this.getById(_id).registeredBy == address(0)) revert('Element does not exist');\n        this.certify(_id, _description);\n    }\n}\n",
  "sourcePath": "/home/francesca/WebstormProjects/APT/contracts/ProductionActivity.sol",
  "compiler": {
    "name": "solc",
    "version": "0.6.12+commit.27d51765.Emscripten.clang"
  },
  "schemaVersion": "3.2.5",
  "updatedAt": "2020-10-01T11:56:41.415Z",
  "networkType": "ethereum",
  "devdoc": {
    "kind": "dev",
    "methods": {
      "certify(uint256,string)": {
        "params": {
          "_description": "Certification description",
          "_id": "Item to be certified"
        }
      },
      "certifyProduction(uint256,string)": {
        "params": {
          "_description": "Description of certification",
          "_id": "Production activity ID"
        }
      },
      "getByCertifier(address)": {
        "params": {
          "_address": "Certifier address for which to retrieve certifications"
        },
        "returns": {
          "_0": "the array containing all the certifications perfomed by a specific certifier"
        }
      },
      "getById(uint256)": {
        "params": {
          "_id": "Item ID"
        },
        "returns": {
          "_0": "the item data only if the item exists"
        }
      },
      "getByItem(uint256)": {
        "params": {
          "_item": "Item ID for which to retrieve certifications"
        },
        "returns": {
          "_0": "the array containing all the certifications related to a specific item"
        }
      },
      "getByOperator(address)": {
        "params": {
          "_address": "Operator's address"
        },
        "returns": {
          "_0": "the array containing all the item IDs registered by a specific operator"
        }
      },
      "getByPortion(uint256)": {
        "params": {
          "_id": "Portion ID"
        },
        "returns": {
          "_0": "the array containing all the the item IDs registered in a specific portion"
        }
      },
      "getCertificationById(uint256)": {
        "params": {
          "_id": "Item for which to retrieve certifications"
        },
        "returns": {
          "_0": "the related certification"
        }
      },
      "getTotal()": {
        "returns": {
          "_0": "the number of registerd items"
        }
      },
      "register(string,uint256)": {
        "params": {
          "_description": "Item description",
          "_id": "Related portion ID"
        }
      }
    },
    "title": "Production activity contract. A production activity is recordable by an operator and certifiable by a certifier.",
    "version": 1
  },
  "userdoc": {
    "kind": "user",
    "methods": {},
    "version": 1
  }
}